:100000000C94FB020C9418030C9418030C94180322
:100010000C9418030C9418030C9418030C941803F4
:100020000C9418030C9418030C947F220C943B221C
:100030000C947C230C9418030C9418030C94180350
:100040000C9418030C9418030C9418030C941803C4
:100050000C9418030C9458230C9418030C94180354
:100060000C9418030C9418030C9418030C941803A4
:100070000C9418030C9418030C9418030C94180394
:100080000C9418030C9418030C9418030C94180384
:100090000C9418030C9418030C9418030C94180374
:1000A0000C9418030C9418030C941803000000001F
:1000B0000000000000000000000000000000000040
:1000C0000000000000000000000000000000000030
:1000D0007E0F00D4FFFFFFC7000000780000000083
:1000E000000000002A2B2800000000000000000093
:1000F0000000000000000029000000002C1E342039
:10010000212224342627252E362D3738271E1F205E
:100110002122232425263333362E37381F040506A3
:100120000708090A0B0C0D0E0F10111213141516E7
:100130001718191A1B1C1D2F3130232D35040506E5
:100140000708090A0B0C0D0E0F10111213141516C7
:100150001718191A1B1C1D2F3130354C53756D00A3
:10016000B1830057B583B783B9831957BD83BF8364
:10017000C183C4830657075700000451015102513F
:1001800060A21DA264A20A5711A20E57105702A224
:10019000D2A1145700A2AC8000000000015103510D
:1001A000B2830157B6830257BA83BC8303570457FF
:1001B0000557C583C78308570000055103510251F5
:1001C00048A261A265A209570FA20F5792A107A2E8
:1001D000D4A11557165717570000000003510351BB
:1001E00002830383D7A00C572AA211571257135723
:1001F000C5A21857B080000000000451000005514E
:100200000C8304830B570D5729A205A216A206AA38
:100210002FAA25A21EA200000000055100000551D2
:10022000B1830057B583B783B9831957BD83BF83A3
:10023000C183C4830657075700001050075102516D
:1002400060A21DA264A20A5711A20E57105702A263
:10025000D2A1145700A2AC800000105007510251E7
:1002600000047F3F1F643214643214783C1E1E1455
:100270000A0500010101010101010101020202025E
:100280000202020202030303030303030304040440
:100290000404040405050505050606060606070709
:1002A00007070708080808090909090A0A0A0B0BC1
:1002B0000B0C0C0C0D0D0D0E0E0E0F0F0F10101160
:1002C00011111212131314141515161617171818E6
:1002D00019191A1A1B1B1C1D1D1E1E1F202021224E
:1002E00022232424252626272829292A2B2C2D2D94
:1002F0002E2F30313232333435363738393A3B3CB1
:100300003D3E3F404142434445464748494A4C4DA3
:100310004E4F50515354555658595A5B5D5E5F616C
:100320006264656668696B6C6D6F707273757778FF
:100330007A7B7D7E8082838587888A8C8E8F91935D
:100340009596989A9C9EA0A2A3A5A7A9ABADAFB184
:10035000B3B5B7BABCBEC0C2C4C6C9CBCDCFD1D469
:10036000D6D8DBDDDFE2E4E7E9EBEEF0F3F5F8FA0F
:10037000FDFFFFAA7F55402223252628292A2C2D60
:100380002F3032333536383A3B3D3E4042434547C5
:10039000494A4C4E5051535557595A5C5E606264FD
:1003A0006668696B6D6F71737577797B7D7F81830B
:1003B0008587898A8C8E90929496989A9C9E9FA10C
:1003C000A3A5A7A8AAACAEAFB1B3B4B6B8B9BBBC2D
:1003D000BEBFC1C2C3C5C6C7C9CACBCCCDCED0D1A2
:1003E000D2D2D3D4D5D6D7D7D8D9D9DADADBDBDB9A
:1003F000DCDCDCDCDCDDDDDDDDDCDCDCDCDCDBDB3B
:10040000DBDADAD9D9D8D7D7D6D5D4D3D2D2D1D08E
:10041000CECDCCCBCAC9C7C6C5C3C2C1BFBEBCBB8B
:10042000B9B8B6B4B3B1AFAEACAAA8A7A5A3A19F03
:100430009E9C9A98969492908E8C8A8987858381C7
:100440007F7D7B79777573716F6D6B6968666462A8
:10045000605E5C5A5957555351504E4C4A49474576
:100460004342403E3D3B3A3836353332302F2D2C17
:100470002A29282625232205010902A1018502092E
:1004800001A1000509190129081500250195087524
:100490000181020501093009311581257F95027519
:1004A00008810609381581257F95017508810605A3
:1004B0000C0A38021581257F950175088106C0C098
:1004C00005010980A101850319012AB7001501263C
:1004D000B700950175108100C0050C0901A10185C7
:1004E0000419012AA002150126A0029501751081A8
:1004F00000C005010906A1018506050719E029E7E5
:10050000150025019508750181020507190029EFDD
:100510001500250195F075018102050819012905CD
:10052000950575019102950175039101C0050109B9
:1005300006A101050719E029E715002501950875B1
:100540000181029501750881010507190029FF1530
:100550000026FF0095067508810005081901290588
:10056000950575019102950175039101C009023B42
:1005700000020100A0FA09040000010301010009C2
:100580002111010001224000070581030800010933
:10059000040100010300000009211101000122B63D
:1005A000000705820320000112010002000000087C
:1005B0000000610101000102000114034D0061000F
:1005C0007400680062006F00610072006400000047
:1005D00020034D00610067006E00650020004C00A4
:1005E000610075007200690074007A0065006E0099
:1005F00000000403090411241FBECFEFDAE0DEBFC0
:10060000CDBF14E0A0E0B1E0EAECF0E502C0059057
:100610000D92A833B107D9F725E0A8E3B4E001C0F3
:100620001D92A734B207E1F70E94A3230C944D2832
:100630000C940000E8EDF0E080818E7F80831092C2
:10064000E2001092DA001092E100A0EEB0E08C918E
:1006500081608C9380818F77808319BCA7EDB0E097
:100660008C918E7F8C9380818F7E80831092150574
:1006700008952091E4003091E50095E6A9012091CC
:10068000EC00822F817020FF06C08091E80080FF7F
:1006900006C080E008952091E80022FD1AC08091F4
:1006A0003A05882389F0853089F08091EB0085FD3B
:1006B0000FC02091E4003091E50042175307F9F292
:1006C0009150E1F684E0089582E0089583E0089572
:1006D00081E00895EF92FF920F931F93CF937C01D7
:1006E0008B010E943903C82F811117C08091E80047
:1006F00085FD0BC08091E8008E778093E8000E9412
:100700003903882399F3C82F08C0F70181917F012D
:100710008093F1000150110949F78C2FCF911F915F
:100720000F91FF90EF90089580913C0587FF13C0D3
:100730008091E80082FF06C08091E8008B7780936B
:10074000E80004C080913A058111F2CF08958091AC
:100750003A058823D9F38091E80080FFF8CF809193
:10076000E8008E77ECCF982F9093E900242F762F16
:1007700050E0891731F07091EC002091ED0050911C
:10078000F00021FD07C09F5F973071F78093E9006B
:1007900081E008953091EB003E7F3093EB00309183
:1007A000ED003D7F3093ED003091EB0031603093F0
:1007B000EB007093EC002093ED005093F00020913B
:1007C000EE0027FDE0CF80E00895B0E0A0E0EBEE82
:1007D000F3E00C94BE27C8EDD0E088818F7E88833B
:1007E000E7EDF0E080818160808384E082BF81E07A
:1007F0008093150588818E7F888302EE10E0F801D2
:1008000010821092DA0081EEC82ED12CF6011082EF
:1008100088818F77888388818068888388818F7DAD
:10082000888319BC10923A0510923B051092390545
:100830001092380590EEE92EF12CF70180818B7F24
:10084000808388818160888342E060E080E00E944C
:10085000B303F60180818E7F8083F80180818160FF
:100860008083808188608083F70180818E7F808390
:10087000888180618883CDB7DEB7E8E00C94DA2701
:10088000FC01809142059091430586179707A0F0DF
:100890006115710529F49091E8009E779093E80026
:1008A00090E06115710551F4911108C08091E80044
:1008B00082FF34C080E00895BC01F2CF80913A05F8
:1008C0008823C1F18530C1F18091E80083FD30C0FB
:1008D0008091E80082FDEACF8091E80080FFE1CFBF
:1008E0008091F3002091F200382F6115710519F005
:1008F0002830310558F091E02830310509F090E0BA
:100900002091E8002E772093E800CBCF819180934F
:10091000F100615071092F5F3F4FE7CF80913A0599
:10092000882341F0853041F08091E80083FFBECFFD
:1009300081E0089582E0089583E00895089580910C
:10094000170508959C014FB7F89480910C0590917C
:100950000D05A0910E05B0910F054FBF821B930BA3
:1009600008952FB7F89480910C0590910D05A091F2
:100970000E05B0910F052FBF089520915803222333
:10098000C9F02091100527FF15C0E62FE695E695E2
:10099000E695EE31D8F4E80FF92FF11D677021E0EC
:1009A00030E001C0220F6A95EAF720958281282362
:1009B00022830895FC01329608962191621303C0A8
:1009C000DF0111971C92E817F907B9F708952091F4
:1009D00058032223C1F02091100527FF14C0E62FF1
:1009E000E695E695E695EE31F8F4E80FF92FF11D5E
:1009F000677021E030E001C0220F6A95EAF782813A
:100A0000822B82830895FC0132962FEF30E04191D2
:100A1000641751F02F3F19F4411101C0232F3F5F9C
:100A20003630A9F72F3F09F40895820F911D27FD55
:100A30009A95FC01628308952091090530910A0579
:100A40002817390771F090930A0580930905E09102
:100A50000705F0910805309721F00084F185E02D1D
:100A60000995089520910505309106052817390745
:100A700071F09093060580930505E0910705F091CC
:100A80000805309721F00680F781E02D099508953B
:100A9000E0910705F0910805309729F00190F08169
:100AA000E02D0995089580E00895FA01811101C0B3
:100AB000FB010995089508958091F404982F9E7F75
:100AC00029F4817082608093F40408958A34E8F3F5
:100AD00081708864F8CFAF92BF92DF92EF92FF925D
:100AE0000F931F93CF93DF93082F162FE901E42F65
:100AF000F0E0EE58FD4F611110C0E4915E2F4E2FD3
:100B00004983E8835A83DF91CF911F910F91FF9022
:100B1000EF90DF90BF90AF900895E62EF12C4491B6
:100B2000D42EE42FF0E026E0829FC00111242FEFA5
:100B300030E0B9010E943327802F90E0880F991F81
:100B400055E5569FD001579FB00D11248A1B9B0B72
:100B5000982F990F890F5901AE18BF08AE9ED0018A
:100B6000AF9EB00DBE9EB00D11245B2F189F80016B
:100B70001124012F11275901A01AB10AAE9E80013C
:100B8000AF9E100DBE9E100D11245901A81AB10878
:100B9000AE9CC001AF9C900DBE9C900D1124892F7E
:100BA0009927281B390B2E9FC0012F9F900D3E9F28
:100BB000900D1124E92F62307105A1F050F46115F8
:100BC000710509F49DCF6130710581F0EB2F512F34
:100BD00097CF6430710569F080F06630710509F4D3
:100BE0008FCFF4CFE42F4B2F592F8ACFE42F412FF3
:100BF00087CFEB2F542F492F83CF4B2F5D2DE12F24
:100C00007FCF0E94B1049C019091E2048091E304A3
:100C1000982B21F03093DF042093DE049091E404BC
:100C20008091E504982B21F03093DD042093DC04BF
:100C3000E0910705F0910805309749F082E0809334
:100C4000E0040480F581E02D80EE94E0099508959C
:100C50004091E2048D3E59F48091E30487FF0DC07A
:100C60001092E30441110BC01092DA0408C08E3ECA
:100C700081F48091E30418169CF3442381F0809161
:100C8000E4049091E504892B09F05AC01092D9042C
:100C900008958F3E49F447FFF0CF1092E20480910F
:100CA000E3048111ECCFE0CF803F19F41416ACF3CC
:100CB000E4CF9091E404893F29F41916F4F61092D8
:100CC000E404DBCF8A3F19F497FFD7CFF8CF909198
:100CD000E5048B3F29F497FFD0CF1092E504CDCFE8
:100CE0008C3F19F41916CCF3C8CF9FE0980F9830B9
:100CF00090F4815F990B21E030E0B90102C0660FEA
:100D0000771F8A95E2F7CB0180959091E1048923C2
:100D10008093E104B2CF8D3F31F48091DB048E7F6C
:100D20008093DB04AACF8E3F21F48091DB048D7F7A
:100D3000F7CF8F3F09F0A1CF8091DB048B7FF0CFFD
:100D400008958091DB0480FD16C081FD16C082FDF0
:100D500016C08091D9048823A1F0883280F428E05D
:100D6000829FC001112468E270E00E944727862F0D
:100D7000672B39F0089582E0089584E0089588E0B3
:100D8000089581E008958091DB0480FD14C081FD09
:100D900014C082FD16C08091DA04882381F08E3160
:100DA00080F420E5829FC00111246EE170E00E9472
:100DB0004727862F089584E1089588E2089588E002
:100DC000089580E508958D3E31F40E94C306819513
:100DD0008093E30408958E3E19F40E94C306F8CF71
:100DE0008F3E31F40E94C30681958093E2040895FA
:100DF000803F19F40E94C306F8CF893F29F40E946E
:100E0000A1068093E40408958A3F21F40E94A1067C
:100E10008195F7CF8B3F31F40E94A1068195809395
:100E2000E50408958C3F19F40E94A106F8CF9FE0D5
:100E3000980F983070F4815F990B21E030E001C089
:100E4000220F8A95EAF78091E104822B8093E104D6
:100E500008958D3F31F48091DB0481608093DB0441
:100E600008958E3F21F48091DB048260F7CF8F3F9D
:100E7000B9F78091DB048460F1CF80E00895F894A5
:100E8000E82FE295EF70F0E031A1282F2F7081E07C
:100E900090E001C0880F2A95EAF7982F9095932348
:100EA00091A392A1892B82A3789408959091100523
:100EB00092FF06C0282F28712830F9F4877F8460BC
:100EC00093FF06C0282F28712831F1F4877E8461B2
:100ED0002091110520FF06C0382F38713830D9F421
:100EE000877F816021FF06C0282F28712831D1F427
:100EF000877E816194FD877E0895282F2471243098
:100F0000F9F68B7F8860DCCF282F2471243101F71C
:100F10008B7E8861DDCF382F3171313019F78E7FAC
:100F20008860E0CF282F2171213121F78E7E8861E2
:100F3000E1CF7430A8F4643098F494E0899FF00114
:100F40001124E70FF11DEE0FFF1FEE0FFF1FE60F3D
:100F5000F11DEE0FFF1FE05AFE4F85919491089509
:100F600080E090E00895CF93DF93EC018238910503
:100F7000A9F1D8F58133910509F496C048F5893275
:100F8000910509F48AC08A9709F495C0C11521E535
:100F9000D20708F0BCC0C11530E5D30708F014C172
:100FA000C83ED10508F09CC0C03ED10560F5C83AE6
:100FB000D10508F087C0C53AD10508F0FDC0C130A1
:100FC000D10509F12097F9F0C430D105E0F440C013
:100FD0008533910509F45AC0C997C1F6809110056F
:100FE000837089F0C0EED0E00EC0833E910599F188
:100FF00070F4803E910501F1823E910539F68091B1
:10100000100582FD21C0CE01DF91CF910895863E6B
:10101000910561F1873E910571F1843E910509F0DA
:10102000B5CF8091110581FFEECF80911005C7EEFD
:10103000D0E084FD0DC0E7CF8091100580FD12C186
:101040009091110590FFDFCFC3EED0E084FFDBCF9E
:10105000D0E0C0E0D8CF8091100582FD06C190910C
:10106000110590FDBFCF84FFCECFF2CF8091100548
:1010700083FDDDCFC8CF8091100583FDF9C090912D
:10108000110591FFF0CFC4EED0E0BDCF80911005E7
:1010900085FFB9CFC9E2D0E0B6CF8091100585FFBA
:1010A000B2CFC5E3D0E0AFCF8091100586FFABCFC4
:1010B000CAE2D0E0A8CF8091100586FFA4CFC1E39B
:1010C000D0E0A1CFCF3BD10518F6C85AD0E0CC0F65
:1010D000DD1FC452DC4F0990D881C02DD46493CF5A
:1010E000C11540E2D40758F4C11581E0D80708F0D3
:1010F0008ACFCD3ED10508F4ABCFD06584CFC115E2
:1011000090E4D90708F4A4CFDF70D06A7CCFC11572
:1011100025E5D20700F5C11534E5D30708F08AC0EC
:10112000C11543E5D40708F071C0C11582E5D807A1
:1011300008F467C0CE018370992721E030E002C037
:10114000220F331F8A95E2F7C695C69580E2C89FA5
:10115000E001112452C0C11599E5D907A8F4C115C1
:1011600028E5D20708F06BC0C11536E5D30708F0B3
:101170006FCF8C2F0E945607C82FD0E0DC2FCC27D2
:10118000CC27DF71D0623FCFC1154AE5D40708F400
:101190005BC0CE0190568115904208F059CF8D2F3B
:1011A0008F710E94560790E0982F882788279F719B
:1011B0009C012C2BE901E6CFC55AD0E0C752DC4F89
:1011C000C881D0E0D0641FCFCE01E4E0969587952A
:1011D000EA95E1F783702C2F26952695237040E23F
:1011E000249F90011124382B8C2F8370C1E0D0E014
:1011F00002C0CC0FDD1F8A95E2F7C22BD32BDC682F
:1012000002CFDC2FCC27C16FD06AFDCECE01837018
:10121000992721E030E002C0220F331F8A95E2F7C0
:10122000C695C69590E2C99FE0011124C22BD32B2D
:10123000DA68E9CEDC2FCC27C46FD06AE4CEDC2F8D
:10124000CC27C06FD06ADFCE8C2F8F700E945607DC
:1012500034E0D695C7953A95E1F7CF709C2FEC0115
:10126000D069D1CEC9E3D0E0CECEC2EED0E0CBCEB5
:10127000C6EED0E0C8CE8091BE0481111092BE04AB
:101280000895809590910305982390930305089500
:10129000809590910405982390930405089580917A
:1012A0009C0490916B04981301C008958F5F877020
:1012B000FACFB0E0A0E0EFE5F9E00C94BD278C0197
:1012C000C090CA04D090CB04E090CC04F090CD0440
:1012D0008091BF049091C004A091C104B091C20458
:1012E000C82AD92AEA2AFB2ACFE1D0E0BC2ED701AE
:1012F000C6010C2E04C0B695A795979587950A94BC
:10130000D2F780FD09C0219788F7B12C8B2DCDB77E
:10131000DEB7E9E00C94D927B8018C2F0E94990719
:101320000E94B307019779F3F1CFCF93DF93EC01DC
:101330000E945909BE010E9499070E94B307DF91DC
:10134000CF910895943088F5843078F544E0949FE7
:1013500090011124820F932F911D682F677023E055
:10136000969587952A95E1F725E0289FF001299F1A
:10137000F00D1124E55AFB4F50E040E080E0219150
:1013800030E0062E02C0369527950A94E2F72170C8
:101390003327042E01C0220F0A94EAF7822B4F5FF5
:1013A0005F4F4530510559F7089580E00895943016
:1013B000A8F5843098F544E0949F90011124820FA1
:1013C000932F911D282F277041E001C0440F2A95CB
:1013D000EAF723E0969587952A95E1F725E0289F7F
:1013E000F001299FF00D1124E55AFB4F30E020E079
:1013F00070E05191DF011197CB01022E02C096954A
:1014000087950A94E2F78170819585278423852743
:101410008C932F5F3F4F2530310559F70895FC011C
:10142000808191810E94950992959F70963091F0EC
:1014300058F4925F9F70923058F4803F19F030F466
:10144000883E30F481E008959A5FF4CF843FD1F371
:1014500080E00895883EB0F3813FD1F7F3CF8095C7
:1014600080FF05C0289A81FF04C05D9A08952898DE
:10147000FACF5D98089580931205709314056093D8
:10148000130580913A05843001F582E08093E900EC
:101490008FEF9091E800815095FD06C095ED9A95EB
:1014A000F1F700008111F5CF8091E80085FF0DC0B4
:1014B00050E040E063E070E082E195E00E946A0362
:1014C0008091E8008E778093E8000895BC0184E065
:1014D0000E943B0A0895BC0183E00E943B0A0895E4
:1014E0009C0182E08093E9009FEF8091E800915099
:1014F00085FD06C085ED8A95F1F700009111F5CFC5
:101500008091E80085FF0CC050E040E066E070E0AC
:10151000C9010E946A038091E8008E778093E800F9
:101520000895CF93DF93EC01809158038823B1F1A4
:101530008091100587FF32C060E282E08093E9006D
:101540008FEF9091E800815095FD06C095ED9A953A
:10155000F1F700008111F5CF8091E80085FF1BC0F5
:101560008091580370E050E040E0811104C050E0E9
:1015700040E068E070E0CE010E946A038091E800DC
:101580008E778093E80080E2FE01A8E1B5E001904B
:101590000D928A95E1F7DF91CF91089568E081E09F
:1015A000CDCF8091F40480FF27C0219A35B13D7FD3
:1015B00025B122604FB7F89481EF94E0FC0151917E
:1015C000CF0168E025B9000000C057FF35B9550FBD
:1015D000000000C000C000C035B900C06A9591F796
:1015E000F4E0843F9F0751F74FBF8FE594E00197E8
:1015F000F1F700C0000008951092F2041092F10477
:101600001092F304D2CFCF93DF93EC018091F504D5
:101610006091F6049C8121EF34E040E0911102C01A
:101620004091F7040E946B050E94D10A8C8190E0E2
:101630000196817099278C83DF91CF9108958F92C5
:101640009F92AF92BF92CF92DF92EF92FF92CF9391
:10165000DF93EC014C81E42EF12C9701D7010E941D
:101660008B279B01AC010E94A1274B015C01E0E2AA
:10167000F0E0EE19FF09A5E5B0E0AC019B010E9486
:10168000A1276B017C019F01DF010E9483279B0141
:10169000AC010E94AC279B01AC01280D391D4A1DED
:1016A0005B1DC701B6010E945B27922F30E09A3282
:1016B00048F563E0969FA001112455954795409504
:1016C00021EF34E06091F60485E5891B0E946B05EB
:1016D0000E94D10A9C8181E0992319F0903219F47B
:1016E0008FEF80931B0180911B01890F8C83DF9109
:1016F000CF91FF90EF90DF90CF90BF90AF909F90F1
:101700008F90089545E550E0BA01621B730B9B0171
:10171000AB01440F551F420F531F57FFCECF4F5FF2
:101720005F4FCBCF1092F2041092F1041092F304A9
:101730008091EF04181674F080911A0187FD0AC099
:1017400021EF34E04091F7046091F6048091F504B4
:101750000E946B050E94D10A809119019091EF04BB
:10176000980F9093EF0420911A01280F20931A01EB
:10177000121614F497FD03C0819580931901089502
:101780000F931F93CF93DF93FC0182811FEF80FFA4
:1017900011E01092F2041092F1041092F304C4E0EC
:1017A000D0E000E08091EE04800F823024F487FDC9
:1017B0008F5F811113C08091F7048C9FA0018D9FD2
:1017C000500D1124559547955595479521EF34E0D7
:1017D0006091F6048091F5040E946B05010F21973A
:1017E00009F70E94D10A113061F48091EE04882338
:1017F00019F081508093EE04DF91CF911F910F91EA
:1018000008951092EE04F8CFCF93DF93EC0121EF0F
:1018100034E04091F7046091F6048C810E946B05DE
:101820000E94D10A9A818C8190FF05C08F5F8C83C2
:10183000DF91CF9108958150FACF9091F40490FFF9
:1018400008C08093F2046093F1044093F3040E9473
:10185000D10A0895A3E0B0E0E0E3FCE00C94C227D5
:101860008C018091F00481110AC09E012F5F3F4FCF
:101870004FEF6FEF0E946B058A818093F004F801AF
:101880006481613069F08091F00440E0662361F08A
:1018900040E0623011F44091F00480E060E004C068
:1018A0006091F00440E080E00E941D0CF80184810A
:1018B00090E0019663E070E00E94472784832396BE
:1018C000E4E00C94DE27A3E0B0E0E9E6FCE00C9451
:1018D000C4279091F40490FF0AC09E012F5F3F4FF0
:1018E0000E946B054B8169818A810E941D0C2396A1
:1018F000E2E00C94E027CF93DF93EC01E4EFF4E017
:10190000438162818C810E94630C8C818F5F8C8308
:10191000DF91CF910895CF93DF93EC01EC81F0E05C
:10192000E958FC4F4491E4EFF4E0628181810E9428
:10193000630C8C818F5F8C83DF91CF91089510921F
:10194000F90484E08093FD0464E08CE090E00E9460
:10195000FF270895CF92DF92EF92FF926B017C01F7
:101960000E945C05B701A60188E090E00E94112862
:10197000FF90EF90DF90CF900895A3E0B0E0E3EC0C
:10198000FCE00C94C027082FF62E142FE22E909125
:10199000F40490FF29C0E92FE695AE2FB0E0AE5ECB
:1019A000BB4F8C918093EC049E7F923009F59E0191
:1019B0002F5F3F4F802F0E946B054B8169818A8189
:1019C0000E941D0C0093F504F092F6041093F704A6
:1019D000EE2051F06091F4047091F5048091F604CA
:1019E0009091F7040E94AA0C2396E6E00C94DC2761
:1019F000823019F41091F704E5CF863019F4009184
:101A0000F504E0CF8930D9F38931E1F6E951E69563
:101A1000F0E0EE58FC4FE49121EF34E0802F0E947B
:101A20006B050E94D10ACECFE4EFF4E0438128E0B9
:101A3000421B08F440E021E0628181810E94BD0CDC
:101A40000895E4EFF4E0438128E0420F08F44FEFFB
:101A500021E0628181810E94BD0C0895E4EFF4E0F1
:101A6000628128E0621B08F460E021E0438181810B
:101A70000E94BD0C0895E4EFF4E0628128E0620F5B
:101A800008F46FEF21E0438181810E94BD0C08952D
:101A9000E4EFF4E0818121E04381628188500E947B
:101AA000BD0C0895E4EFF4E0818121E0438162817F
:101AB000885F0E94BD0C08958091F804882319F076
:101AC00081508093F8046091F4047091F504809142
:101AD000F6049091F7040E94AA0C08958091F804EE
:101AE000833018F48F5F8093F8046091F404709150
:101AF000F5048091F6049091F7040E94AA0C0895D1
:101B00009091F40490FF2CC0917081112AC09260D2
:101B10009093F404662351F06091F4047091F504FD
:101B20008091F6049091F7040E94AA0C6091F4044D
:101B3000669570E04BE050E08EE091E00E94332823
:101B4000892BB1F01092ED0481E08093E90420E04C
:101B50004091F7046091F6048091F5040E94BD0C59
:101B60000895853210F09864D3CF880F982BD0CF8A
:101B700081E08093ED040E94B1049093E704809388
:101B8000E604E2CF8091F4048695815009F484E262
:101B900061E00E94800D08958091F40486958F5F26
:101BA000853208F081E061E00E94800D08959091F7
:101BB000F40490FF08C09695981728F0961718F42B
:101BC0000E94CC0D089561E00E94800D0895E4EF1D
:101BD000F4E083E0808311828FEF82838383148219
:101BE00060817181828193810E94AA0C0895A4E092
:101BF000B0E0EDEFFDE00C94BB2719821A821B8246
:101C00001C828AE0E82E84E0F82E10E000E0CC246C
:101C1000C394D12C22E1A22E24E0B22EF7018191AF
:101C20007F018F3F09F445C0F894E82FE295EF70EB
:101C3000F0E021A18F70A60102C0440F551F8A95C4
:101C4000E2F7CA01922F982B91A392A18095892344
:101C500082A3789400C0EEE0F4E0912C31E0219171
:101C60002F3F09F46BC0A22FA295AF70B0E0909601
:101C70008C9190E02F7002C0959587952A95E2F798
:101C800080FD5CC0832F982A330FAE16BF0639F74C
:101C9000F701319780818F3F11F00E943F0750EA92
:101CA0005A95F1F7E1E0F0E0EC0FFD1FE00FF11FB6
:101CB00090820F5F1F4F0430110509F0AFCF44E051
:101CC00050E0BE016F5F7F4F86EC94E00E94402899
:101CD00011E0009709F410E0892B91F189819A8134
:101CE000AB81BC818093C6049093C704A093C804C1
:101CF000B093C90481E08093C5040E94B10490931D
:101D0000C4048093C3048091C3049091C4040E94CE
:101D1000A2040597C8F08091C6048093CF048091F7
:101D2000C7048093D0048091C8048093D10480912B
:101D3000C9048093D2041092C50406C080E0A3CFEA
:101D40008091C5048111DFCF812F2496EBE00C94A4
:101D5000D7278091040590910305892B80933A043D
:101D60009091BE049923A1F0892B80933A0480912D
:101D700058038823E1F18091100587FF38C08EE178
:101D8000ECE3F4E090E08150A0F591110E943B0952
:101D900040E250E06EE974E08AE394E00E9440285B
:101DA000892B21F180E2EAE3F4E0AEE9B4E00190AE
:101DB0000D928A95E1F7E0910705F09108053097BB
:101DC000A9F080915803882359F08091100587FF6E
:101DD00007C080913A0480933B0486E080933A04E4
:101DE0000280F381E02D8AE394E00995089586E06E
:101DF000C7CF2191222339F29F5FC5CFCF93DF93C5
:101E0000EC0181E0898B809104059F81892B80936F
:101E10000405809103059885892B809303050E9412
:101E2000A90EEA81FB81309729F06C897D89CE016A
:101E300006960995DF91CF910895EF92FF920F9347
:101E40001F93CF93DF93EC018A85811134C0EB801F
:101E5000FC8087E5F81A26E12E9DC0012F9D900D8C
:101E60001124DC01A45EBE4F1496ED91FC911597F0
:101E7000309731F054966D917C918E5D9E4F09950F
:101E800086E18E9D80018F9D100D1124045E1E4FF2
:101E9000F80187810E944809F80180850E94410964
:101EA0000E94A90E188219861B861E821D8210921E
:101EB000020510920105CDB7DEB7E6E00C94DC27F1
:101EC00090E080E00E94320590E080E00E941C05D6
:101ED000109203050E94A90E86E0E0EEF4E0DF0117
:101EE0001D928A95E9F71092DA041092D9041092A3
:101EF000DB040E94010608956093CA047093CB042A
:101F00008093CC049093CD040E94600F08950F93AA
:101F10001F9341E050E060E070E004C0440F551FA3
:101F2000661F771F8A95D2F7CB01BA01609570952D
:101F3000809590950091CA041091CB042091CC0417
:101F40003091CD0460237123822393230E947C0F60
:101F50001F910F91089590919D04809589238093FE
:101F60009D04282F277091F4282F082E000C330B86
:101F70009217130659F09091110592FF07C08595AD
:101F8000859585950E94870F10929D040895CF93A3
:101F9000C0911105C2FB992790F9981791F080FB29
:101FA000C2F9C09311056091100584E090E00E9491
:101FB000FF276C2F82E290E00E94FF2782E00E94C0
:101FC000AB0FCF9108950F931F9341E050E060E075
:101FD00070E004C0440F551F661F771F8A95D2F723
:101FE0008091CA049091CB04A091CC04B091CD040F
:101FF0008A019B01082B192B2A2B3B2BC901B80105
:102000000E947C0F1F910F9108956093BF047093FD
:10201000C0048093C1049093C2040E94600F08958D
:10202000882321F00E9441090E94A90E0895882367
:1020300039F090910305982B909303050E94A90E07
:102040000895882321F00E9448090E94A90E08954E
:10205000882339F090910405982B909304050E94F1
:10206000A90E0895882391F19CEF980F913A40F4BE
:10207000682F8AE394E00E94BD040E94A90E08958F
:1020800090E2980F983050F4877091E001C0990F5A
:102090008A95EAF7892F0E944809EFCF9BE5980FB0
:1020A000933028F490E080E00E943205089598E58E
:1020B000980F973128F490E080E00E941C05089565
:1020C0008D3E20F00E9428060E9401060895CF93BD
:1020D000C82F8823D9F18CEF8C0F813AC8F58091F5
:1020E0005803882311F18091100587FF1EC0EC2F43
:1020F000E695E695E695F0E0E65CFB4F828190E0A0
:102100004C2F477021E030E002C0220F331F4A9568
:10211000E2F782239323892B91F06C2F8AE394E0DA
:102120000E94BD040E94A90E0AC0ECE3F4E082E420
:1021300094E02191C21789F38E179F07D1F76C2F76
:102140008AE394E00E94E7040E94A90ECF910895CB
:1021500080E28C0F883068F4C77021E030E001C065
:10216000220FCA95EAF780910405822B809304051B
:10217000EBCFEBE5EC0FE33040F4F0E0E752FC4F3F
:10218000808190E00E943205E1CFE8E5EC0FE73175
:1021900050F4F0E0EE0FFF1FE452FC4F808191817C
:1021A0000E941C05D3CFCD3E88F28C2F0E94E306FF
:1021B0000E940106CBCF1F93CF93DF93182FD0E05F
:1021C000C0E0893311F4C0E5D0E0812F0E94671090
:1021D000209739F4812F0E943210DF91CF911F9107
:1021E00008958FE99FE00197F1F700C00000219763
:1021F000EFCF0F931F93CF93DF93C62FD42F022FD0
:10220000FC0182818823A9F0609346050E94B104F5
:102210009093450580934405C77081E001C0880F05
:10222000CA95EAF70E942810DF91CF911F910F9174
:10223000089580914605681332C0809144059091BD
:1022400045050E94A204883C910548F510E21D0F47
:10225000CD17B9F080E28C0F883040F4C77081E070
:1022600001C0880FCA95EAF70E942110183048F47F
:1022700081E09D2F977001C0880F9A95EAF70E9420
:102280002810802F0E94DB10183070F6D77081E084
:1022900001C0880FDA95EAF70E942110C5CFC770F8
:1022A00081E001C0880FCA95EAF7F6CF8091FD045E
:1022B000813079F0882349F08230B1F08430E9F040
:1022C0008091FA0480930405089582EE0E943210F2
:1022D000F7CF8CE20E94DB108091FC04882381F30D
:1022E00089E30E94DB10ECCF82EE0E9432108091D5
:1022F000FB048111E5CF83E5F4CF88E2F2CF0E94A1
:102300004805869581708093FC040E944805817081
:102310008093FB048091FD04813039F48091FC04AA
:10232000882319F089E30E94DB10809104058093D3
:10233000FA0410920405109203058091FD04813087
:1023400089F0882359F08230D1F0843061F18FE335
:102350009CE90197F1F700C00000089582EE0E9409
:102360006710F5CF83E00E94171088E10E94671084
:1023700088E10E94321083E00E941010E8CF809123
:10238000FB04811103C083E50E94DB1082EE0E94F2
:1023900067108FE39CE90197F1F700C0000087E523
:1023A0000E94DB10D4CF86EE0E94DB1088E1F8CFCC
:1023B000B0E0A0E0EEEDF1E10C94BF27E82FF0E0F3
:1023C000E452FF4FD490282F26952695269530E08D
:1023D000F901E453FF4F0491877010E0082E02C00A
:1023E000159507950A94E2F701701127F901E45455
:1023F000FF4FE490F12C082E02C0F594E7940A9464
:10240000E2F791E0E922FF24F901E455FF4FC4917E
:10241000D0E002C0D595C7958A95E2F7C170DD2757
:102420000115110519F081EE0E946710E114F10405
:1024300019F086EE0E9467108D2D0E94DB10E114CA
:10244000F10419F086EE0E9432100115110519F001
:1024500081EE0E943210CD2B19F08CE20E94DB102D
:10246000CDB7DEB7E7E00C94DB27EF92FF920F9336
:102470001F93CF93DF938C01CCE0D0E08AE0E82E6D
:10248000F12CC8010C2E02C0969587950A94E2F7AC
:102490008F709091FD049230B1F48A3090F490E006
:1024A0000996B7010E944727875A0E94DB1024979C
:1024B000CC3F8FEFD80729F7CDB7DEB7E6E00C9415
:1024C000DC278650F2CF96EF980F963020F0805D93
:1024D0000E94D811ECCF895AFBCF0F931F93CF9353
:1024E000DF93EA0128812150330B2617370714F0B8
:1024F00030E020E0220F331F280F391FF90100813F
:1025000011810E947F11C8010E9435120E9456114C
:10251000CE010E941D0FDF91CF911F910F91089561
:10252000A4E0B0E0E6E9F2E10C94C427409159033D
:1025300050915A0360915B0370915C0349835A8305
:102540006B837C83AC0162E070E0CE0101960E9457
:102550006D122496E2E00C94E027A4E0B0E0E3EBF7
:10256000F2E10C94C42740915D0350915E036091A9
:102570005F037091600349835A836B837C83AC0152
:1025800062E070E0CE0101960E946D122496E2E0B6
:102590000C94E027A4E0B0E0E0EDF2E10C94C42755
:1025A00040916103509162036091630370916403F1
:1025B00049835A836B837C83AC0162E070E0CE0177
:1025C00001960E946D122496E2E00C94E027A6E0AA
:1025D000B0E0EDEEF2E10C94C427AC0196E0E5E644
:1025E000F3E0DE01119601900D929A95E1F763E018
:1025F00070E0CE0101960E946D122696E2E00C94E6
:10260000E027A4E0B0E0E7E0F3E10C94C4274091B8
:102610006B0350916C0360916D0370916E0349835D
:102620005A836B837C83AC0162E070E0CE0101963B
:102630000E946D122496E2E00C94E027A4E0B0E042
:10264000E4E2F3E10C94C42740916F0350917003CE
:10265000609171037091720349835A836B837C8309
:10266000AC0162E070E0CE0101960E946D122496EA
:10267000E2E00C94E027A4E0B0E0E1E4F3E10C94A4
:10268000C427409173035091740360917503709156
:10269000760349835A836B837C83AC0162E070E0EC
:1026A000CE0101960E946D122496E2E00C94E02780
:1026B000A4E0B0E0EEE5F3E10C94C4274091770389
:1026C000509178036091790370917A0349835A831A
:1026D0006B837C83AC0162E070E0CE0101960E94C6
:1026E0006D122496E2E00C94E027A6E0B0E0EBE760
:1026F000F3E10C94C427AC0196E0EBE7F3E0DE01D4
:10270000119601900D929A95E1F763E070E0CE0189
:1027100001960E946D122696E2E00C94E027A6E056
:10272000B0E0E5E9F3E10C94C427AC0196E0E1E800
:10273000F3E0DE01119601900D929A95E1F763E0C6
:1027400070E0CE0101960E946D122696E2E00C9494
:10275000E027A6E0B0E0EFEAF3E10C94C427AC0177
:1027600096E0E7E8F3E0DE01119601900D929A956C
:10277000E1F763E070E0CE0101960E946D122696AB
:10278000E2E00C94E027ACE0B0E0E9ECF3E10C947B
:10279000C427AC019CE0EDE8F3E0DE011196019066
:1027A0000D929A95E1F766E070E0CE0101960E94E5
:1027B0006D122C96E2E00C94E027ACE0B0E0E3EE82
:1027C000F3E10C94C427AC019CE0E9E9F3E0DE01FD
:1027D000119601900D929A95E1F766E070E0CE01B6
:1027E00001960E946D122C96E2E00C94E027A4E082
:1027F000B0E0EDEFF3E10C94C4274091A5035091B4
:10280000A6036091A7037091A80349835A836B8341
:102810007C83AC0162E070E0CE0101960E946D12F3
:102820002496E2E00C94E027A4E0B0E0EAE1F4E1D1
:102830000C94C4274091A9035091AA036091AB0363
:102840007091AC0349835A836B837C83AC0162E053
:1028500070E0CE0101960E946D122496E2E00C9485
:10286000E027A4E0B0E0E7E3F4E10C94C427409152
:10287000AD035091AE036091AF037091B0034983F3
:102880005A836B837C83AC0162E070E0CE010196D9
:102890000E946D122496E2E00C94E027A4E0B0E0E0
:1028A000E4E5F4E10C94C4274091B1035091B203E4
:1028B0006091B3037091B40349835A836B837C8323
:1028C000AC0162E070E0CE0101960E946D12249688
:1028D000E2E00C94E027A4E0B0E0E1E7F4E10C943E
:1028E000C4274091B5035091B6036091B70370912E
:1028F000B80349835A836B837C83AC0162E070E048
:10290000CE0101960E946D122496E2E00C94E0271D
:10291000A4E0B0E0EEE8F4E10C94C4274091B903E0
:102920005091BA036091BB037091BC0349835A83F1
:102930006B837C83AC0162E070E0CE0101960E9463
:102940006D122496E2E00C94E027A4E0B0E0EBEAFC
:10295000F4E10C94C4274091BD035091BE036091F3
:10296000BF037091C00349835A836B837C83AC019E
:1029700062E070E0CE0101960E946D122496E2E0C2
:102980000C94E027A4E0B0E0E8ECF4E10C94C42758
:102990004091C1035091C2036091C3037091C4037D
:1029A00049835A836B837C83AC0162E070E0CE0183
:1029B00001960E946D122496E2E00C94E027A4E0B8
:1029C000B0E0E5EEF4E10C94C4274091C5035091CA
:1029D000C6036091C7037091C80349835A836B8310
:1029E0007C83AC0162E070E0CE0101960E946D1222
:1029F0002496E2E00C94E027A4E0B0E0E2E0F5E108
:102A00000C94C4274091C9035091CA036091CB0331
:102A10007091CC0349835A836B837C83AC0162E061
:102A200070E0CE0101960E946D122496E2E00C94B3
:102A3000E027A4E0B0E0EFE1F5E10C94C427409179
:102A4000CD035091CE036091CF037091D0034983A1
:102A50005A836B837C83AC0162E070E0CE01019607
:102A60000E946D122496E2E00C94E027A4E0B0E00E
:102A7000ECE3F5E10C94C4274091D1035091D203CB
:102A80006091D3037091D40349835A836B837C8311
:102A9000AC0162E070E0CE0101960E946D122496B6
:102AA000E2E00C94E027A4E0B0E0E9E5F5E10C9465
:102AB000C4274091D5035091D6036091D7037091FC
:102AC000D80349835A836B837C83AC0162E070E056
:102AD000CE0101960E946D122496E2E00C94E0274C
:102AE000CF9384E090E00E94EB27C82F82E290E031
:102AF0000E94EB27982F8C2FCF91089510920405F8
:102B000080915803ECE3F4E0882361F08091100594
:102B100087FF08C08EE1DF011D928A95E9F70E94C8
:102B2000600F089586E0F7CFAAE2B0E0EAE9F5E1A8
:102B30000C94C3278CE395E02091F100FC012193D4
:102B4000CF01F5E084349F07B9F780913D058330CC
:102B500009F470C0B8F4813009F447C0823009F438
:102B6000B1C08091E80083FF7EC280913C059091C6
:102B70003D059A3008F077C2E92FF0E0E15BF74DB0
:102B80000C947D278A3009F48CC08B3009F46FC017
:102B9000893039F780913C05813219F780914005E1
:102BA000909141050297E8F68091E800877F809335
:102BB000E8008091E80082FF38C09091F300809196
:102BC000F200029731F48091F100813011F08630EB
:102BD00021F48091F100809317058091E8008B77B4
:102BE0008093E8000E949403BCCF80913C05813A19
:102BF00009F0B7CF8091E800877F8093E80080914B
:102C0000400590914105892B61F460E288E195E0EF
:102C100070E00E9440048091E8008B778093E80088
:102C2000A0CF60E090E080E0F3CF80913A05811181
:102C3000C0CF97CF80913C05813A09F092CF809127
:102C4000400590914105892B09F08BCF8091E800D8
:102C5000877F8093E8008091E80080FFFCCF80911F
:102C600058038093F1008091E8008E77B9CF80916E
:102C70003C05813209F075CF809140059091410566
:102C8000892B09F06ECF8091E800877F8093E80060
:102C90000E94940380913E05809358030E947E1504
:102CA00060CF80913C05813209F05BCF8091E800D4
:102CB000877F8093E8000E94940380913F05809372
:102CC00016054FCF80913C05813A09F04ACF80919B
:102CD000E800877F8093E8008091E80080FFFCCFC8
:102CE00080911605BECF803899F0823809F0BBC1BB
:102CF000809140058F70873008F0B5C18093E9005E
:102D00008091EB0085FB882780F91092E90006C0CE
:102D10008091380590913905911182609091E80079
:102D2000977F9093E8008093F1001092F1008091DA
:102D3000E8008E7794C1882309F482C1823009F0BB
:102D400092C180913E05811185C1809140058F70AF
:102D50002FEF280F263008F086C18093E9002091DC
:102D6000EB0020FF77C1933031F48091EB0080625B
:102D70008093EB006FC19091EB0090619093EB001A
:102D800021E030E001C0220F8A95EAF72093EA00A3
:102D90001092EA008091EB008860EACF811163C154
:102DA00010913E051F778091E3008078812B8093FE
:102DB000E3008091E800877F8093E8000E949403FD
:102DC0008091E80080FFFCCF8091E30080688093D1
:102DD000E30082E0111183E080933A0544C18058FA
:102DE000823008F040C180913E0590913F058C3DB6
:102DF00023E09207A1F583E08A838AE289834FB7B3
:102E0000F894DE01139620E03EE051E2E32FF0E07B
:102E100050935700E49120FF03C0E295EF703F5FAD
:102E2000EF708E2F90E0EA30C0F0C7968D939D939F
:102E30002F5F243159F74FBF8091E800877F80933F
:102E4000E8006AE270E0CE0101960E9440048091A1
:102E5000E8008B778093E80006C1C096E7CF4091E9
:102E6000400550914105292F33272330310509F4BE
:102E700044C078F52130310509F46FC08BE390E050
:102E8000EDE6F5E02230310509F0EDC02091E800D3
:102E9000277F2093E8002091420530914305821757
:102EA000930708F49C0140E02115310509F064C046
:102EB000411162C08091E80082FDC9CF80913A053E
:102EC000882329F2853019F28091E80083FFF2CF40
:102ED000BECF21323105A9F12232310509F0C3C03C
:102EE0004115510509F443C04130510509F0BBC0FB
:102EF00086EB90E0E7E7F4E0C9CF992781309105B0
:102F0000C1F0009759F0029709F0ADC0EAEBF5E087
:102F1000E4918E2F90E0EAEBF5E007C0E2EFF5E0F8
:102F2000E4918E2F90E0E2EFF5E0009709F49BC06A
:102F3000ADCFE0EDF5E0E4918E2F90E0E0EDF5E02F
:102F4000F4CF4115510571F04130510509F08BC0A6
:102F500089E090E0E8E9F5E099CF82E190E0E8EAE5
:102F6000F5E094CF89E090E0EFE7F5E08FCF80E4E3
:102F700090E0EDE2F5E08ACF80913A05882309F4EC
:102F800066CF853009F463CF8091E80083FD5FCF81
:102F90008091E80082FD8ECF8091E80080FF84CF91
:102FA0009091F3008091F2002115310519F08830DD
:102FB000910550F041E0089709F040E08091E80069
:102FC0008E778093E80070CF44914093F100319662
:102FD000215031090196E8CF803809F044C0809132
:102FE000E800877F8093E80080913B058093F100A3
:102FF0009ECE811138C010913E051230A0F580910F
:10300000E800877F8093E80010933B050E949403BB
:10301000112311F084E005C08091E30087FDFACF11
:1030200081E080933A0542E061EC81E00E94B303C5
:1030300042E261EC82E00E94B30380913A0513C042
:1030400080913E05813079F481E0933009F080E091
:10305000809339051092E9008091E800877F809382
:10306000E8000E9494038091E80083FF0AC08091E9
:10307000E800877F8093E8008091EB008062809376
:10308000EB00AA96E3E00C94DF270E947E152FEF59
:1030900084E39CE0215080409040E1F700C00000B4
:1030A00088E19AE00FB6F894A895809360000FBE6F
:1030B00090936000FFCF68EE7EEF90E080E00E948A
:1030C0001D2860E082E090E00E94FF2760E083E03E
:1030D00090E00E94FF271092BF041092C00410924B
:1030E000C1041092C20460E084E090E00E94FF27D7
:1030F00064E082E290E00E94FF2760E085E090E0DB
:103100000E94FF2760E086E090E00E94FF276FEFBB
:1031100087E090E00E94FF2740E050E0BA0188E09D
:1031200090E00E94112860E08DE090E00E94FF276F
:1031300040E050E0BA0188E190E00E94112860E090
:1031400087E190E00E94FF2740E050E0BA018CE167
:1031500090E00E94112870E060E080E290E00E9420
:103160001D2840E050E0BA0188E190E00E9411285B
:1031700040E050E0BA018FE090E00E94112840E06A
:1031800050E0BA0183E190E00E9411280895A5E083
:10319000B0E0EDECF8E10C94B6277C01DC0113966D
:1031A0008D919C911497892B39F08C9111969C915B
:1031B00089238F3F09F082C52596E0E10C94D22740
:1031C0000E945909182F682F89819A810E94D70976
:1031D00069817A81812F0E9499078C01F701828190
:1031E00081112FC00E3AFDE51F0709F07FC5D701F9
:1031F00012968C91882309F479C54CE5A42E41E000
:10320000B42E5AE0952EF5018491882309F46EC5F9
:10321000813009F094C06501FFEFCF1ADF0AF60193
:103220008491813009F04EC06501F2E0CF0ED11CCF
:10323000F60184910E94DB105601EFEFAE1ABE0A30
:10324000E2CF80910C0190910D01019609F449C5DE
:103250006CE1C62E61E0D62EB12CA12C992493945A
:1032600080910C0190910D018A159B050CF4BACF49
:10327000D60116968C9116978823E9F019968D91B0
:103280009C918017910739F4809101059091020576
:103290008017910781F0F60197861487038781894B
:1032A000811103C0C6010E94FE0EC60106960E944F
:1032B0001D0F10920305FFEFAF1ABF0A26E1C20EE1
:1032C000D11CCECF823049F46501F2E0CF0ED11C83
:1032D000F60184910E946710AFCF833049F46501F5
:1032E000F2E0CF0ED11CF60184910E943210A4CFDF
:1032F000843009F0A1CF6501F2E0CF0ED11CF601B8
:10330000249190E080E0F60131962053330B2A306F
:10331000310550F0019708F48FCFAFE9BFE0119766
:10332000F1F700C00000F6CF989EA001999E500DC5
:103330001124C901840F951F24916F01E4CF0E94CD
:10334000D811650179CF882309F41FC581898823A5
:1033500009F41BC5C5018E5D9E4F0E941D0F15C54A
:10336000073E2CE5120708F024C56EE1600F60935C
:10337000FD048CE090E00E94FF271BC5811104C072
:1033800081E003C08111FCCF8FEF0E949F0C11C51B
:10339000043FBCE51B07C9F188F4093DFCE51F07A4
:1033A00081F10A3D2CE51207E1F1083D3CE51307E8
:1033B00009F00EC526E241EE61EE0DC0063F8CE538
:1033C000180759F130F127E245EE66EE073FACE50C
:1033D0001A0709F0FDC4C7010E94F91080919D04ED
:1033E000877009F4E9CED70112968C91882309F4ED
:1033F000E3CE8091110582FFDFCE82E00E94AB0F09
:10340000DBCE27E245EE65EEE6CF26E241EE60EE4A
:10341000E2CF27E245EE64EEDECF26E241EE62EE39
:10342000DACF28E241E0EFCF02363DE5130709F499
:10343000E5C4063A8DE5180709F4E0C40631ACE5A9
:103440001A0709F0BFC5809104058A7A91E009F452
:1034500090E090935A0469E2811165E38AE394E075
:103460000E94E7040E94A90EB9CF809110058062E6
:103470000730ACE51A0709F49DC080911005806102
:103480000830BCE51B0708F495C0809110058064E6
:1034900091C0809110058B7F0D30ECE51E0709F47B
:1034A00089C0A0F4809110058E7F0B302CE51207A7
:1034B00009F480C0809110058C600C303CE5130746
:1034C00008F478C0809110058D7F74C00F308CE5B2
:1034D000180709F48CC080911005877F00319CE5A6
:1034E000190708F467C0809110058F7D63C00E3FF7
:1034F000ACE51A0709F477C058F50531ECE51E076D
:1035000009F483C098F480911005837F03312CE582
:10351000120709F44FC008F472C00E947E15909102
:103520001005892F97FB87F9805844C00C3F8CE524
:10353000180709F44AC008F052C080911105816053
:103540000B3FACE51A0709F083C48093110580C4D2
:103550000230BDE51B0709F464C0C0F48091110579
:103560008C7F0115FDE51F0781F3809111058360B4
:1035700001302DE5120748F380911105982F9095A1
:1035800091708E7F892B90FB81F9DFCF02363DE56C
:10359000130709F44CC0063A8DE5180709F44EC02C
:1035A00003309DE5190709F053C460E03BC08091EA
:1035B00010058260809310054BC4809110058460D3
:1035C000F9CF809110058860F5CF80911105826058
:1035D000BCCF0E947E15809110058068EBCF809152
:1035E00011058E7FB2CF809111058D7FAECF809176
:1035F00010058F7EDFCF809110058F7BDBCF0E947F
:103600007E15809110058F77D5CF8091100582FBB4
:10361000992790F921E0922790FB82F990FB83F99A
:10362000C9CF61E08EE090E00E94FF2711C4909125
:103630001005892F8F7E94FF8061BCCF909110057B
:10364000892F8E7F90FF8160B5CF80915A0469E207
:10365000811165E38AE394E00E94BD0403CF816099
:103660008093F40461E086950E94800DB7CE42EC11
:103670005DE06CEC7DE00E945505B0CE4CEC5DE069
:1036800062EC7DE0F8CF42E55DE068E47DE0F3CFF9
:103690004EE25DE06BE37DE0EECF44E15DE061E2B0
:1036A0007DE0E9CF41E25DE064E17DE0E4CF4EE61C
:1036B0005DE06CE57DE0DFCF61E081E0D5CF65E0E6
:1036C00082E00E94D70D8ACE68E086E0FACF64E1FE
:1036D0008FE0F7CF67E185E1F4CF62E289E1F1CFD6
:1036E00061E083E2C1CF0E947E152FEF34E38CE0CE
:1036F000215030408040E1F700C0000087E797E7A5
:10370000909301088093000888E19AE00FB6F8943E
:10371000A895809360000FBE90936000FFCF8091CA
:10372000110582FB882780F991E089270E94C70F45
:10373000F701828100811181882309F448C0C80102
:103740000E945909D82E682FC8010E94D709B801D4
:103750008D2D0E9499070E94B3078C01882ED701F6
:103760001296DC90129715969C9092943FE09322CB
:1037700080919D048770C1F0BD2CDD20B1F0812FB8
:10378000807F803421F080E2800F883068F0809163
:10379000110582FF09C082E00E94AB0F80919D0459
:1037A0008770BB24B3948111B12CA12EA2942FE079
:1037B000A222BBE0BA1508F471C0EA2DF0E0E75A86
:1037C000F74D0C947D2781E0B1CF80E0AFCFC801E9
:1037D0000E94A209D82EBBCFE12FEF70CE2E107F12
:1037E00019F0C29490EFC922DD20B9F0CC2069F025
:1037F00080E2800F883010F0811009C080910405AC
:10380000C82AC09204050E94A90E802F45C080914D
:103810000305C82AC0920305F6CF802F0E943210FC
:10382000CC20E1F1005E8C2D083010F0811003C037
:103830000E94480902C00E9441090E94A90E2EC0A0
:10384000F12FFF70CF2E107F103219F0C29480EF4D
:10385000C822882089F021E0821609F47AC0DD2090
:1038600009F484C0992009F47AC0F701858180FFAA
:10387000CCCF8F70858373C02091110522FD46C087
:10388000DD20E9F1CC2039F080910405C82AC092EE
:1038900004050E94A90E80E00E946710AA2DA8507E
:1038A000BB0B149720F40E9448050E942F0ABB20EE
:1038B000A9F080919D0480FD11C0F70112828595C9
:1038C000859585950E94E30FC7010E94C7188091D6
:1038D0009D048595859585950E94870F85E0F70164
:1038E000DE01119601900D928A95E1F709811A8106
:1038F000C8010E94A209B8010E9499075DCC80E02E
:103900000E943210CC2051F28C2D92CFDD20A1F0FC
:103910009091BE048C2D892B911003C00E94281019
:10392000BDCF31E09312FACF22FFB8CF981709F438
:10393000B5CF8093BE04B2CF911006C00E943B0960
:103940008C2D0E942110AACF81E0981609F4A6CFF1
:10395000F5CFDD2031F095E0991508F49FCF8C2D3F
:10396000DDCFA4E0A91508F499CFEACF992041F35F
:10397000F9E38F1209C02FEF37EE83E0215030407A
:103980008040E1F700C00000802F0E94321086CFF7
:10399000812F86958695837061F0813009F07ECF06
:1039A000C8019370D11002C090E080E00E941C0515
:1039B00075CFC8019370D11002C090E080E00E94E2
:1039C00032056CCF802FDD2029F00E94E3060E9493
:1039D000010664CF0E942806FACF812F837009F078
:1039E00066C0D1105BCF802F829586958770880F37
:1039F000880F602F6F70462E512C712C612C082E71
:103A000004C0440C551C661C771C0A94D2F740E095
:103A100050E0BA0104FF0FC04FE050E060E070E0FA
:103A200004C0440F551F661F771F8A95D2F7409533
:103A3000509560957095812F86958695837082301C
:103A400019F1D8F40091BF041091C0042091C10471
:103A50003091C204813069F04429552966297729BB
:103A6000CB01BA0160237123822393230E940510A6
:103A700015CF402A512A622A732ACB01BA01642940
:103A8000752986299729F2CF44295529662977294E
:103A90000091BF041091C0042091C1043091C20470
:103AA000CB01BA016027712782279327DFCF869544
:103AB000DD2011F0812F8170882309F4EFCE802F53
:103AC000829586958770880F880F602F6F70462EBD
:103AD000512C712C612C082E04C0440C551C661C02
:103AE000771C0A94D2F740E050E0BA0104FF0FC0FF
:103AF0004FE050E060E070E004C0440F551F661FC7
:103B0000771F8A95D2F74095509560957095812FD3
:103B1000869586958370823019F1D8F40091CA0495
:103B20001091CB042091CC043091CD04813069F008
:103B30004429552966297729CB01BA0160237123CD
:103B4000822393230E947C0FA9CE402A512A622A05
:103B5000732ACB01BA016429752986299729F2CFE6
:103B600044295529662977290091CA041091CB046C
:103B70002091CC043091CD04CB01BA01602771278C
:103B800082279327DFCF1F70DD2029F0812F0E942D
:103B9000E30F802FC3CE802F0E942110812F0E941F
:103BA000870F7CCE802F92EF891609F43FC09815BD
:103BB00070F0A0EF8A16D1F0B1EF8B1691F0DD20F6
:103BC00009F46CC0911021CE812F8F7133C0E3EFC7
:103BD0008E1699F1F4EF8F12F2CF8091110582FDCC
:103BE0003FC0812F8F71DD20D1F224C0DD20C9F0CC
:103BF00024E0291508F452CE1F7161E070E080E0E6
:103C000090E004C0660F771F881F991F1A95D2F79E
:103C10000091CA041091CB042091CC043091CD04C2
:103C2000ADCF35E0391508F439CEE6CF812F8F714D
:103C3000D110B5CF0E94E30F31CE60E070E0CB0130
:103C4000DD2009F47FCF1F7161E070E080E090E03B
:103C500004C0660F771F881F991F1A95D2F772CF7D
:103C6000DD2089F01F71812F0E94E30F80911105E3
:103C700082FF07C0A8E01A9FC001112483608093CF
:103C80009D04812FD7CF81E00E94AB0FB1E0B91521
:103C900008F004CE82E00E94AB0F00CE992059F0CC
:103CA000893309F071CEEFEFF7EE23E0E150F040F9
:103CB0002040E1F767CE812F8F7171CF85E0F7014A
:103CC000DE01119601900D928A95E1F7D7011296C7
:103CD0002C9189819A81211173CA0E94A209182FFF
:103CE00077CA0E3ABDE51B0709F487CAC801975584
:103CF0008F3F910511F008F048C020910C013091E0
:103D00000D012817390724F490930D0180930C01BD
:103D1000D70112962C91129736E1389F5001399FA6
:103D2000B00C1124F501E45EFE4F6F01208B12965A
:103D30009C918681992309F406CB128701878F5FB6
:103D400086830E94B104D6011E969C938E931D9784
:103D50008091BE0417968C931797809103059091DC
:103D60000405892B18968C931897ED91FC91119767
:103D7000309739F054966D917C91C5018E5D9E4FC0
:103D800009951093020500930105D70112968C91B5
:103D9000882379F0809104058272013EBCE51B07FF
:103DA00009F4F0CA08F0DCCA003EFCE51F0709F47C
:103DB000E5CA17FFEDCAD70112968C91882341F00E
:103DC0000E947F11C8019F770E9435120E945611F0
:103DD000F7018281882309F44BC010924605043014
:103DE000FDE51F0708F020CB0B3F2CE5120730F450
:103DF000C80182509C45449708F020CB0E94701562
:103E0000909311058093100501319CE5190709F481
:103E1000F2CB08F06CCB0930BCE51B0709F4D9CB19
:103E200008F037CB0530FCE51F0709F4CACB08F0D2
:103E30001CCB03303CE5130709F4B9CB08F0BDCB2C
:103E400080911005816002309CE5190709F4B2CB1E
:103E5000609110051091110584E090E00E94FF2709
:103E6000612F82E290E00E94FF270E947E15B6CA71
:103E70000631ECE51E0709F4E8CB80910405827257
:103E80000D3CFCE51F0709F412CC08F063C0073CA9
:103E90003CE5130709F4F7CBC8F5043CACE51A0779
:103EA00009F4E5CB20F5033CECE51E0709F040CC16
:103EB0008091F40480FFD3CB8E7F8093F4046091D3
:103EC000F4047091F5048091F6049091F7040E9437
:103ED000AA0C1092ED04BFEFE0E7F2E0B150E04031
:103EE000F040E1F700C000000E94D10A77CA053C0B
:103EF000FCE51F0709F4C2CB48E45DE062E57DE024
:103F0000063C2CE5120709F4B6CB12CC0A3C3CE582
:103F1000130709F4C2CB78F4083CACE51A0709F49E
:103F2000B7CB4BE35DE06EE27DE0093CBCE51B07EF
:103F300009F4A1CBFDCB0B3CECE51E0709F4B2CB99
:103F40004CE55DE06EE67DE00C3CFCE51F0709F406
:103F500092CBEECB023D2CE5120709F4B8CBA0F4CE
:103F60000F3C8CE5180709F4AACB08F4A5CB003D5B
:103F7000ACE51A0709F4A8CB6EE089E0013DBCE589
:103F80001B0709F49ECBD4CB053DECE51E0709F4D5
:103F9000A4CB68F4033D2CE5120709F49BCB61E048
:103FA00088E1043D3CE5130709F45ECBC1CB063D37
:103FB0008CE5180709F494CB0E359DE5190709F433
:103FC0000DCAB6CB0B35ADE51A0709F4FCCB68F486
:103FD0000115ECE51E0709F486CB0F3D1C4509F0E1
:103FE000A7CB0E945B180E9445180D352DE51207DE
:103FF00009F495CB08F4E9CB083A1D45A1F398CB19
:104000001F93CF93DF9380916A04807F09F049C0AA
:1040100080916704882309F444C080919C04D09166
:104020006B046091650470916604A0916804B0917E
:104030006904C62FC72316E0D81799F190E01097AE
:1040400011F0CF3F19F401968770F6CF189F9001B9
:10405000199F300D1124F901E459FB4F4181471399
:10406000F2CF40814613EFCF42814111ECCF438123
:1040700054814A1B5B0B483C510528F780916A0428
:104080008F70806180936A04F901EF58FB4F808143
:104090008F708061808385E694E00E94C7180E943B
:1040A0004F09DF91CF911F910895A1E1B0E0EBE5B9
:1040B000F0E20C94BC278C0185E0F801DE011D962E
:1040C00001900D928A95E1F7F801E28085E6A82E2D
:1040D00084E0B82E609168047091690461157105DF
:1040E00009F426C19091650440916604892F8423C8
:1040F0008F3F09F41DC120813181C380D480F090AD
:104100006704F601E61BF70BFF2009F4DCC0809181
:104110006A04582F507FE83CF10508F09FC0511108
:104120006BC0FE2C431314C0921312C0E11010C0D8
:104130008F70806180936A04C5010E94C7188091C6
:104140006A04F80185838F2D6196EAE00C94D827E4
:10415000C114D10429F0822F83238F3F09F003C1BA
:1041600080E0F82FF170DF2E80FF3CC080919C042E
:1041700040916B0456E0841315C02D873E878D85D2
:104180009E850E949509292F22952F702230F0F0EC
:10419000243018F59F70F1F0F8019581907FD1F4EB
:1041A000D12C1EC090E0589FF001599FF00D1124B2
:1041B000E459FB4F6181361306C06081261303C0AA
:1041C0006281E6120FC001968770D5CF9F7011F003
:1041D000882331F3805E883018F3C8010E94C71825
:1041E000FD2CB1CFEE2009F4AECF80916A0481603E
:1041F00080936A04F12CA7CF431306C0921304C026
:10420000F801EE2009F479C0C8010E940F0A882342
:1042100009F1EE20F9F080916A04803270F020916B
:1042200065043091660438872F831986DB86CA8639
:104230008C87CE0107960E94C71886E0F801A5E694
:10424000B4E001900D928A95E1F70E940020FF24CE
:10425000F39479CFC8010E94C718F9CF51110AC051
:1042600085E694E00E94C71886E0F50111928A95D0
:10427000E9F7C0CF43130FC092130DC0E1100BC07C
:10428000F8018583C8010E94C71886E0F5011192E4
:104290008A95E9F758CFC8010E940F0A8823D1F206
:1042A000EE20C1F280916A04803238F220916504D8
:1042B000309166043A8329831B82DD82CC828E830F
:1042C000CE010196B8CFE83CF105F8F6FE2CEE20C1
:1042D00009F243131FC092131DC080916A0480FD30
:1042E00010C0982F907F69F0F8018583903F31F0DE
:1042F000982F907F905F8F70892B8583C8010E94D3
:10430000C71886E0F801A5E6B4E001900D928A9501
:10431000E1F719CFC8010E940F0A81118ECF809159
:104320006A04816080936A04C8010E94C7180BCF99
:10433000EE2009F48FCFC8010E940F0AF82E8823BF
:1043400009F488CF86E0F801A5E6B4E001900D926B
:104350008A95E1F780916504909166040E94950921
:104360000E940020F0CE81E08E25FBCEA7E1B0E0D8
:10437000ECEBF1E20C94C3274B8B5C8B6D8B7E8B4B
:104380008F8B6111109203051A8A198A85E0FE014C
:104390007396DE011D9601900D928A95E1F786E0F5
:1043A000FE013D96DE01179601900D928A95E1F788
:1043B000CE0107960E945520882359F016E080917F
:1043C0009C0490916B04891343C06796E3E00C94BE
:1043D000DF2786E0FE013796DE01119601900D92EF
:1043E0008A95E1F78A859B85892B41F38F81988592
:1043F00089238F3F19F320916B0430E0C9010196A6
:104400008770992740919C044817190671F40E94FF
:104410007E1510926B0410929C0486E0E5E6F4E0B1
:10442000DF011D928A95E9F7C9CF96E0929FD001EE
:10443000939FB00D1124A459BB4FFE0131960190FA
:104440000D929A95E1F780936B040E944F09B6CFC5
:10445000819FC001112484599B4F0E9455208823BD
:1044600009F4B3CF80919C0490E00196877099275E
:1044700080939C04A4CF1F920F920FB60F92112429
:104480002F933F934F935F936F937F938F939F935C
:10449000AF93BF93CF93DF93EF93FF93D091E90056
:1044A000DF708091EC00C82FC17080FDC0E81092D1
:1044B000E9008091F000877F8093F00078940E945B
:1044C00094151092E9008091F00088608093F000CC
:1044D000CD2BCF70C093E900FF91EF91DF91CF9189
:1044E000BF91AF919F918F917F916F915F914F910C
:1044F0003F912F910F900FBE0F901F9018951F9214
:104500000F920FB60F9211242F933F934F935F9307
:104510006F937F938F939F93AF93BF93EF93FF938B
:104520008091E10082FF09C08091E20082FF05C016
:104530008091E1008B7F8093E1008091DA0080FF21
:1045400024C08091D80080FF20C08091DA008E7F47
:104550008093DA008091D90080FF9DC080E189BD01
:1045600082E189BD09B400FEFDCF81E080933A0568
:1045700080911505811109C00E941A030E94E5036C
:104580008091E20084608093E2008091E10080FFEE
:1045900017C08091E20080FF13C08091E2008E7FFF
:1045A0008093E2008091E20080618093E20080913C
:1045B000D80080628093D80019BC85E080933A05CA
:1045C0008091E10084FF2BC08091E20084FF27C02E
:1045D00080E189BD82E189BD89B5982F917080FF06
:1045E000FBCF8091D8008F7D8093D8008091E1002F
:1045F0008F7E8093E1008091E2008F7E8093E200C5
:104600008091E20081608093E20080913B058823E5
:1046100009F447C084E080933A0580913A0580917F
:10462000E10083FF27C08091E20083FF23C08091D7
:10463000E100877F8093E10082E080933A05109249
:104640003B058091E1008E7F8093E1008091E20044
:104650008E7F8093E2008091E20080618093E2008F
:1046600042E060E080E00E94B3038091F000886047
:104670008093F000FF91EF91BF91AF919F918F9147
:104680007F916F915F914F913F912F910F900FBE4E
:104690000F901F90189519BC10923A0510921505AD
:1046A00074CF8091E30087FD93E090933A05B5CFF6
:1046B00078941F921FB61F9211248F939F93AF93EC
:1046C000BF9380910C0590910D05A0910E05B091BE
:1046D0000F050196A11DB11D80930C0590930D054A
:1046E000A0930E05B0930F05BF91AF919F918F914D
:1046F0001F901FBE1F9018951F921FB61F92112466
:104700008F939F93AF93BF9380910B05811113C03B
:1047100080910C0590910D05A0910E05B0910F05AB
:104720004196A11DB11D80930C0590930D05A0939A
:104730000E05B0930F05BF91AF919F918F911F9080
:104740001FBE1F901895CDB7DEB760970FB6F894CF
:10475000DEBF0FBECDBF85B7806885BF85B78068D7
:1047600085BF84B7877F84BF0FB6F894A8958091E2
:104770006000886180936000109260000FBE80E846
:1047800090E00FB6F89480936100909361000FBEA3
:104790008DE397E090933904809338040E941A03C4
:1047A0000E94E5038091E20084608093E2007894A7
:1047B00080913A058823A1F01091E9001F70909133
:1047C000EC00892F817090FD80E8182B1092E90091
:1047D0008091E80083FD0E9494151F701093E900FA
:1047E00082E084BD93E095BD9AEF97BD80936E0003
:1047F00084EF0E943F0785EF0E943F0786EF0E94EB
:104800003F0787EF0E943F0781E90E943F0780E949
:104810000E943F0784E90E943F0786E60E943F0707
:1048200084E0EFECF4E0DF01282F1D922A95E9F7F0
:10483000E6ECF4E0DF011D928A95E9F790E080E074
:104840000E94F927883E9E4F11F00E945B1882E07B
:1048500090E00E94EB278093D3040E947015909300
:1048600011058093100583E090E00E94EB27682FEC
:1048700070E090E080E00E940510209A289A559AF6
:104880005D9A8CE090E00E94EB27482F50E070E0AA
:1048900060E04093FD045093FE046093FF04709326
:1048A00000051092F904843009F077C18091CE049C
:1048B000811136C090E080E00E94F927883E9E4F2B
:1048C00021F00E945B180E94E70D88E090E00E94B2
:1048D000F3276093F4047093F5048093F6049093A7
:1048E000F7046E7F71F40E94E70D88E090E00E946B
:1048F000F3276093F4047093F5048093F604909387
:10490000F7040E945C051092ED048091F40480FF8E
:1049100004C060E086950E94800D81E08093CE0403
:1049200080E091E0909308058093070518E1E12E5F
:10493000F12C8FEC94E004E0D02ED80E80913A0553
:10494000B0E4BB2E00E112E1853009F45FC10E94A2
:10495000F70D882359F08FB7F89440910C055091CA
:104960000D0560910E0570910F058FBFAFECB4E09F
:10497000E4EDF4E010E000E0302F8D919191981774
:1049800009F455C1292F282790E0BB24B394422F66
:104990004B2109F447C19F8338878B2191E009F4AB
:1049A00090E099870E94B1048160782F9B878A8765
:1049B0004F81588569858B850E94B621F801EC529C
:1049C000FB4F8081B826B08280910C0190910D013F
:1049D000B12CF6E1AF2E019609F076C18091ED047D
:1049E00081117CC186E0E0EEF4E0DE0111960190D9
:1049F0000D928A95E1F71092E2041092E30410926E
:104A0000E4041092E5041B810C81812F802B09F4B2
:104A100048C08091DE049091DF040E94A2049C01B2
:104A20009091DA04992309F419C225313105C8F1AE
:104A30009F3F19F09F5F9093DA04112359F00E9471
:104A4000C3069FEF11160CF491E0899F802D11246D
:104A50008093E204002359F00E94C3069FEF1016D2
:104A60000CF491E0899F802D11248093E304309110
:104A7000E2043323B1F02091E304222391F045EBCB
:104A80003403C0011124992309F4BDC19093E204B9
:104A900045EB240390011124332309F4B8C130936A
:104AA000E3041D810E81812F802B09F448C0809181
:104AB000DC049091DD040E94A2049C019091D90431
:104AC000992309F4C6C121353105C8F19F3F19F07A
:104AD0009F5F9093D904112359F00E94A1069FEF84
:104AE00011160CF491E0899F802D11248093E40429
:104AF000002359F00E94A1069FEF10160CF491E0DC
:104B0000899F802D11248093E5043091E4043323A0
:104B1000B1F02091E504222391F045EB3403C0016C
:104B20001124992309F477C19093E40445EB2403FD
:104B300090011124332309F472C13093E50446E057
:104B400050E0BE016F5F7F4F80EE94E00E944028EE
:104B5000892B61F48091E2049091E304892B909178
:104B6000E404892B9091E504892B11F00E94010641
:104B700086E0FE013196A0EEB4E001900D928A9598
:104B8000E1F70E9448059091D804891709F4D6CE20
:104B90008093D8040E942F0AD1CE84E08093FD0434
:104BA00085CE80913A05843021F180E00E942F0A61
:104BB00010920B050FB6F894A895E09260000FBE16
:104BC000B092600083B7817F846083BF83B78160C8
:104BD00083BF7894889583B78E7F83BF0FB6F89490
:104BE000A8958091600088618093600010926000B9
:104BF0000FBE80913905882349F00E94F70DEFEC34
:104C0000F4E0819181110FC1DE12FBCF80913A0552
:104C1000853009F4C6CF0E947E150E9448050E9487
:104C20002F0A95CE9F5FBB0C943009F0B0CE0F5F7A
:104C30001F4F0430110509F09FCE8FEF8C878D87B1
:104C40001E860E94B1048160782F988B8F874C85D7
:104C50005D856E8588890E94B621B6CEA89EF0013A
:104C6000A99EF00D1124E45EFE4F82889388811482
:104C7000910419F4A8EC8A2E912CA89E8001A99E7B
:104C8000100D1124045E1E4FD80116968C911697B4
:104C90008823C9F01D968D919C910E94A2048816CC
:104CA000990688F4BA9C40011124F8018189811188
:104CB00005C0C401845E9E4F0E94FE0EC4018E5D3D
:104CC0009E4F0E941D0FB3948B2D90E020910C01FC
:104CD00030910D01281739070CF680CE8091EC0435
:104CE000E091F404E695E81BE093E804823089F54E
:104CF000F0E0E259FD4FE4910E2F10E0EBE8AE2E0C
:104D0000ECE0BE2E8091E904882361F01092E90462
:104D10000E94B1049093E7048093E6041092EB04A0
:104D20001092EA040E94B104E091E604F091E704D5
:104D30008E1B9F0B8F3F9F4708F054CEE00FF11F53
:104D4000F093E704E093E60486EE94E0F50109951C
:104D500049CE863059F4F0E0E559FD4FE4910E2F2D
:104D600010E07BE7A72E7CE0B72ECCCF893061F432
:104D7000E695F0E0E859FD4FE4910E2F10E064E075
:104D8000A62E6CE0B62EBECF8F3061F4E695F0E033
:104D9000EB59FD4FE4910E2F10E050ECA52E5BE097
:104DA000B52EB0CF853159F4F0E0EE59FD4FE491C6
:104DB0000E2F10E042E9A42E4BE0B42EA3CF08E260
:104DC00010E09FE1A92E9BE0B92E883109F49ACF1B
:104DD000833249F4E0E6F2E0059114913AE2A32E21
:104DE0003CE0B32E8FCF04EF11E023E0A22E2BE0A6
:104DF000B22E843209F486CF00ED17E08BE5A82EA1
:104E000085E0B82E7FCF81E08093E20441CE81E03F
:104E10008093E30446CE81E08093E40487CE81E072
:104E20008093E5048CCE09BD19BD09B400FEFDCF09
:104E30008091D8008F7D8093D8008091E0008260BF
:104E40008093E0008091E00081FDFCCF0E947E1500
:104E5000DDCE2B30310508F03BCE71CE2B30310545
:104E600008F0E8CD1ECEAA1BBB1B51E107C0AA1F4C
:104E7000BB1FA617B70710F0A61BB70B881F991FFB
:104E80005A95A9F780959095BC01CD01089597FB9F
:104E9000072E16F4009407D077FD09D00E9433271F
:104EA00007FC05D03EF4909581959F4F089570952D
:104EB00061957F4F0895A1E21A2EAA1BBB1BFD012D
:104EC0000DC0AA1FBB1FEE1FFF1FA217B307E407E9
:104ED000F50720F0A21BB30BE40BF50B661F771F41
:104EE000881F991F1A9469F7609570958095909521
:104EF0009B01AC01BD01CF010895EE0FFF1F05908E
:104F0000F491E02D09940E948B27332312F48A1B1D
:104F10009B0B0C949C27A29FB001B39FC001A39F41
:104F2000700D811D1124911DB29F700D811D1124E2
:104F3000911D08950E948B27B7FF0895821B930B44
:104F400008950E948B27A59F900DB49F900DA49F5C
:104F5000800D911D11240895B7FF0C94A1270E9484
:104F6000A127821B930B08952F923F924F925F923D
:104F70006F927F928F929F92AF92BF92CF92DF9269
:104F8000EF92FF920F931F93CF93DF93CDB7DEB7CE
:104F9000CA1BDB0B0FB6F894DEBF0FBECDBF099462
:104FA0002A88398848885F846E847D848C849B84B9
:104FB000AA84B984C884DF80EE80FD800C811B81C7
:104FC000AA81B981CE0FD11D0FB6F894DEBF0FBEF6
:104FD000CDBFED010895F999FECF92BD81BDF89A3C
:104FE000992780B50895A6E1B0E044E050E00C9424
:104FF0002528A8E1B0E042E050E00C942528262FB7
:10500000F999FECF92BD81BDF89A019700B40216BE
:1050100039F01FBA20BD0FB6F894FA9AF99A0FBE6C
:1050200008950396272F0E9400280E94FF27252F0E
:105030000E940028242F0C9400280196272F0E94FC
:1050400000280C94FF27DC01CB01FC01F999FECF6D
:1050500006C0F2BDE1BDF89A319600B40D92415000
:105060005040B8F70895FC014150504030F0019095
:105070000616D1F73197CF0108958827992708950B
:10508000FB01DC0104C08D910190801921F4415095
:105090005040C8F7881B990B0895F894FFCF7316FA
:1050A0009B1633189B163318CE16EF163318EC17D1
:1050B000F917EC1BEC1B201C201CC81CE21C4E1C0E
:0A50C0004E1CED1CC31DD21DD21DB5
:1050CA009F04910A700A6B0A660A9E04FFFF01197F
:1050DA001A1B1C1D1E1F202122010201000053154C
:1050EA0000000000000000000000000000000000B6
:1050FA00000000003615000000000000000000005B
:10510A000000000000000000000019150000000067
:10511A000000000000000000000000000000000085
:10512A00DF14000000000000000000000000000082
:10513A00000000000000C21400000000000000008F
:10514A00000000000000000000000000A51400009C
:10515A000000000000000000000000000000000045
:10516A000000881400000000000000000000000099
:10517A0000000000000000006B14000000000000A6
:10518A0000000000000000000000000000004E14B3
:10519A000000000000000000000000000000000005
:1051AA0000000000311400000000000000000000B0
:1051BA0000000000000000000000141400000000BD
:1051CA0000000000000000000000000000000000D5
:1051DA00F7130000000000000000000000000000BB
:1051EA00000000000000DD130000000000000000C5
:1051FA00000000000000000000000000C3130000CF
:10520A000000000000000000000000000000000094
:10521A000000A913000000000000000000000000C8
:10522A0000000000000000008F13000000000000D2
:10523A0000000000000000000000000000007513DC
:10524A000000000000000000000000000000000054
:10525A0000000000581300000000000000000000D9
:10526A00000000000000000000003B1300000000E6
:10527A000000000000000000000000000000000024
:10528A001E130000000000000000000000000000E3
:10529A0000000000000001130000000000000000F0
:1052AA00000000000000000000000000E7120000FB
:1052BA0000000000000000000000000000000000E4
:1052CA000000CA12000000000000000000000000F8
:1052DA000000000000000000AD1200000000000005
:1052EA000000000000000000000000000000901212
:1052FA0000000000000000000000000000000000A4
:10530A0000000000FC140000000000000000000083
:10531A00000000000000000001B1001322A222A830
:10532A0022A422A52227222822BB22032204228683
:10533A0022882282228422082209221A221B221C63
:10534A00222E222F2230222B222C222D227020B90B
:10535A0000B2007120B2027F208020812082206268
:10536A001D7C2C9920070308036A22D8226B22D9B4
:10537A0022C903A903C803A803C603A603C303A338
:10538A0003C003A003BE039E03BB039B03B8039899
:10539A0003B4039403B3039303818283E200E90015
:1053AA00EA00B500B600B700CD008301CC008A013F
:1053BA0092019401210223022402250226022702D5
:1053CA002A02B300B4006F007000F4F5F6F791906A
:1053DA009466000102020202060606090909090981
:1053EA00090F0F0F0F0F0F1515151819191919197C
:0853FA001919191919232400E7
:00000001FF
