:100000000C94D9020C94F6020C94F6020C94F602AD
:100010000C94F6020C94F6020C94F6020C94F60280
:100020000C94F6020C94F6020C94832B0C943F2B48
:100030000C94802C0C94F6020C94F6020C94F602AC
:100040000C94F6020C94F6020C94F6020C94F60250
:100050000C94F6020C945C2C0C94F6020C94F602B0
:100060000C94F6020C94F6020C94F6020C94F60230
:100070000C94F6020C94F6020C94F6020C94F60220
:100080000C94F6020C94F6020C94F6020C94F60210
:100090000C94F6020C94F6020C94F6020C94F60200
:1000A0000C94F6020C94F6020C94F6020000000088
:1000B0000000000000000000000000000000000040
:1000C0000000000000000000000000000000000030
:1000D0007E0F00D4FFFFFFC7000000780000000083
:1000E000000000002A2B2800000000000000000093
:1000F0000000000000000029000000002C1E342039
:10010000212224342627252E362D3738271E1F205E
:100110002122232425263333362E37381F040506A3
:100120000708090A0B0C0D0E0F10111213141516E7
:100130001718191A1B1C1D2F3130232D35040506E5
:100140000708090A0B0C0D0E0F10111213141516C7
:100150001718191A1B1C1D2F3130354CAF5D005775
:10016000B95DBE5DBF5D1957C75DCA5DCE5DD35D2C
:1001700006570757AE5D045101510251B05DB55DA0
:10018000BA5D0A57C05D0E571057CB5DCF5D14574F
:10019000D65DDA5D0000000001510351B15D0157E9
:1001A000BB5D0257C15DC55D035704570557D45D5C
:1001B000D75D08570000055103510251B25DB65D8D
:1001C000BC5D0957C25D0F57C85DCC5DD05D15574A
:1001D000165717570000000003510351B35DB75D78
:1001E000BD5D0C57C35D115712571357D15D18579A
:1001F000D85DDB5D0000045100000551B45DB85DC1
:100200000B570D57C45DC65DC95DCD5DD25DD55D33
:10021000D95DDC5D000005510000055100047F3F01
:100220001F643214643214783C1E1E140A05000147
:1002300001010101010101010202020202020202A6
:100240000203030303030303030404040404040478
:10025000050505050506060606060707070707083C
:10026000080808090909090A0A0A0B0B0B0C0C0CEF
:100270000D0D0D0E0E0E0F0F0F1010111111121289
:1002800013131414151516161717181819191A1A06
:100290001B1B1C1D1D1E1E1F202021222223242467
:1002A000252626272829292A2B2C2D2D2E2F3031A3
:1002B0003232333435363738393A3B3C3D3E3F40B5
:1002C0004142434445464748494A4C4D4E4F5051A0
:1002D0005354555658595A5B5D5E5F61626465665A
:1002E00068696B6C6D6F7072737577787A7B7D7EE1
:1002F0008082838587888A8C8E8F91939596989A31
:100300009C9EA0A2A3A5A7A9ABADAFB1B3B5B7BA48
:10031000BCBEC0C2C4C6C9CBCDCFD1D4D6D8DBDD1C
:10032000DFE2E4E7E9EBEEF0F3F5F8FAFDFFFFAA10
:100330007F55402223252628292A2C2D2F30323381
:100340003536383A3B3D3E4042434547494A4C4E9C
:100350005051535557595A5C5E6062646668696BC8
:100360006D6F71737577797B7D7F81838587898ACE
:100370008C8E90929496989A9C9E9FA1A3A5A7A8D4
:10038000AAACAEAFB1B3B4B6B8B9BBBCBEBFC1C204
:10039000C3C5C6C7C9CACBCCCDCED0D1D2D2D3D497
:1003A000D5D6D7D7D8D9D9DADADBDBDBDCDCDCDCB5
:1003B000DCDDDDDDDDDCDCDCDCDCDBDBDBDADAD983
:1003C000D9D8D7D7D6D5D4D3D2D2D1D0CECDCCCB05
:1003D000CAC9C7C6C5C3C2C1BFBEBCBBB9B8B6B423
:1003E000B3B1AFAEACAAA8A7A5A3A19F9E9C9A98B3
:1003F000969492908E8C8A89878583817F7D7B7984
:10040000777573716F6D6B6968666462605E5C5A64
:100410005957555351504E4C4A4947454342403E27
:100420003D3B3A3836353332302F2D2C2A292826B9
:1004300025232205010902A10185020901A1000568
:100440000919012908150025019508750181020582
:1004500001093009311581257F950275088106094A
:10046000381581257F950175088106050C0A38022B
:100470001581257F950175088106C0C00501098099
:10048000A101850319012AB700150126B7009501BE
:1004900075108100C0050C0901A101850419012A0C
:1004A000A002150126A002950175108100C005016A
:1004B0000906A1018506050719E029E715002501B0
:1004C0009508750181020507190029EF150025011E
:1004D00095F0750181020508190129059505750139
:1004E0009102950175039101C005010906A101055D
:1004F0000719E029E7150025019508750181029586
:1005000001750881010507190029FF150026FF0064
:1005100095067508810005081901290595057501DD
:100520009102950175039101C009023B000201008F
:10053000A0FA0904000001030101000921110100D2
:1005400001224000070581030800010904010001A0
:100550000300000009211101000122B600070582F5
:1005600003200001120100020000000800006101E8
:1005700001000102000114034D00610074006800D5
:1005800062006F00610072006400000020034D00F3
:10059000610067006E00650020004C00610075007E
:1005A0007200690074007A0065006E0000000403A8
:1005B000090411241FBECFEFDAE0DEBFCDBF19E082
:1005C000A0E0B1E0E0E5F3E602C005900D92A430B2
:1005D000B107D9F72AE0A4E0B9E001C01D92A33128
:1005E000B207E1F70E94A72C0C9461310C94000033
:1005F000E8EDF0E080818E7F80831092E20010921F
:10060000DA001092E100A0EEB0E08C9181608C9352
:1006100080818F77808319BCA7EDB0E08C918E7FAD
:100620008C9380818F7E80831092E10908952091C0
:10063000E4003091E50095E6A9012091EC00822FBD
:10064000817020FF06C08091E80080FF06C080E036
:1006500008952091E80022FD1AC08091060A88239F
:1006600089F0853089F08091EB0085FD0FC02091E5
:10067000E4003091E50042175307F9F29150E1F69A
:1006800084E0089582E0089583E0089581E008956C
:10069000EF92FF920F931F93CF937C018B010E94E7
:1006A0001703C82F811117C08091E80085FD0BC08A
:1006B0008091E8008E778093E8000E9417038823DA
:1006C00099F3C82F08C0F70181917F018093F10051
:1006D0000150110949F78C2FCF911F910F91FF9075
:1006E000EF9008958091080A87FF13C08091E80079
:1006F00082FF06C08091E8008B778093E80004C0F9
:100700008091060A8111F2CF08958091060A88230C
:10071000D9F38091E80080FFF8CF8091E8008E77D0
:10072000ECCF982F9093E900242F762F50E0891773
:1007300031F07091EC002091ED005091F00021FD1E
:1007400007C09F5F973071F78093E90081E00895BB
:100750003091EB003E7F3093EB003091ED003D7F18
:100760003093ED003091EB0031603093EB007093EB
:10077000EC002093ED005093F0002091EE0027FD57
:10078000E0CF80E00895B0E0A0E0E9ECF3E00C9465
:10079000C030C8EDD0E088818F7E8883E7EDF0E03F
:1007A00080818160808384E082BF81E08093E10961
:1007B00088818E7F888302EE10E0F801108210920B
:1007C000DA0081EEC82ED12CF601108288818F7755
:1007D000888388818068888388818F7D888319BC1D
:1007E0001092060A1092070A1092050A1092040A43
:1007F00090EEE92EF12CF70180818B7F8083888138
:100800008160888342E060E080E00E949103F6010D
:1008100080818E7F8083F8018081816080838081E8
:1008200088608083F70180818E7F808388818061EA
:100830008883CDB7DEB7E8E00C94DC30FC01809112
:100840000E0A90910F0A86179707A0F0611571059F
:1008500029F49091E8009E779093E80090E061156C
:10086000710551F4911108C08091E80082FF34C0F5
:1008700080E00895BC01F2CF8091060A8823C1F17F
:100880008530C1F18091E80083FD30C08091E8009F
:1008900082FDEACF8091E80080FFE1CF8091F300F4
:1008A0002091F200382F6115710519F028303105BB
:1008B00058F091E02830310509F090E02091E800EF
:1008C0002E772093E800CBCF81918093F100615087
:1008D00071092F5F3F4FE7CF8091060A882341F0CF
:1008E000853041F08091E80083FFBECF81E008951C
:1008F00082E0089583E0089508958091E3090895C2
:100900009C014FB7F8948091D8099091D909A09192
:10091000DA09B091DB094FBF821B930B08952FB703
:10092000F8948091D8099091D909A091DA09B091F1
:10093000DB092FBF0895209159032223C9F020918C
:10094000DC0927FF15C0E62FE695E695E695EE3122
:10095000D8F4E80FF92FF11D677021E030E001C0F5
:10096000220F6A95EAF72095828128232283089531
:10097000FC01329608962191621303C0DF011197A2
:100980001C92E817F907B9F708952091590322231B
:10099000C1F02091DC0927FF14C0E62FE695E6950B
:1009A000E695EE31F8F4E80FF92FF11D677021E0BC
:1009B00030E001C0220F6A95EAF78281822B8283A0
:1009C0000895FC0132962FEF30E04191641751F009
:1009D0002F3F19F4411101C0232F3F5F3630A9F793
:1009E0002F3F09F40895820F911D27FD9A95FC0170
:1009F000628308952091D5093091D60928173907C7
:100A000071F09093D6098093D509E091D309F091C4
:100A1000D409309721F00084F185E02D09950895DF
:100A20002091D1093091D2092817390771F090939C
:100A3000D2098093D109E091D309F091D40930977C
:100A400021F00680F781E02D09950895E091D30902
:100A5000F091D409309729F00190F081E02D0995AB
:100A6000089580E00895FA01811101C0FB01099504
:100A7000089508958091C009982F9E7F29F4817070
:100A800082608093C00908958A34E8F38170886495
:100A9000F8CFAF92BF92DF92EF92FF920F931F9326
:100AA000CF93DF93082F162FE901E42FF0E0E25DEA
:100AB000FD4F611110C0E4915E2F4E2F4983E883F2
:100AC0005A83DF91CF911F910F91FF90EF90DF90AC
:100AD000BF90AF900895E62EF12C4491D42EE42FD0
:100AE000F0E026E0829FC00111242FEF30E0B90131
:100AF0000E943530802F90E0880F991F55E5569F52
:100B0000D001579FB00D11248A1B9B0B982F990F72
:100B1000890F5901AE18BF08AE9ED001AF9EB00D2F
:100B2000BE9EB00D11245B2F189F80011124012F50
:100B300011275901A01AB10AAE9E8001AF9E100D77
:100B4000BE9E100D11245901A81AB108AE9CC00117
:100B5000AF9C900DBE9C900D1124892F9927281BC6
:100B6000390B2E9FC0012F9F900D3E9F900D112499
:100B7000E92F62307105A1F050F46115710509F497
:100B80009DCF6130710581F0EB2F512F97CF6430ED
:100B9000710569F080F06630710509F48FCFF4CFEC
:100BA000E42F4B2F592F8ACFE42F412F87CFEB2FE4
:100BB000542F492F83CF4B2F5D2DE12F7FCF0E94E4
:100BC0008F049C019091AE098091AF09982B21F080
:100BD0003093AB092093AA099091B0098091B10993
:100BE000982B21F03093A9092093A809E091D3090B
:100BF000F091D409309749F082E08093AC090480E9
:100C0000F581E02D8CEA99E0099508954091AE09AF
:100C10008D3E59F48091AF0987FF0DC01092AF0946
:100C200041110BC01092A60908C08E3E81F480913C
:100C3000AF0918169CF3442381F08091B00990917C
:100C4000B109892B09F05AC01092A50908958F3E69
:100C500049F447FFF0CF1092AE098091AF0981119E
:100C6000ECCFE0CF803F19F41416ACF3E4CF9091B1
:100C7000B009893F29F41916F4F61092B009DBCFB8
:100C80008A3F19F497FFD7CFF8CF9091B1098B3FE6
:100C900029F497FFD0CF1092B109CDCF8C3F19F432
:100CA0001916CCF3C8CF9FE0980F983090F4815F6D
:100CB000990B21E030E0B90102C0660F771F8A95D9
:100CC000E2F7CB0180959091AD0989238093AD091E
:100CD000B2CF8D3F31F48091A7098E7F8093A70911
:100CE000AACF8E3F21F48091A7098D7FF7CF8F3F48
:100CF00009F0A1CF8091A7098B7FF0CF0895809153
:100D0000A70980FD16C081FD16C082FD16C0809126
:100D1000A5098823A1F0883280F428E0829FC001D1
:100D2000112468E270E00E944930862F672B39F069
:100D3000089582E0089584E0089588E0089581E0B0
:100D400008958091A70980FD14C081FD14C082FD23
:100D500016C08091A609882381F08E3180F420E5A9
:100D6000829FC00111246EE170E00E944930862FFD
:100D7000089584E1089588E2089588E0089580E563
:100D800008958D3E31F40E94A10681958093AF09AC
:100D900008958E3E19F40E94A106F8CF8F3E31F4DB
:100DA0000E94A10681958093AE090895803F19F4B1
:100DB0000E94A106F8CF893F29F40E947F06809304
:100DC000B00908958A3F21F40E947F068195F7CFEC
:100DD0008B3F31F40E947F0681958093B10908957D
:100DE0008C3F19F40E947F06F8CF9FE0980F98304F
:100DF00070F4815F990B21E030E001C0220F8A95E9
:100E0000EAF78091AD09822B8093AD0908958D3F5B
:100E100031F48091A70981608093A70908958E3FDE
:100E200021F48091A7098260F7CF8F3FB9F78091B5
:100E3000A7098460F1CF80E00895F894E82FE29547
:100E4000EF70F0E031A1282F2F7081E090E001C019
:100E5000880F2A95EAF7982F9095932391A392A152
:100E6000892B82A3789408959091DC0992FF06C0A3
:100E7000282F28712830F9F4877F846093FF06C0FB
:100E8000282F28712831F1F4877E84612091DD09B3
:100E900020FF06C0382F38713830D9F4877F816041
:100EA00021FF06C0282F28712831D1F4877E816167
:100EB00094FD877E0895282F24712430F9F68B7FC6
:100EC0008860DCCF282F2471243101F78B7E886164
:100ED000DDCF382F3171313019F78E7F8860E0CF48
:100EE000282F2171213121F78E7E8861E1CF743066
:100EF000A8F4643098F494E0899FF0011124E70F7E
:100F0000F11DEE0FFF1FEE0FFF1FE60FF11DEE0F9D
:100F1000FF1FE45AFE4F85919491089580E090E080
:100F20000895CF93DF93EC0182389105A9F1D8F5AC
:100F30008133910509F496C048F58932910509F489
:100F40008AC08A9709F495C0C11521E5D20708F037
:100F5000BCC0C11530E5D30708F014C1C83ED105A7
:100F600008F09CC0C03ED10560F5C83AD10508F034
:100F700087C0C53AD10508F0FDC0C130D10509F1DF
:100F80002097F9F0C430D105E0F440C085339105D5
:100F900009F45AC0C997C1F68091DC09837089F0C1
:100FA000C0EED0E00EC0833E910599F170F4803E12
:100FB000910501F1823E910539F68091DC0982FDAF
:100FC00021C0CE01DF91CF910895863E910561F158
:100FD000873E910571F1843E910509F0B5CF80916E
:100FE000DD0981FFEECF8091DC09C7EED0E084FD02
:100FF0000DC0E7CF8091DC0980FD12C19091DD0921
:1010000090FFDFCFC3EED0E084FFDBCFD0E0C0E0C5
:10101000D8CF8091DC0982FD06C19091DD0990FD59
:10102000BFCF84FFCECFF2CF8091DC0983FDDDCF2F
:10103000C8CF8091DC0983FDF9C09091DD0991FF53
:10104000F0CFC4EED0E0BDCF8091DC0985FFB9CFF1
:10105000C9E2D0E0B6CF8091DC0985FFB2CFC5E30D
:10106000D0E0AFCF8091DC0986FFABCFCAE2D0E001
:10107000A8CF8091DC0986FFA4CFC1E3D0E0A1CF47
:10108000CF3BD10518F6C85AD0E0CC0FDD1FC755AD
:10109000D74F0990D881C02DD46493CFC11540E2B9
:1010A000D40758F4C11581E0D80708F08ACFCD3EA7
:1010B000D10508F4ABCFD06584CFC11590E4D90732
:1010C00008F4A4CFDF70D06A7CCFC11525E5D20724
:1010D00000F5C11534E5D30708F08AC0C11543E512
:1010E000D40708F071C0C11582E5D80708F467C0BD
:1010F000CE018370992721E030E002C0220F331F18
:101100008A95E2F7C695C69580E2C89FE001112452
:1011100052C0C11599E5D907A8F4C11528E5D20731
:1011200008F06BC0C11536E5D30708F06FCF8C2FE0
:101130000E943407C82FD0E0DC2FCC27CC27DF71EA
:10114000D0623FCFC1154AE5D40708F45BC0CE0199
:1011500090568115904208F059CF8D2F8F710E94C3
:10116000340790E0982F882788279F719C012C2BAB
:10117000E901E6CFC55AD0E0CA55D74FC881D0E0C3
:10118000D0641FCFCE01E4E096958795EA95E1F70C
:1011900083702C2F26952695237040E2249F900182
:1011A0001124382B8C2F8370C1E0D0E002C0CC0F0B
:1011B000DD1F8A95E2F7C22BD32BDC6802CFDC2F30
:1011C000CC27C16FD06AFDCECE018370992721E074
:1011D00030E002C0220F331F8A95E2F7C695C6950C
:1011E00090E2C99FE0011124C22BD32BDA68E9CE2B
:1011F000DC2FCC27C46FD06AE4CEDC2FCC27C06FA5
:10120000D06ADFCE8C2F8F700E94340734E0D695E1
:10121000C7953A95E1F7CF709C2FEC01D069D1CEFC
:10122000C9E3D0E0CECEC2EED0E0CBCEC6EED0E069
:10123000C8CE80918A09811110928A0908958095FB
:101240009091CF0998239093CF090895809590911C
:10125000D00998239093D0090895809168099091BE
:101260003709981301C008958F5F8770FACFB0E0F7
:10127000A0E0EDE3F9E00C94BF308C01C09096093A
:10128000D0909709E0909809F090990980918B0986
:1012900090918C09A0918D09B0918E09C82AD92A04
:1012A000EA2AFB2ACFE1D0E0BC2ED701C6010C2EE2
:1012B00004C0B695A795979587950A94D2F780FDB7
:1012C00009C0219788F7B12C8B2DCDB7DEB7E9E0A7
:1012D0000C94DB30B8018C2F0E9477070E94910795
:1012E000019779F3F1CFCF93DF93EC010E94370997
:1012F000BE010E9477070E949107DF91CF91089568
:10130000943088F5843078F544E0949F900111245E
:10131000820F932F911D682F677023E09695879514
:101320002A95E1F725E0289FF001299FF00D11246F
:10133000E95DF64F50E040E080E0219130E0062E7C
:1013400002C0369527950A94E2F721703327042EC0
:1013500001C0220F0A94EAF7822B4F5F5F4F45309E
:10136000510559F7089580E008959430A8F5843028
:1013700098F544E0949F90011124820F932F911DC2
:10138000282F277041E001C0440F2A95EAF723E097
:10139000969587952A95E1F725E0289FF001299FEA
:1013A000F00D1124E95DF64F30E020E070E051913E
:1013B000DF011197CB01022E02C0969587950A9402
:1013C000E2F7817081958527842385278C932F5F91
:1013D0003F4F2530310559F70895FC0180819181F7
:1013E0000E94730992959F70963091F058F4925F25
:1013F0009F70923058F4803F19F030F4883E30F4FA
:1014000081E008959A5FF4CF843FD1F380E008959E
:10141000883EB0F3813FD1F7F3CF809580FF05C0C0
:10142000289A81FF04C05D9A08952898FACF5D98A4
:101430000895892F81708260FB010995089580933A
:10144000DE097093E0096093DF098091060A843019
:1014500001F582E08093E9008FEF9091E8008150E0
:1014600095FD06C095ED9A95F1F700008111F5CF35
:101470008091E80085FF0DC050E040E063E070E03F
:101480008EED99E00E9448038091E8008E7780936A
:10149000E8000895BC0184E00E941F0A0895BC0181
:1014A00083E00E941F0A08959C0182E08093E90076
:1014B0009FEF8091E800915085FD06C085ED8A95EB
:1014C000F1F700009111F5CF8091E80085FF0CC085
:1014D00050E040E066E070E0C9010E94480380915E
:1014E000E8008E778093E8000895CF93DF93EC01B6
:1014F000809159038823B1F18091DC0987FF32C0C4
:1015000060E282E08093E9008FEF9091E8008150E3
:1015100095FD06C095ED9A95F1F700008111F5CF84
:101520008091E80085FF1BC08091590370E050E076
:1015300040E0811104C050E040E068E070E0CE017E
:101540000E9448038091E8008E778093E80080E253
:10155000FE01A4EEB9E001900D928A95E1F7DF91CA
:10156000CF91089568E081E0CDCF8091C00980FFE0
:1015700027C0219A35B13D7F25B122604FB7F8943D
:101580008DEB99E0FC015191CF0168E025B9000095
:1015900000C057FF35B9550F000000C000C000C0A3
:1015A00035B900C06A9591F7F9E0803C9F0751F783
:1015B0004FBF8FE594E00197F1F700C00000089558
:1015C0001092BE091092BD091092BF09D2CFCF93DD
:1015D000DF93EC018091C1096091C2099C812DEBE0
:1015E00039E040E0911102C04091C3090E944905D1
:1015F0000E94B50A8C8190E00196817099278C83B6
:10160000DF91CF9108958F929F92AF92BF92CF9228
:10161000DF92EF92FF92CF93DF93EC014C81E42EA7
:10162000F12C9701D7010E948D309B01AC010E94E3
:10163000A3304B015C01E0E2F0E0EE19FF09A5E503
:10164000B0E0AC019B010E94A3306B017C019F01C3
:10165000DF010E9485309B01AC010E94AE309B01EE
:10166000AC01280D391D4A1D5B1DC701B6010E9442
:101670005D30922F30E09A3248F563E0969FA001EA
:1016800011245595479540952DEB39E06091C2099D
:1016900085E5891B0E9449050E94B50A9C8181E06D
:1016A000992319F0903219F48FEF80931C018091E7
:1016B0001C01890F8C83DF91CF91FF90EF90DF9019
:1016C000CF90BF90AF909F908F90089545E550E0E8
:1016D000BA01621B730B9B01AB01440F551F420FF4
:1016E000531F57FFCECF4F5F5F4FCBCF1092BE0936
:1016F0001092BD091092BF098091BB09181674F0B1
:1017000080911B0187FD0AC02DEB39E04091C30990
:101710006091C2098091C1090E9449050E94B50AE1
:1017200080911A019091BB09980F9093BB09209169
:101730001B01280F20931B01121614F497FD03C000
:10174000819580931A0108950F931F93CF93DF9390
:10175000FC0182811FEF80FF11E01092BE09109200
:10176000BD091092BF09C4E0D0E000E08091BA0941
:10177000800F823024F487FD8F5F811113C0809128
:10178000C3098C9FA0018D9F500D1124559547953D
:10179000559547952DEB39E06091C2098091C109BB
:1017A0000E944905010F219709F70E94B50A1130DF
:1017B00061F48091BA09882319F081508093BA09A5
:1017C000DF91CF911F910F9108951092BA09F8CF30
:1017D000CF93DF93EC012DEB39E04091C309609189
:1017E000C2098C810E9449050E94B50A9A818C81A8
:1017F00090FF05C08F5F8C83DF91CF91089581505A
:10180000FACF9091C00990FF08C08093BE09609301
:10181000BD094093BF090E94B50A0895A3E0B0E056
:10182000E4E1FCE00C94C4308C018091BC0981118E
:101830000AC09E012F5F3F4F4FEF6FEF0E94490597
:101840008A818093BC09F8016481613069F08091DC
:10185000BC0940E0662361F040E0623011F4409141
:10186000BC0980E060E004C06091BC0940E080E019
:101870000E94010CF801848190E0019663E070E021
:101880000E94493084832396E4E00C94E030A3E086
:10189000B0E0EDE4FCE00C94C6309091C00990FFFC
:1018A0000AC09E012F5F3F4F0E9449054B8169810D
:1018B0008A810E94010C2396E2E00C94E230CF93DF
:1018C000DF93EC01E0ECF9E0438162818C810E94BE
:1018D000470C8C818F5F8C83DF91CF910895CF93DC
:1018E000DF93EC01EC81F0E0ED5CFC4F4491E0EC27
:1018F000F9E0628181810E94470C8C818F5F8C832B
:10190000DF91CF9108951092C5091092C90960E046
:101910008CE090E00E9401310895CF92DF92EF9227
:10192000FF926B017C010E943A05B701A60188E095
:1019300090E00E941331FF90EF90DF90CF900895D8
:10194000A3E0B0E0E6EAFCE00C94C230082FF62EEB
:10195000142FE22E9091C00990FF29C0E92FE6953F
:10196000AE2FB0E0A152B74F8C918093B8099E7F03
:10197000923009F59E012F5F3F4F802F0E9449054D
:101980004B8169818A810E94010C0093C109F09208
:10199000C2091093C309EE2051F06091C009709103
:1019A000C1098091C2099091C3090E948D0C2396B0
:1019B000E6E00C94DE30823019F41091C309E5CFD3
:1019C000863019F40091C109E0CF8930D9F389310B
:1019D000E1F6E951E695F0E0E25DFC4FE4912DEB94
:1019E00039E0802F0E9449050E94B50ACECFE0EC75
:1019F000F9E0438128E0421B08F440E021E06281E5
:101A000081810E94A00C0895E0ECF9E0438128E078
:101A1000420F08F44FEF21E0628181810E94A00C07
:101A20000895E0ECF9E0628128E0621B08F460E0D0
:101A300021E0438181810E94A00C0895E0ECF9E04F
:101A4000628128E0620F08F46FEF21E04381818119
:101A50000E94A00C0895E0ECF9E0818121E043812F
:101A6000628188500E94A00C0895E0ECF9E0818129
:101A700021E043816281885F0E94A00C08958091DB
:101A8000C409882319F081508093C4096091C0096A
:101A90007091C1098091C2099091C3090E948D0C77
:101AA00008958091C409833018F48F5F8093C4092E
:101AB0006091C0097091C1098091C2099091C309D8
:101AC0000E948D0C08959091C00990FF2CC09170D8
:101AD00081112AC092609093C009662351F06091F1
:101AE000C0097091C1098091C2099091C3090E94F7
:101AF0008D0C6091C009669570E04BE050E08FE07E
:101B000091E00E943531892BB1F01092B90981E042
:101B10008093B50920E04091C3096091C20980918A
:101B2000C1090E94A00C0895853210F09864D3CFAB
:101B3000880F982BD0CF81E08093B9090E948F0441
:101B40009093B3098093B209E2CF8091C009869542
:101B5000815009F484E261E00E94630D0895809150
:101B6000C00986958F5F853208F081E061E00E94B0
:101B7000630D08959091C00990FF08C0969598173D
:101B800028F0961718F40E94AF0D089561E00E94A6
:101B9000630D0895E0ECF9E083E0808311828FEF1C
:101BA00082838383148260817181828193810E9408
:101BB0008D0C0895A4E0B0E0E0EEFDE00C94BD30A3
:101BC00019821A821B821C8287EDE82E88E0F82E8B
:101BD00010E000E0CC24C394D12C2FEDA22E28E0FD
:101BE000B22EF70181917F018F3F09F445C0F8942F
:101BF000E82FE295EF70F0E021A18F70A60102C0FE
:101C0000440F551F8A95E2F7CA01922F982B91A392
:101C100092A18095892382A3789400C0EBEDF8E02F
:101C2000912C31E021912F3F09F46BC0A22FA29596
:101C3000AF70B0E090968C9190E02F7002C09595B7
:101C400087952A95E2F780FD5CC0832F982A330F91
:101C5000AE16BF0639F7F701319780818F3F11F03B
:101C60000E941D0750EA5A95F1F7E1E0F0E0EC0F11
:101C7000FD1FE00FF11F90820F5F1F4F0430110511
:101C800009F0AFCF44E050E0BE016F5F7F4F82E9C3
:101C900099E00E94423111E0009709F410E0892B8D
:101CA00091F189819A81AB81BC8180939209909353
:101CB0009309A0939409B093950981E080939109C9
:101CC0000E948F049093900980938F0980918F09CF
:101CD000909190090E9480040597C8F08091920924
:101CE00080939B098091930980939C09809194092A
:101CF00080939D098091950980939E091092910986
:101D000006C080E0A3CF809191098111DFCF812FA0
:101D10002496EBE00C94D9308091D0099091CF09B2
:101D2000892B8093060990918A099923A1F0892B28
:101D300080930609809159038823E1F18091DC09A1
:101D400087FF38C08EE1E8E0F9E090E08150A0F52F
:101D500091110E94190940E250E06AE679E086E0BC
:101D600099E00E944231892B21F180E2E6E0F9E01E
:101D7000AAE6B9E001900D928A95E1F7E091D309C6
:101D8000F091D4093097A9F080915903882359F034
:101D90008091DC0987FF07C08091060980930709BD
:101DA00086E0809306090280F381E02D86E099E0C9
:101DB0000995089586E0C7CF2191222339F29F5FCC
:101DC000C5CFCF93DF93EC0181E0898B8091D0095F
:101DD0009F81892B8093D0098091CF099885892B89
:101DE0008093CF090E948C0EEA81FB81309729F005
:101DF0006C897D89CE0106960995DF91CF91089572
:101E0000EF92FF920F931F93CF93DF93EC018A859C
:101E1000811134C0EB80FC8087E5F81A26E12E9D05
:101E2000C0012F9D900D1124DC01A35EBE4F1496BE
:101E3000ED91FC911597309731F054966D917C910E
:101E40008D5D9E4F099586E18E9D80018F9D100DC1
:101E50001124035E1E4FF80187810E942609F801B4
:101E600080850E941F090E948C0E188219861B868D
:101E70001E821D821092CE091092CD09CDB7DEB719
:101E8000E6E00C94DE30882339F09091D009982B4D
:101E90009093D0090E948C0E0895882339F0909178
:101EA000CF09982B9093CF090E948C0E0895882318
:101EB00021F00E9426090E948C0E0895882321F0AB
:101EC0000E941F090E948C0E089590E080E00E94FD
:101ED000100590E080E00E94FA041092CF090E9461
:101EE0008C0E86E0ECEAF9E0DF011D928A95E9F7B5
:101EF0001092A6091092A5091092A7090E94DF0569
:101F00000895609396097093970980939809909328
:101F100099090E94650F08950F931F9341E050E0C7
:101F200060E070E004C0440F551F661F771F8A955C
:101F3000D2F7CB01BA01609570958095909500918C
:101F40009609109197092091980930919909602379
:101F50007123822393230E94810F1F910F91089573
:101F6000909169098095892380936909282F2770AA
:101F700091F4282F082E000C330B9217130659F0FA
:101F80009091DD0992FF07C08595859585950E9402
:101F90008C0F109269090895CF93C091DD09C2FB9F
:101FA000992790F9981791F080FBC2F9C093DD0949
:101FB0006091DC0984E090E00E9401316C2F82E2A4
:101FC00090E00E94013182E00E94B00FCF9108950D
:101FD0000F931F9341E050E060E070E004C0440FB5
:101FE000551F661F771F8A95D2F7809196099091A9
:101FF0009709A0919809B09199098A019B01082B32
:10200000192B2A2B3B2BC901B8010E94810F1F916C
:102010000F91089560938B0970938C0980938D09BB
:1020200090938E090E94650F0895882391F19CEF8B
:10203000980F913A40F4682F86E099E00E949B0443
:102040000E948C0E089590E2980F983050F487709B
:1020500091E001C0990F8A95EAF7892F0E9426091D
:10206000EFCF9BE5980F933028F490E080E00E943A
:102070001005089598E5980F973128F490E080E0D6
:102080000E94FA0408958D3E20F00E9406060E94E8
:10209000DF050895CF93C82F8823D9F18CEF8C0FDB
:1020A000813AC8F580915903882311F18091DC09A8
:1020B00087FF1EC0EC2FE695E695E695F0E0EA5F17
:1020C000F64F828190E04C2F477021E030E002C053
:1020D000220F331F4A95E2F782239323892B91F035
:1020E0006C2F86E099E00E949B040E948C0E0AC02F
:1020F000E8E0F9E08EE099E02191C21789F38E17AC
:102100009F07D1F76C2F86E099E00E94C5040E94DA
:102110008C0ECF91089580E28C0F883068F4C770E0
:1021200021E030E001C0220FCA95EAF78091D00982
:10213000822B8093D009EBCFEBE5EC0FE33040F43A
:10214000F0E0EA55F74F808190E00E941005E1CF62
:10215000E8E5EC0FE73150F4F0E0EE0FFF1FE75534
:10216000F74F808191810E94FA04D3CFCD3E88F24F
:102170008C2F0E94C1060E94DF05CBCF1F93CF9307
:10218000DF93182FD0E0C0E0893311F4C0E5D0E030
:10219000812F0E944A10209739F4812F0E94151038
:1021A000DF91CF911F9108958FE99FE00197F1F79B
:1021B00000C000002197EFCF0F931F93CF93DF93C1
:1021C000C62FD42F022FFC0182818823A9F06093AF
:1021D000120A0E948F049093110A8093100AC7700C
:1021E00081E001C0880FCA95EAF70E94430FDF9192
:1021F000CF911F910F9108958091120A681332C0F8
:102200008091100A9091110A0E948004883C9105E7
:1022100048F510E21D0FCD17B9F080E28C0F883021
:1022200040F4C77081E001C0880FCA95EAF70E94A8
:10223000570F183048F481E09D2F977001C0880F28
:102240009A95EAF70E94430F802F0E94BE10183023
:1022500070F6D77081E001C0880FDA95EAF70E9426
:10226000570FC5CFC77081E001C0880FCA95EAF744
:10227000F6CF8091C909813079F0882349F0823006
:10228000B1F08430E9F08091C6098093D0090895B7
:1022900082EE0E941510F7CF8CE20E94BE10809152
:1022A000C809882381F389E30E94BE10ECCF82EE37
:1022B0000E9415108091C7098111E5CF83E5F4CF05
:1022C00088E2F2CF0E942605869581708093C80926
:1022D0000E94260581708093C7098091C9098130C9
:1022E00039F48091C809882319F089E30E94BE104F
:1022F0008091D0098093C6091092D0091092CF091D
:102300008091C909813089F0882359F0823001F128
:10231000843091F18FE39CE90197F1F700C0000050
:10232000089582EE0E944A10F5CF6DE47FE088E1C7
:1023300093E00E94190A88E10E944A1088E10E94F5
:1023400015106EE57FE088E193E00E94190AE2CF64
:102350008091C709811103C083E50E94BE1082EEFF
:102360000E944A108FE39CE90197F1F700C000003A
:1023700087E50E94BE10CECF86EE0E94BE1088E197
:10238000F8CFB0E0A0E0E7ECF1E10C94C130E82F29
:10239000F0E0E452FF4FD490282F269526952695FD
:1023A00030E0F901E453FF4F0491877010E0082EEC
:1023B00002C0159507950A94E2F701701127F901FB
:1023C000E454FF4FE490F12C082E02C0F594E794FA
:1023D0000A94E2F791E0E922FF24F901E455FF4F66
:1023E000C491D0E002C0D595C7958A95E2F7C17037
:1023F000DD270115110519F081EE0E944A10E11444
:10240000F10419F086EE0E944A108D2D0E94BE1034
:10241000E114F10419F086EE0E9415100115110562
:1024200019F081EE0E941510CD2B19F08CE20E945C
:10243000BE10CDB7DEB7E7E00C94DD30EF92FF922F
:102440000F931F93CF93DF938C01CCE0D0E08AE011
:10245000E82EF12CC8010C2E02C0969587950A949F
:10246000E2F78F709091C9099230B1F48A3090F4FC
:1024700090E00996B7010E944930875A0E94BE1029
:102480002497CC3F8FEFD80729F7CDB7DEB7E6E02A
:102490000C94DE308650F2CF96EF980F963020F0F5
:1024A000805D0E94C111ECCF895AFBCFCF93DF939F
:1024B000EC01FB018281882339F00E946211CE0178
:1024C0000E941E120E943911DF91CF9108950F933F
:1024D0001F93CF93DF93EA0128812150330B2617F6
:1024E000370714F030E020E0220F331F280F391F88
:1024F000F901008111810E946211C8010E941E121F
:102500000E943911CE010E94000FDF91CF911F91DF
:102510000F9108951F93CF93DF93EC011AE0888108
:10252000882309F43EC08130C9F599818A819130B0
:1025300029F422960E94BE102196F1CF923021F408
:1025400022960E944A10F8CF933021F422960E94DE
:102550001510F2CF943011F02196EECF229630E094
:1025600020E0AE014F5F5F4F8053990B8A30910599
:1025700050F02150310900F38FE99FE00197F1F706
:1025800000C00000F6CF129FB001139F700D112400
:102590009C01260F371F8981EA01E3CF0E94C111F8
:1025A000CBCFDF91CF911F9108950E948A1280E5D1
:1025B0000E94BE1008950E948A1280E50E94BE10FB
:1025C00080E50E94BE1080E50E94BE1080E50E945A
:1025D000BE100895282FCB012230B9F028F4222311
:1025E00041F0213061F008952330B1F02430D1F072
:1025F00008950E948A128CE20E94BE1008950E94E3
:102600008A128CE20E94BE10F6CF0E948A128CE2DF
:102610000E94BE1080E5F0CF0E948A128CE20E94D8
:10262000BE10F5CF0E948A128CE20E94BE1080E597
:102630000E94BE108AE20E94BE1080E50E94BE1079
:102640008AE2DACFFA0120812150330B26173707AF
:1026500014F030E020E0A901440F551F240F351F6E
:10266000820F931FFC016081718182810E94EA12B6
:102670000895FA01928191110E94EA120895CF9370
:1026800084E090E00E94ED30C82F82E290E00E944A
:10269000ED30982F8C2FCF9108951092D009809112
:1026A0005903E8E0F9E0882361F08091DC0987FFB5
:1026B00008C08EE1DF011D928A95E9F70E94650F3F
:1026C000089586E0F7CFAAE2B0E0E9E6F3E10C94E2
:1026D000C53088E09AE02091F100FC012193CF0100
:1026E000FAE080319F07B9F78091090A833009F435
:1026F00070C0B8F4813009F447C0823009F4B1C029
:102700008091E80083FF7EC28091080A9091090AB7
:102710009A3008F077C2E92FF0E0ED59FE4C0C94A6
:102720007F308A3009F48CC08B3009F46FC0893057
:1027300039F78091080A813219F780910C0A90913B
:102740000D0A0297E8F68091E800877F8093E80001
:102750008091E80082FF38C09091F3008091F200F0
:10276000029731F48091F100813011F0863021F42C
:102770008091F1008093E3098091E8008B7780934A
:10278000E8000E947203BCCF8091080A813A09F0E8
:10279000B7CF8091E800877F8093E80080910C0A92
:1027A00090910D0A892B61F460E284EE99E070E06B
:1027B0000E941E048091E8008B778093E800A0CFF0
:1027C00060E090E080E0F3CF8091060A8111C0CFF5
:1027D00097CF8091080A813A09F092CF80910C0A34
:1027E00090910D0A892B09F08BCF8091E800877FAB
:1027F0008093E8008091E80080FFFCCF809159032E
:102800008093F1008091E8008E77B9CF8091080A1B
:10281000813209F075CF80910C0A90910D0A892BB5
:1028200009F06ECF8091E800877F8093E8000E94D6
:10283000720380910A0A809359030E944D1360CF5E
:102840008091080A813209F05BCF8091E800877F90
:102850008093E8000E94720380910B0A8093E20942
:102860004FCF8091080A813A09F04ACF8091E80061
:10287000877F8093E8008091E80080FFFCCF809103
:10288000E209BECF803899F0823809F0BBC180914F
:102890000C0A8F70873008F0B5C18093E9008091F1
:1028A000EB0085FB882780F91092E90006C0809133
:1028B000040A9091050A911182609091E800977F37
:1028C0009093E8008093F1001092F1008091E8006D
:1028D0008E7794C1882309F482C1823009F092C1B5
:1028E00080910A0A811185C180910C0A8F702FEFA7
:1028F000280F263008F086C18093E9002091EB0074
:1029000020FF77C1933031F48091EB008062809397
:10291000EB006FC19091EB0090619093EB0021E090
:1029200030E001C0220F8A95EAF72093EA00109266
:10293000EA008091EB008860EACF811163C11091B9
:102940000A0A1F778091E3008078812B8093E3004F
:102950008091E800877F8093E8000E947203809155
:10296000E80080FFFCCF8091E30080688093E30063
:1029700082E0111183E08093060A44C180588230BE
:1029800008F040C180910A0A90910B0A8C3D23E027
:102990009207A1F583E08A838AE289834FB7F8948E
:1029A000DE01139620E03EE051E2E32FF0E0509389
:1029B0005700E49120FF03C0E295EF703F5FEF7096
:1029C0008E2F90E0EA30C0F0C7968D939D932F5FD5
:1029D000243159F74FBF8091E800877F8093E8004A
:1029E0006AE270E0CE0101960E941E048091E80028
:1029F0008B778093E80006C1C096E7CF40910C0A20
:102A000050910D0A292F33272330310509F444C092
:102A100078F52130310509F46FC08BE390E0E9E2ED
:102A2000F5E02230310509F0EDC02091E800277F64
:102A30002093E80020910E0A30910F0A8217930725
:102A400008F49C0140E02115310509F064C04111F2
:102A500062C08091E80082FDC9CF8091060A882378
:102A600029F2853019F28091E80083FFF2CFBECFC2
:102A700021323105A9F12232310509F0C3C04115D7
:102A8000510509F443C04130510509F0BBC086EB44
:102A900090E0E3E3F4E0C9CF992781309105C1F0DC
:102AA000009759F0029709F0ADC0E6E7F5E0E49130
:102AB0008E2F90E0E6E7F5E007C0EEEAF5E0E4915E
:102AC0008E2F90E0EEEAF5E0009709F49BC0ADCFC1
:102AD000ECE8F5E0E4918E2F90E0ECE8F5E0F4CF3F
:102AE0004115510571F04130510509F08BC089E065
:102AF00090E0E4E5F5E099CF82E190E0E4E6F5E0EE
:102B000094CF89E090E0EBE3F5E08FCF80E490E0B4
:102B1000E9EEF4E08ACF8091060A882309F466CFB3
:102B2000853009F463CF8091E80083FD5FCF809109
:102B3000E80082FD8ECF8091E80080FF84CF9091E5
:102B4000F3008091F2002115310519F088309105CC
:102B500050F041E0089709F040E08091E8008E775E
:102B60008093E80070CF44914093F100319621505A
:102B700031090196E8CF803809F044C08091E8001F
:102B8000877F8093E8008091070A8093F1009ECEB2
:102B9000811138C010910A0A1230A0F58091E80026
:102BA000877F8093E8001093070A0E947203112325
:102BB00011F084E005C08091E30087FDFACF81E049
:102BC0008093060A42E061EC81E00E94910342E2B8
:102BD00061EC82E00E9491038091060A13C080910B
:102BE0000A0A813079F481E0933009F080E0809323
:102BF000050A1092E9008091E800877F8093E80041
:102C00000E9472038091E80083FF0AC08091E8006F
:102C1000877F8093E8008091EB0080628093EB00D7
:102C2000AA96E3E00C94E1300E944D132FEF84E369
:102C30009CE0215080409040E1F700C0000088E116
:102C40009AE00FB6F894A895809360000FBE909319
:102C50006000FFCF68EE7EEF90E080E00E941F31C1
:102C600060E082E090E00E94013160E083E090E06B
:102C70000E94013110928B0910928C0910928D09DB
:102C800010928E0960E084E090E00E94013164E0DF
:102C900082E290E00E94013160E085E090E00E94D5
:102CA000013160E086E090E00E9401316FEF87E043
:102CB00090E00E94013140E050E0BA0188E090E0ED
:102CC0000E94133160E08DE090E00E94013140E00D
:102CD00050E0BA0188E190E00E94133160E087E1A2
:102CE00090E00E94013140E050E0BA018CE190E0B8
:102CF0000E94133170E060E080E290E00E941F319A
:102D000040E050E0BA0188E190E00E94133140E0D9
:102D100050E0BA018FE090E00E94133140E050E0B3
:102D2000BA0183E190E00E9413310895B0E0A0E081
:102D3000ECE9F6E10C94BE308C01CDB6DEB66AE566
:102D400074E00E945831892B59F4C8010E94DB12AB
:102D50000FB6F894DEBE0FBECDBEEAE00C94DA30BA
:102D600065E674E0C8010E945831892B71F361E770
:102D700074E0C8010E945831892B39F36CE774E084
:102D8000C8010E945831892B01F368E874E0C8013A
:102D90000E945831892BC9F265E974E0C8010E948C
:102DA0005831892B91F261EA74E0C8010E945831D0
:102DB000892B59F26EEA74E0C8010E945831892BC0
:102DC00021F26CEB74E0C8010E945831892B21F488
:102DD000C8010E94D512BCCF64EC74E0C8010E9407
:102DE0005831892BA9F36FEC74E0C8010E94583167
:102DF000892B71F36AED74E0C8010E945831892B68
:102E000009F4A3CF68EE74E0C8010E945831892B01
:102E100009F49BCF66EF74E0C8010E945831892BFA
:102E200021F4C8010E94D51293CFF801019000202F
:102E3000E9F73197E01BF10BE330F10508F45AC0D4
:102E400032976CEC74E0C8018E0F9F1F0E945831BE
:102E5000892B09F04FC0ADB6BEB680E50E94BE100A
:102E6000F80101900020E9F73197E01BF10B8DB7D5
:102E70009EB78E1B9F0B0FB6F8949EBF0FBE8DBFE3
:102E8000EDB7FEB731967F01F80101900020E9F718
:102E9000AF01401B510B42505109B801C7010E94BC
:102EA0004F31F80101900020E9F73197E01BF10B59
:102EB000EE0DFF1D31971082C7010E948A128FE428
:102EC0000E94BE106DE47FE080E392E00E94190A48
:102ED00080E30E944A1080E30E9415106EE57FE0B7
:102EE00080E392E00E94190A0FB6F894BEBE0FBEAE
:102EF000ADBE2ECFC8010E948A122ACFFA012081CE
:102F00002150330B2617370714F030E020E0220F52
:102F1000331F280F391FF901808191810E94961675
:102F20000895A4E0B0E0E7E9F7E10C94C630AC0105
:102F3000809100018230B0F480915A0390915B033C
:102F4000A0915C03B0915D0389839A83AB83BC83BA
:102F500062E070E0CE0101960E9467122496E2E0E2
:102F60000C94E2308230D1F780915E0390915F0340
:102F7000A0916003B091610389839A83AB83BC8382
:102F800062E070E0CE0101960E947E17E7CFA4E0D8
:102F9000B0E0EDECF7E10C94C630AC01809100019B
:102FA0008230B0F48091620390916303A091640336
:102FB000B091650389839A83AB83BC8362E070E040
:102FC000CE0101960E9467122496E2E00C94E23052
:102FD0008230D1F78091660390916703A0916803D6
:102FE000B091690389839A83AB83BC8362E070E00C
:102FF000CE0101960E947E17E7CFA4E0B0E0E3E0A7
:10300000F8E10C94C630AC01809100018230B0F43C
:1030100080916A0390916B03A0916C03B0916D0352
:1030200089839A83AB83BC8362E070E0CE01019612
:103030000E9467122496E2E00C94E2308230D1F7CD
:1030400080916E0390916F03A0917003B091710312
:1030500089839A83AB83BC8362E070E0CE010196E2
:103060000E947E17E7CFA6E0B0E0E9E3F8E10C9418
:10307000C630AC0180910001823098F486E0E2E72E
:10308000F3E0DE01119601900D928A95E1F763E07D
:1030900070E0CE0101960E9467122696E2E00C9441
:1030A000E2308230D1F786E0E8E7F3E0DE01119606
:1030B00001900D928A95E1F763E070E0CE010196F0
:1030C0000E947E17EACFA4E0B0E0E9E6F8E10C94B4
:1030D000C630AC01809100018230B0F480917E0353
:1030E00090917F03A0918003B091810389839A839B
:1030F000AB83BC8362E070E0CE0101960E94671250
:103100002496E2E00C94E2308230D1F78091820381
:1031100090918303A0918403B091850389839A835E
:10312000AB83BC8362E070E0CE0101960E947E1703
:10313000E7CFA4E0B0E0EFE9F8E10C94C630AC01D1
:10314000809100018230B0F48091860390918703D2
:10315000A0918803B091890389839A83AB83BC8350
:1031600062E070E0CE0101960E9467122496E2E0D0
:103170000C94E2308230D1F780918A0390918B03D6
:10318000A0918C03B0918D0389839A83AB83BC8318
:1031900062E070E0CE0101960E947E17E7CFA4E0C6
:1031A000B0E0E5EDF8E10C94C630AC01809100018F
:1031B0008230B0F480918E0390918F03A0919003A0
:1031C000B091910389839A83AB83BC8362E070E002
:1031D000CE0101960E9467122496E2E00C94E23040
:1031E0008230D1F78091920390919303A091940340
:1031F000B091950389839A83AB83BC8362E070E0CE
:10320000CE0101960E947E17E7CFA4E0B0E0EBE08C
:10321000F9E10C94C630AC01809100018230B0F429
:103220008091960390919703A0919803B091990390
:1032300089839A83AB83BC8362E070E0CE01019600
:103240000E9467122496E2E00C94E2308230D1F7BB
:1032500080919A0390919B03A0919C03B0919D0350
:1032600089839A83AB83BC8362E070E0CE010196D0
:103270000E947E17E7CFA9E0B0E0E1E4F9E10C9409
:10328000C630AC0180910001811113C086E0EEE9E7
:10329000F3E0DE01119601900D928A95E1F763E06B
:1032A00070E0CE0101960E9467122996E2E00C942C
:1032B000E230813011F58091820890918308A091CD
:1032C000840889839A83AB8380917F0890918008DA
:1032D000A09181088C839D83AE8380917C0890911E
:1032E0007D08A0917E088F839887A98763E070E0AE
:1032F000CE0101960E942213D8CF8230B1F686E02B
:10330000E4EAF3E0DE01119601900D928A95E1F76F
:1033100063E070E0CE0101960E947E17C6CFA9E05F
:10332000B0E0E5E9F9E10C94C630AC018091000110
:10333000811113C086E0EAEAF3E0DE011196019004
:103340000D928A95E1F763E070E0CE0101960E944C
:1033500067122996E2E00C94E230813011F58091F9
:10336000790890917A08A0917B0889839A83AB832E
:103370008091760890917708A09178088C839D833E
:10338000AE838091730890917408A09175088F8323
:103390009887A98763E070E0CE0101960E9422130E
:1033A000D8CF8230B1F686E0E0EBF3E0DE01119693
:1033B00001900D928A95E1F763E070E0CE010196ED
:1033C0000E947E17C6CFA9E0B0E0E9EEF9E10C94C7
:1033D000C630AC0180910001811113C086E0E6EB9C
:1033E000F3E0DE01119601900D928A95E1F763E01A
:1033F00070E0CE0101960E9467122996E2E00C94DB
:10340000E230813011F58091700890917108A0919F
:10341000720889839A83AB8380916D0890916E08BE
:10342000A0916F088C839D83AE8380916A089091F0
:103430006B08A0916C088F839887A98763E070E080
:10344000CE0101960E942213D8CF8230B1F686E0D9
:10345000ECEBF3E0DE01119601900D928A95E1F715
:1034600063E070E0CE0101960E947E17C6CFA2E114
:10347000B0E0EDE3FAE10C94C630AC0180910001BC
:10348000811113C08CE0E2ECF3E0DE0111960190B3
:103490000D928A95E1F766E070E0CE0101960E94F8
:1034A00067126296E2E00C94E2308130E9F5809197
:1034B000670890916808A091690889839A83AB8313
:1034C0008091640890916508A09166088C839D8323
:1034D000AE838091610890916208A09163088F8308
:1034E0009887A98780915E0890915F08A0916008F5
:1034F0008A879B87AC8780915B0890915C08A0913C
:103500005D088D879E87AF878091580890915908F4
:10351000A0915A08888B998BAA8B66E070E0CE0147
:1035200001960E942213BDCF823009F0BACF8CE001
:10353000EEECF3E0DE01119601900D928A95E1F731
:1035400066E070E0CE0101960E947E17AACFA2E14C
:10355000B0E0EDEAFAE10C94C630AC0180910001D4
:10356000811113C08CE0EAEDF3E0DE0111960190C9
:103570000D928A95E1F766E070E0CE0101960E9417
:1035800067126296E2E00C94E2308130E9F58091B6
:10359000550890915608A091570889839A83AB8368
:1035A0008091520890915308A09154088C839D8378
:1035B000AE8380914F0890915008A09151088F835D
:1035C0009887A98780914C0890914D08A0914E084A
:1035D0008A879B87AC878091490890914A08A0917F
:1035E0004B088D879E87AF8780914608909147084A
:1035F000A0914808888B998BAA8B66E070E0CE0179
:1036000001960E942213BDCF823009F0BACF8CE020
:10361000E6EEF3E0DE01119601900D928A95E1F756
:1036200066E070E0CE0101960E947E17AACFA6E068
:10363000B0E0EDE1FBE10C94C630AC0180910001FB
:10364000811116C08091F2039091F303A091F403CD
:10365000B091F50389839A83AB83BC8362E070E009
:10366000CE0101960E9467122696E2E00C94E230A9
:103670008130C9F48091430890914408A091450895
:1036800089839A83AB838091400890914108A091EF
:1036900042088C839D83AE8362E070E0CE01019688
:1036A0000E942213E1CF8230F9F68091F6039091C7
:1036B000F703A091F803B091F90389839A83AB8350
:1036C000BC8362E070E0CE0101960E947E17CCCFF1
:1036D000A4E0B0E0EEE6FBE10C94C630AC018091D2
:1036E00000018230B0F48091FA039091FB03A09125
:1036F000FC03B091FD0389839A83AB83BC8362E0B2
:1037000070E0CE0101960E9467122496E2E00C94CC
:10371000E2308230D1F78091FE039091FF03A091B7
:103720000004B091010489839A83AB83BC8362E077
:1037300070E0CE0101960E947E17E7CFA4E0B0E0D2
:10374000E4EAFBE10C94C630AC01809100018230C8
:10375000B0F48091020490910304A0910404B0910C
:10376000050489839A83AB83BC8362E070E0CE0159
:1037700001960E9467122496E2E00C94E2308230B7
:10378000D1F78091060490910704A0910804B091AC
:10379000090489839A83AB83BC8362E070E0CE0125
:1037A00001960E947E17E7CFA4E0B0E0EAEDFBE1CE
:1037B0000C94C630AC01809100018230B0F480914D
:1037C0000A0490910B04A0910C04B0910D0489831C
:1037D0009A83AB83BC8362E070E0CE0101960E94C5
:1037E00067122496E2E00C94E2308230D1F78091A7
:1037F0000E0490910F04A0911004B09111048983DC
:103800009A83AB83BC8362E070E0CE0101960E9494
:103810007E17E7CFA4E0B0E0E0E1FCE10C94C63015
:10382000AC01809100018230B0F48091120490913B
:103830001304A0911404B091150489839A83AB8377
:10384000BC8362E070E0CE0101960E94671224966C
:10385000E2E00C94E2308230D1F78091160490912E
:103860001704A0911804B091190489839A83AB833B
:10387000BC8362E070E0CE0101960E947E17E7CF24
:10388000A4E0B0E0E6E4FCE10C94C630AC01809129
:1038900000018230B0F480911A0490911B04A09131
:1038A0001C04B0911D0489839A83AB83BC8362E0BE
:1038B00070E0CE0101960E9467122496E2E00C941B
:1038C000E2308230D1F780911E0490911F04A091C4
:1038D0002004B091210489839A83AB83BC8362E086
:1038E00070E0CE0101960E947E17E7CFA4E0B0E021
:1038F000ECE7FCE10C94C630AC0180910001823011
:10390000B0F48091220490912304A0912404B091FA
:10391000250489839A83AB83BC8362E070E0CE0187
:1039200001960E9467122496E2E00C94E230823005
:10393000D1F78091260490912704A0912804B0919A
:10394000290489839A83AB83BC8362E070E0CE0153
:1039500001960E947E17E7CFA4E0B0E0E2EBFCE125
:103960000C94C630AC01809100018230B0F480919B
:103970002A0490912B04A0912C04B0912D048983EA
:103980009A83AB83BC8362E070E0CE0101960E9413
:1039900067122496E2E00C94E2308230D1F78091F5
:1039A0002E0490912F04A0913004B09131048983AA
:1039B0009A83AB83BC8362E070E0CE0101960E94E3
:1039C0007E17E7CFA4E0B0E0E8EEFCE10C94C6304F
:1039D000AC01809100018230B0F48091320490916A
:1039E0003304A0913404B091350489839A83AB8366
:1039F000BC8362E070E0CE0101960E9467122496BB
:103A0000E2E00C94E2308230D1F78091360490915C
:103A10003704A0913804B091390489839A83AB8329
:103A2000BC8362E070E0CE0101960E947E17E7CF72
:103A3000A4E0B0E0EEE1FDE10C94C630AC01809171
:103A400000018230B0F480913A0490913B04A0913F
:103A50003C04B0913D0489839A83AB83BC8362E0CC
:103A600070E0CE0101960E9467122496E2E00C9469
:103A7000E2308230D1F780913E0490913F04A091D2
:103A80004004B091410489839A83AB83BC8362E094
:103A900070E0CE0101960E947E17E7CFA4E0B0E06F
:103AA000E4E5FDE10C94C630AC0180910001823068
:103AB000B0F48091420490914304A0914404B091E9
:103AC000450489839A83AB83BC8362E070E0CE01B6
:103AD00001960E9467122496E2E00C94E230823054
:103AE000D1F78091460490914704A0914804B09189
:103AF000490489839A83AB83BC8362E070E0CE0182
:103B000001960E947E17E7CFA4E0B0E0EAE8FDE16D
:103B10000C94C630AC01809100018230B0F48091E9
:103B20004A0490914B04A0914C04B0914D048983B8
:103B30009A83AB83BC8362E070E0CE0101960E9461
:103B400067122496E2E00C94E2308230D1F7809143
:103B50004E0490914F04A0915004B0915104898378
:103B60009A83AB83BC8362E070E0CE0101960E9431
:103B70007E17E7CFA4E0B0E0E0ECFDE10C94C630A6
:103B8000AC01809100018230B0F480915204909198
:103B90005304A0915404B091550489839A83AB8354
:103BA000BC8362E070E0CE0101960E946712249609
:103BB000E2E00C94E2308230D1F78091560490918B
:103BC0005704A0915804B091590489839A83AB8318
:103BD000BC8362E070E0CE0101960E947E17E7CFC1
:103BE000FB01228121110E9496160895A5E0B0E004
:103BF000ECEFFDE10C94B8308C01DC0113968D9153
:103C00009C911497892B41F08C9111969C9189235A
:103C10008F3F11F00C940D282596E0E10C94D430E0
:103C20000E943709F82E682F89819A810E94B50970
:103C300069817A818F2D0E9477077C01F80182814A
:103C400081110BC0F701EE5AFD45EF32F10508F086
:103C50004FC0E359FE4C0C947F3080910D01909140
:103C60000E01019679F34DE1C42E41E0D42EB12C22
:103C7000A12C9924939480910D0190910E018A15A5
:103C80009B0504F3D60116968C9116978823E9F0CC
:103C900019968D919C918E159F0539F48091CD09CF
:103CA0009091CE098E159F0581F0F6019786F486D6
:103CB000E3868189811103C0C6010E94E10EC6011D
:103CC00006960E94000F1092CF09FFEFAF1ABF0AAD
:103CD00026E1C20ED11CCFCFD80112968C91882339
:103CE00039F0809100018111CFC081E08093000103
:103CF000C70197558F3F910511F008F048C02091FA
:103D00000D0130910E012817390724F490930E010C
:103D100080930D01F801228136E1389F5001399FCF
:103D2000B00C1124C501835E9E4F6C01DC015096DE
:103D30002C935097928116968C911697992309F49B
:103D400088C41A96FC92EE9219978F5F16968C9300
:103D50000E948F04F6019687858780918A09878360
:103D60008091CF099091D009892B80870190F081B3
:103D7000E02D309741F0D60154966D917C91C501AC
:103D80008D5D9E4F0995F092CE09E092CD09D80144
:103D900012968C91882389F08091D0098272B1EEBD
:103DA000EB16BCE5FB0609F475C408F060C4F0EE40
:103DB000EF16FCE5FF0609F469C4F7FE71C4D801EB
:103DC00012968C91882341F00E946211C7019F775F
:103DD0000E941E120E943911F8018281882311F479
:103DE0000C9422281092120AF4E0EF16FDE5FF066B
:103DF00008F0AAC42BEFE2162CE5F20630F4C70156
:103E000082509C45449708F0ABC40E943F139093A6
:103E1000DD098093DC0991E1E9169CE5F90609F4D6
:103E20008EC508F0FEC4B9E0EB16BCE5FB0609F44C
:103E300074C508F0C3C4F5E0EF16FCE5FF0609F40D
:103E400064C508F0A5C433E0E3163CE5F30609F4C5
:103E500052C508F056C58091DC09816092E0E916F0
:103E60009CE5F90609F44AC56091DC09F090DD098A
:103E700084E090E00E9401316F2D82E290E00E9488
:103E800001310E944D133AC4813021F482E08093C5
:103E900000012ECF823009F02BCF1092000128CFE5
:103EA00080910001823030F4B80181EB93E00E94F0
:103EB00056121ECF823009F01BCFB80189E496E07C
:103EC0000E94F01D15CF80910001823030F4B801BE
:103ED00080E692E20E9456120BCF823009F008CFA2
:103EE000B80180E596E00E94F01D02CF80910001AC
:103EF000823030F4B80182EB93E00E945612F8CE83
:103F0000823009F0F5CEB80185E596E00E94F01DFB
:103F1000EFCE80910001823030F4B80188E492E263
:103F20000E945612E5CE823009F0E2CEB8018BE550
:103F300096E00E94F01DDCCE80910001811106C048
:103F4000B80182E093E00E945612D2CE813051F443
:103F5000609185087091860880918708A8010E9469
:103F60003913C6CE823009F0C3CEB80183E696E09D
:103F70000E94F01DBDCE80910001811106C0B801E4
:103F80008CE093E00E945612B3CE813051F46091E0
:103F900088087091890880918A08A8010E943913C5
:103FA000A7CE823009F0A4CEB8018AE696E00E943E
:103FB000F01D9ECE80910001823030F4B8018DE179
:103FC00092E20E94561294CE823009F091CEB8014E
:103FD00083E796E00E94F01D8BCE80910001823035
:103FE00030F4B80181E692E20E94561281CE82300E
:103FF00009F07ECEB8018BE796E00E94F01D78CEE6
:1040000080910001811106C0B80183E093E00E9415
:1040100056126ECE813051F460918B0870918C08ED
:1040200080918D08A8010E94391362CE823009F078
:104030005FCEB80182E896E00E94F01D59CE8091D3
:104040000001811106C0B80184E093E00E9456127D
:104050004FCE813051F460918E0870918F0880911D
:104060009008A8010E94391343CE823009F040CE57
:10407000B8018BE896E00E94F01D3ACE80910001D5
:10408000823030F4B80185EB93E00E94561230CEB6
:10409000823009F02DCEB80182E996E00E94F01D31
:1040A00027CE80910001823030F4B80184E692E29C
:1040B0000E9456121DCE823009F01ACEB8018BE94B
:1040C00096E00E94F01D14CE80910001823030F401
:1040D000B80186EB93E00E9456120ACE823009F0B6
:1040E00007CEB80180EA96E00E94F01D01CE8091D3
:1040F0000001823030F4B80185E692E20E94561247
:10410000F7CD823009F0F4CDB80186EA96E00E943E
:10411000F01DEECD80910001811106C0B80187ED40
:1041200090E20E945612E4CD813051F460919108E2
:104130007091920880919308A8010E943913D8CDFC
:10414000823009F0D5CDB8018BEA96E00E94F01DCF
:10415000CFCD80910001823030F4B80187EB93E03D
:104160000E945612C5CD823009F0C2CDB80182EB53
:1041700096E00E94F01DBCCD80910001823030F4A9
:10418000B80189EB93E00E945612B2CD823009F05B
:10419000AFCDB80187EB96E00E94F01DA9CD8091CC
:1041A0000001811106C0B80181E192E20E9456121D
:1041B0009FCD813051F46091940870919508809161
:1041C0009608A8010E94391393CD823009F090CD52
:1041D000B8018AE594E00E94F01D8ACD809100012B
:1041E000823030F4B8018AEB93E00E94561280CD01
:1041F000823009F07DCDB8018DEB96E00E94F01D74
:1042000077CD80910001811106C0B8018FE092E264
:104210000E9456126DCD813051F4609197087091D3
:10422000980880919908A8010E94391361CD8230C5
:1042300009F05ECDB80185E694E00E94F01D58CDEE
:1042400080910001811106C0B8018AE292E20E94C9
:1042500056124ECD813051F460919A0870919B08AE
:1042600080919C08A8010E94391342CD823009F048
:104270003FCDB8018AED94E00E94F01D39CD8091C8
:104280000001811106C0B80189E292E20E94561233
:104290002FCD813051F460919D0870919E088091DE
:1042A0009F08A8010E94391323CD823009F020CD48
:1042B000B80188EE94E00E94F01D1ACD80910001B3
:1042C000823030F4B8018CEB93E00E94561210CD8E
:1042D000823009F00DCDB80184EC96E00E94F01D0B
:1042E00007CD80910001823030F4B80185E092E280
:1042F0000E945612FDCC823009F0FACCB80188EC4D
:1043000096E00E94F01DF4CC80910001823030F4E0
:10431000B8018DEB93E00E945612EACC823009F08E
:10432000E7CCB80184ED96E00E94F01DE1CC8091CD
:104330000001823030F4B80182E991E20E94561205
:10434000D7CC823009F0D4CCB80188ED96E00E9439
:10435000F01DCECC80910001823030F4B80186E1AE
:1043600092E20E945612C4CC823009F0C1CCB8014E
:1043700084EE96E00E94F01DBBCC8091000182305B
:1043800030F4B8018FEB93E00E945612B1CC82302A
:1043900009F0AECCB8018EEE96E00E94F01DA8CCDC
:1043A00080910001823030F4B80182E092E20E94F4
:1043B00056129ECC823009F09BCCB8018BEF96E070
:1043C0000E94F01D95CC80910001823030F4B8013C
:1043D00087E092E20E9456128BCC823009F088CCA2
:1043E000B80184E097E00E94F01D82CC809100012A
:1043F000823030F4B80186E09AE20E94561278CCFE
:10440000823009F075CCB8018BE097E00E94F01D76
:104410006FCC80910001823030F4B80181EC93E0E0
:104420000E94561265CC823009F062CCB80182E15C
:1044300097E00E94F01D5CCC80910001823030F446
:10444000B80182ED91E20E94561252CC823009F0FE
:104450004FCCB80187E197E00E94F01D49CC8091D4
:104460000001823030F4B80184ED91E20E945612CE
:104470003FCC823009F03CCCB80183E297E00E9447
:10448000F01D36CC80910001823030F4B80185EC0B
:1044900092E20E9456122CCC823009F029CCB8014D
:1044A00083E397E00E94F01D23CC809100018230CD
:1044B00030F4B8018FE29AE20E94561219CC823091
:1044C00009F016CCB80189E397E00E94F01D10CCEA
:1044D00080910001823030F4B80184EC93E00E94B6
:1044E000561206CC823009F003CCB80180E497E084
:1044F0000E94F01DFDCB80910001823030F4B801A4
:1045000085EC93E00E945612F3CB823009F0F0CB99
:10451000B80185E497E00E94F01DEACB809100018C
:10452000823030F4B80185E292E20E945612E0CB6C
:10453000823009F0DDCBB8018EE497E00E94F01DD7
:10454000D7CB80910001823030F4B80180E092E254
:104550000E945612CDCB823009F0CACBB80188E553
:1045600097E00E94F01DC4CB80910001823030F4AE
:10457000B80187EC93E00E945612BACB823009F062
:10458000B7CBB80180E697E00E94F01DB1CB8091D7
:104590000001823030F4B80180EB90E00E945612A6
:1045A000A7CB823009F0A4CBB80185E697E00E9442
:1045B000F01D9ECB80910001823030F4B8018EE175
:1045C00092E20E94561294CB823009F091CBB8014E
:1045D0008DE697E00E94F01D8BCB80910001823028
:1045E00030F4B8018CEA90E00E94561281CB823000
:1045F00009F07ECBB80184E797E00E94F01D78CBEC
:1046000080910001882309F473CB813051F46091CB
:10461000A0087091A1088091A208A8010E943913F6
:1046200067CB823009F064CBB80186EF94E00E943A
:10463000F01D5ECB80910001813009F059CB609173
:10464000A3087091A4088091A508A8010E943913BD
:104650004FCB882309F49BCBF6018189882309F489
:1046600096CBC5018D5D9E4F0E94000F90CB27EE2B
:10467000E2162CE5F20608F0A0CB6EE16E0D609319
:10468000C9098CE090E00E94013197CB811104C0F0
:1046900081E003C08111FCCF8FEF0E94830C8DCB92
:1046A000B4EFEB16BCE5FB0609F43FC0A8F4F9ED46
:1046B000EF16FCE5FF06A9F12AEDE2162CE5F2065D
:1046C00009F43FC038EDE3163CE5F30609F084CB6E
:1046D00026E241EE61EE0FC086EFE8168CE5F806A3
:1046E00061F138F127E245EE66EEA7EFEA16ACE598
:1046F000FA0609F071CBC8010E94DC1080916909AB
:10470000877009F489CAD80112968C91882309F41C
:1047100083CA8091DD0982FF7FCA82E00E94B00FC8
:104720007BCA27E245EE65EEE6CF26E241EE60EE7B
:10473000E2CF27E245EE64EEDECF26E241EE62EE06
:10474000DACF28E241E0EFCF32E6E3163DE5F306AB
:1047500009F45BCB86EAE8168DE5F80609F455CB3B
:10476000A6E1EA16ACE5FA0609F02BC58091D0095E
:104770008A7A91E009F490E09093260969E2811128
:1047800065E386E099E00E94C5040E948C0EB6CFD6
:104790008091DC098062A7E0EA16ACE5FA0609F42C
:1047A000ADC08091DC098061B8E0EB16BCE5FB068A
:1047B00008F4A4C08091DC098064A0C08091DC0969
:1047C0008B7FEDE0EE16ECE5FE0609F497C0B0F441
:1047D0008091DC098E7F2BE0E2162CE5F20609F4CD
:1047E0008DC08091DC098C603CE0E3163CE5F3066B
:1047F00008F484C08091DC098D7F80C08FE0E816CA
:104800008CE5F80609F497C08091DC09877F90E178
:10481000E9169CE5F90608F471C08091DC098F7DEA
:104820006DC0AEEFEA16ACE5FA0609F480C078F583
:10483000E5E1EE16ECE5FE0609F48BC0A0F48091EC
:10484000DC09837F23E1E2162CE5F20609F456C069
:1048500008F479C00E944D139091DC09892F97FBD1
:1048600087F980584BC08CEFE8168CE5F80609F400
:1048700050C008F058C08091DD098160ABEFEA16A6
:10488000ACE5FA0609F0F0CA8093DD09EDCAB2E0A2
:10489000EB16BDE5FB0609F468C0C8F48091DD099C
:1048A0008C7FE114FDE5FF0679F38091DD098360DB
:1048B00021E0E2162DE5F20638F38091DD09982F0C
:1048C000909591708E7F892B90FB81F9DDCF32E638
:1048D000E3163DE5F30609F44EC086EAE8168DE5D9
:1048E000F80609F44FC093E0E9169DE5F90609F0D2
:1048F000BBCA60E03BC08091DC0982608093DC0928
:10490000B3CA8091DC098460F9CF8091DC098860AA
:10491000F5CF8091DD098260B7CF0E944D13809161
:10492000DC098068EBCF8091DD098E7FADCF80916F
:10493000DD098D7FA9CF8091DC098F7EDFCF80914B
:10494000DC098F7BDBCF0E944D138091DC098F77D0
:10495000D5CF8091DC0982FB992790F921E092273D
:1049600090FB82F990FB83F9C9CF61E08EE090E083
:104970000E94013179CA9091DC09892F8F7E94FFC2
:104980008061BCCF9091DC09892F8E7F90FF816080
:10499000B5CF8091260969E2811165E386E099E04F
:1049A0000E949B04F2CE81608093C00961E08695ED
:1049B0000E94630DA3CE45EA5DE06FEA7DE00E94B0
:1049C00033059CCE4FEA5DE065EA7DE0F8CF45E334
:1049D0005DE06BE27DE0F3CF41E15DE06EE17DE023
:1049E000EECF47EF5CE064E07DE0E9CF44E05DE0DE
:1049F00067EF7CE0E4CF41E55DE06FE37DE0DFCF92
:104A000061E081E0D5CF65E082E00E94BA0D76CE0C
:104A100068E086E0FACF64E18FE0F7CF67E185E1F7
:104A2000F4CF62E289E1F1CF61E083E2C1CF0E947D
:104A30004D132FEF34E38CE0215030408040E1F7FC
:104A400000C0000087E797E7909301088093000873
:104A500088E19AE00FB6F894A895809360000FBEA5
:104A600090936000FFCF8091DD0982FB882780F959
:104A700091E089270E94CC0FF8018281E080F180CB
:104A8000882309F448C0C7010E943709D82E682F2F
:104A9000C7010E94B509B7018D2D0E9477070E94BA
:104AA00091077C01882ED8011296DC9012971596FA
:104AB0009C9092943FE09322809169098770C1F0A5
:104AC000BD2CDD20B1F08F2D807F803421F080E27D
:104AD0008E0D883068F08091DD0982FF09C082E088
:104AE0000E94B00F809169098770BB24B394811133
:104AF000B12CAF2CA2942FE0A222BBE0BA1508F48F
:104B000076C0EA2DF0E0E456FE4C0C947F3081E054
:104B1000B1CF80E0AFCFC7010E948009D82EBBCFB4
:104B2000EF2DEF70CE2E8F2D807F19F0C29490EF75
:104B3000C922DD20B9F0CC2069F080E28E0D8830EA
:104B400010F0811009C08091D009C82AC092D00904
:104B50000E948C0E8E2D49C08091CF09C82AC09228
:104B6000CF09F6CF8E2D0E941510CC2009F43FC03E
:104B700080E28E0D883010F0811004C08C2D0E94D0
:104B8000260903C08C2D0E941F090E948C0E2FC085
:104B9000FF2DFF70CF2E8F2D807F803219F0C294B1
:104BA00080EFC822882089F021E0821609F47AC0BB
:104BB000DD2009F484C0992009F47AC0F8018581C8
:104BC00080FFC8CF8F70858373C02091DD0922FDDF
:104BD00046C0DD20F1F1CC2039F08091D009C82AFF
:104BE000C092D0090E948C0E80E00E944A10AA2D2B
:104BF000A850BB0B149720F40E9426050E940D0AB2
:104C0000BB20A9F08091690980FD11C0F8011282D2
:104C10008595859585950E94E80FC8010E94F61D2F
:104C2000809169098595859585950E948C0F85E011
:104C3000F801DE01119601900D928A95E1F7098144
:104C40001A81C8010E948009B8010E9477070C945C
:104C50000C1E80E00E941510CC2049F28FCFDD2081
:104C6000A1F090918A09892F8C29911003C00E948C
:104C7000430FBDCF31E09312FACF22FFB8CF981780
:104C800009F4B5CF80938A09B2CF911006C00E9473
:104C900019098C2D0E94570FAACF81E0981609F4AC
:104CA000A6CFF5CFDD2031F095E0991508F49FCF20
:104CB0008C2DDDCFA4E0A91508F499CFEACF992077
:104CC00041F3F9E38F1209C02FEF37EE83E0215053
:104CD00030408040E1F700C000008E2D0E9415108A
:104CE00086CF8F2D86958695837061F0813009F08F
:104CF0007ECFC7019370D11002C090E080E00E9487
:104D0000FA0475CFC7019370D11002C090E080E023
:104D10000E9410056CCF8E2DDD2029F00E94C10667
:104D20000E94DF0564CF0E940606FACF8F2D8370A4
:104D300009F066C0D1105BCF8E2D82958695877065
:104D4000880F880F6E2D6F70462E512C712C612CA0
:104D5000082E04C0440C551C661C771C0A94D2F71C
:104D600040E050E0BA01E4FE0FC04FE050E060E0E8
:104D700070E004C0440F551F661F771F8A95D2F755
:104D800040955095609570958F2D8695869583708A
:104D9000823019F1D8F4C0908B09D0908C09E09042
:104DA0008D09F0908E09813069F0442955296629D2
:104DB0007729CB01BA016C217D218E219F210E9490
:104DC0000A1015CF4C285D286E287F28CB01BA0128
:104DD0006429752986299729F2CF442955296629FE
:104DE0007729C0908B09D0908C09E0908D09F090C4
:104DF0008E09CB01BA016C257D258E259F25DFCF3D
:104E00008695DD2011F08F2D8170882309F4EFCE77
:104E10008E2D829586958770880F880F6E2D6F7006
:104E2000462E512C712C612C082E04C0440C551CAC
:104E3000661C771C0A94D2F740E050E0BA01E4FE09
:104E40000FC04FE050E060E070E004C0440F551F19
:104E5000661F771F8A95D2F740955095609570959B
:104E60008F2D869586958370823019F1D8F4C09085
:104E70009609D0909709E0909809F09099098130AF
:104E800069F04429552966297729CB01BA016C219B
:104E90007D218E219F210E94810FA9CE4C285D2863
:104EA0006E287F28CB01BA016429752986299729A4
:104EB000F2CF4429552966297729C0909609D090C8
:104EC0009709E0909809F0909909CB01BA016C25F7
:104ED0007D258E259F25DFCF9F2D9F70F92EDD200C
:104EE00029F0892F0E94E80F8E2DC1CE8E2D0E94B1
:104EF000570F8F2D0E948C0F7ACE8E2DA2EF8A161F
:104F000009F440C0A81570F0B0EF8B16D1F0E1EFB6
:104F10008E1691F0DD2009F470C091101BCE8F2DFC
:104F20008F7134C0F3EF8F16A1F124EF8212F2CF0C
:104F30008091DD0982FD41C08F2D8F71DD20D1F27E
:104F400025C0DD20D1F034E0391508F450CE2F2DE6
:104F50002F7161E070E080E090E004C0660F771F81
:104F6000881F991F2A95D2F7C0909609D09097096B
:104F7000E0909809F0909909AACF85E0891508F486
:104F800036CEE5CF8F2D8F71D110B4CF0E94E80FB0
:104F90002ECE60E070E0CB01DD2009F47CCF2F2D18
:104FA0002F7161E070E080E090E004C0660F771F31
:104FB000881F991F2A95D2F76ECFDD2099F09F2D7B
:104FC0009F71F92E892F0E94E80F8091DD0982FFE1
:104FD00007C0A8E0FA9EC00111248360809369098C
:104FE0008F2DD4CF81E00E94B00FB1E0B91508F049
:104FF000FECD82E00E94B00FFACD992059F089339E
:1050000009F06BCEEFEFF7EE23E0E150F0402040E7
:10501000E1F761CE8F2D8F716DCF85E0F801DE0154
:10502000119601900D928A95E1F7D80112962C9174
:1050300089819A8121110C94101E0E948009F82EFA
:105040000C94181EB6E1EB16BCE5FB0609F4A1CCE6
:105050008091D0098272EDECEE16ECE5FE0609F4C3
:10506000CACC08F06DC027ECE2162CE5F20609F474
:10507000AECCE8F594ECE9169CE5F90609F49BCC76
:1050800028F5B3ECEB16BCE5FB0609F0F5CC8091F6
:10509000C00980FF88CC8E7F8093C0096091C009D1
:1050A0007091C1098091C2099091C3090E948D0C31
:1050B0001092B909BFEFE0E7F2E0B150E040F040F4
:1050C000E1F700C000000E94B50A18CBE5ECEE162F
:1050D000ECE5FE0609F476CC4BE25DE065E37DE0AD
:1050E000F6ECEF16FCE5FF0609F469CCC5CC2AEC1A
:1050F000E2162CE5F20609F474CC88F498ECE91673
:105100009CE5F90609F468CC4EE15DE061E17DE0E3
:10511000A9ECEA16ACE5FA0609F451CCADCCBBEC2F
:10512000EB16BCE5FB0609F461CC4FE35DE061E5FD
:105130007DE0ECECEE16ECE5FE0609F440CC9CCCF0
:10514000F2EDEF16FCE5FF0609F465CCB8F43FEC90
:10515000E3163CE5F30609F456CC08F451CC90ED87
:10516000E9169CE5F90609F453CC6EE089E0A1ED5F
:10517000EA16ACE5FA0609F448CC7ECCB5EDEB16A0
:10518000BCE5FB0609F44DCC78F4F3EDEF16FCE535
:10519000FF0609F443CC61E088E124EDE2162CE53A
:1051A000F20609F405CC68CC36EDE3163CE5F306CF
:1051B00009F43ACC8EE5E8168DE5F80609F49ECAA6
:1051C0005BCC9BE5E9169DE5F90609F4A0CC78F4E3
:1051D000E114BCE5FB0609F42ACCEFEDEE16ECE594
:1051E000FE0609F049CC0E942A160E941416FDE51D
:1051F000EF16FF0609F437CC08F48BCC38EAE31637
:105200003DE5F30691F338CC1F93CF93DF93809164
:105210003609807F09F049C080913309882309F459
:1052200044C080916809D09137096091310970912B
:105230003209A0913409B0913509C62FC72316E071
:10524000D81799F190E0109711F0CF3F19F401961B
:105250008770F6CF189F9001199F300D1124F90126
:10526000E85CF64F41814713F2CF40814613EFCF00
:1052700042814111ECCF438154814A1B5B0B483C76
:10528000510528F7809136098F7080618093360927
:10529000F901E35CF64F80818F708061808381E348
:1052A00099E00E94F61D0E942D09DF91CF911F9178
:1052B0000895A1E1B0E0EFE5F9E20C94BE308C0175
:1052C00085E0F801DE011D9601900D928A95E1F7C7
:1052D000F801E28081E3A82E89E0B82E60913409BC
:1052E000709135096115710509F426C19091310954
:1052F00040913209892F84238F3F09F41DC12081F9
:105300003181C380D480F0903309F601E61BF70B9E
:10531000FF2009F4DCC080913609582F507FE83C0B
:10532000F10508F09FC051116BC0FE2C431314C04F
:10533000921312C0E11010C08F7080618093360903
:10534000C5010E94F61D80913609F80185838F2DD5
:105350006196EAE00C94DA30C114D10429F0822F6E
:1053600083238F3F09F003C180E0F82FF170DF2E17
:1053700080FF3CC0809168094091370956E0841352
:1053800015C02D873E878D859E850E947309292F24
:1053900022952F702230F0F0243018F59F70F1F034
:1053A000F8019581907FD1F4D12C1EC090E0589FD8
:1053B000F001599FF00D1124E85CF64F618136131E
:1053C00006C06081261303C06281E6120FC00196F9
:1053D0008770D5CF9F7011F0882331F3805E8830BD
:1053E00018F3C8010E94F61DFD2CB1CFEE2009F480
:1053F000AECF80913609816080933609F12CA7CF1A
:10540000431306C0921304C0F801EE2009F479C0DA
:10541000C8010E94ED09882309F1EE20F9F080917E
:105420003609803270F02091310930913209388785
:105430002F831986DB86CA868C87CE0107960E9449
:10544000F61D86E0F801A1E3B9E001900D928A957E
:10545000E1F70E940429FF24F39479CFC8010E9448
:10546000F61DF9CF51110AC081E399E00E94F61DA3
:1054700086E0F50111928A95E9F7C0CF43130FC07A
:1054800092130DC0E1100BC0F8018583C8010E9482
:10549000F61D86E0F50111928A95E9F758CFC8010B
:1054A0000E94ED098823D1F2EE20C1F280913609E5
:1054B000803238F220913109309132093A832983C0
:1054C0001B82DD82CC828E83CE010196B8CFE83C70
:1054D000F105F8F6FE2CEE2009F243131FC09213DB
:1054E0001DC08091360980FD10C0982F907F69F013
:1054F000F8018583903F31F0982F907F905F8F70F7
:10550000892B8583C8010E94F61D86E0F801A1E37E
:10551000B9E001900D928A95E1F719CFC8010E9478
:10552000ED0981118ECF8091360981608093360913
:10553000C8010E94F61D0BCFEE2009F48FCFC801E1
:105540000E94ED09F82E882309F488CF86E0F8013F
:10555000A1E3B9E001900D928A95E1F780913109BC
:10556000909132090E9473090E940429F0CE81E0D3
:105570008E25FBCEA7E1B0E0E0ECFAE20C94C5305A
:105580004B8B5C8B6D8B7E8B8F8B61111092CF0957
:105590001A8A198A85E0FE017396DE011D96019034
:1055A0000D928A95E1F786E0FE013D96DE011796A1
:1055B00001900D928A95E1F7CE0107960E94592934
:1055C000882359F016E08091680990913709891372
:1055D00043C06796E3E00C94E13086E0FE01379625
:1055E000DE01119601900D928A95E1F78A859B85DF
:1055F000892B41F38F81988589238F3F19F320915F
:10560000370930E0C90101968770992740916809F0
:105610004817190671F40E944D1310923709109221
:10562000680986E0E1E3F9E0DF011D928A95E9F778
:10563000C9CF96E0929FD001939FB00D1124A85C32
:10564000B64FFE01319601900D929A95E1F7809345
:1056500037090E942D09B6CF819FC0011124885CB3
:10566000964F0E945929882309F4B3CF8091680985
:1056700090E001968770992780936809A4CF1F92C4
:105680000F920FB60F9211242F933F934F935F9376
:105690006F937F938F939F93AF93BF93CF93DF933A
:1056A000EF93FF93D091E900DF708091EC00C82F59
:1056B000C17080FDC0E81092E9008091F000877F02
:1056C0008093F00078940E9463131092E900809117
:1056D000F00088608093F000CD2BCF70C093E9007C
:1056E000FF91EF91DF91CF91BF91AF919F918F91FA
:1056F0007F916F915F914F913F912F910F900FBECE
:105700000F901F9018951F920F920FB60F921124B1
:105710002F933F934F935F936F937F938F939F93B9
:10572000AF93BF93EF93FF938091E10082FF09C095
:105730008091E20082FF05C08091E1008B7F809321
:10574000E1008091DA0080FF24C08091D80080FFC2
:1057500020C08091DA008E7F8093DA008091D9009A
:1057600080FF9DC080E189BD82E189BD09B400FE52
:10577000FDCF81E08093060A8091E109811109C083
:105780000E94F8020E94C3038091E200846080932B
:10579000E2008091E10080FF17C08091E20080FF6D
:1057A00013C08091E2008E7F8093E2008091E2003E
:1057B00080618093E2008091D80080628093D8005D
:1057C00019BC85E08093060A8091E10084FF2BC01C
:1057D0008091E20084FF27C080E189BD82E189BD1C
:1057E00089B5982F917080FFFBCF8091D8008F7D75
:1057F0008093D8008091E1008F7E8093E1008091BA
:10580000E2008F7E8093E2008091E20081608093CD
:10581000E2008091070A882309F447C084E080935E
:10582000060A8091060A8091E10083FF27C08091DB
:10583000E20083FF23C08091E100877F8093E10035
:1058400082E08093060A1092070A8091E1008E7F21
:105850008093E1008091E2008E7F8093E20080914E
:10586000E20080618093E20042E060E080E00E941C
:1058700091038091F00088608093F000FF91EF9198
:10588000BF91AF919F918F917F916F915F914F9158
:105890003F912F910F900FBE0F901F90189519BC3C
:1058A0001092060A1092E10974CF8091E30087FDFF
:1058B00093E09093060AB5CF78941F921FB61F927B
:1058C00011248F939F93AF93BF938091D8099091A8
:1058D000D909A091DA09B091DB090196A11DB11D8A
:1058E0008093D8099093D909A093DA09B093DB0982
:1058F000BF91AF919F918F911F901FBE1F901895E0
:105900001F921FB61F9211248F939F93AF93BF9343
:105910008091D709811113C08091D8099091D9093C
:10592000A091DA09B091DB094196A11DB11D8093C8
:10593000D8099093D909A093DA09B093DB09BF91F4
:10594000AF919F918F911F901FBE1F901895CDB75B
:10595000DEB760970FB6F894DEBF0FBECDBF85B738
:10596000806885BF85B7806885BF84B7877F84BF1F
:105970000FB6F894A89580916000886180936000CC
:10598000109260000FBE80E890E00FB6F89480930C
:105990006100909361000FBE8BE197E09093050941
:1059A000809304090E94F8020E94C3038091E200E0
:1059B00084608093E20078948091060A8823A1F0A5
:1059C0001091E9001F709091EC00892F817090FD7B
:1059D00080E8182B1092E9008091E80083FD0E9476
:1059E00063131F701093E90082E084BD93E095BDBE
:1059F0009AEF97BD80936E0084EF0E941D0785EF9C
:105A00000E941D0786EF0E941D0787EF0E941D0759
:105A100081E90E941D0780E90E941D0784E90E9418
:105A20001D0786E60E941D0784E0EBE9F9E0DF012F
:105A3000282F1D922A95E9F7E2E9F9E0DF011D928E
:105A40008A95E9F790E080E00E94FB30883E9E4F07
:105A500011F00E942A1682E090E00E94ED308093BF
:105A60009F090E943F139093DD098093DC0983E036
:105A700090E00E94ED30682F70E090E080E00E949E
:105A80000A10209A289A559A5D9A8CE090E00E941C
:105A9000ED30482F50E070E060E04093C90950932A
:105AA000CA096093CB097093CC091092C509811182
:105AB00077C180919A09811136C090E080E00E9400
:105AC000FB30883E9E4F21F00E942A160E94CA0D8C
:105AD00088E090E00E94F5306093C0097093C1099E
