:100000000C9439030C9456030C9456030C94560329
:100010000C9456030C9456030C9456030C945603FC
:100020000C9456030C9456030C945A240C941624E6
:100030000C9457250C9456030C9456030C945603B9
:100040000C9456030C9456030C9456030C945603CC
:100050000C9456030C9433250C9456030C945603BD
:100060000C9456030C9456030C9456030C945603AC
:100070000C9456030C9456030C9456030C9456039C
:100080000C9456030C9456030C9456030C9456038C
:100090000C9456030C9456030C9456030C9456037C
:1000A0000C9456030C9456030C9456030000000065
:1000B0000000000000000000000000000000000040
:1000C0000000000000000000000000000000000030
:1000D0007E0F00D4FFFFFFC7000000780000000083
:1000E000000000002A2B2800000000000000000093
:1000F0000000000000000029000000002C1E342039
:10010000212224342627252E362D3738271E1F205E
:100110002122232425263333362E37381F040506A3
:100120000708090A0B0C0D0E0F10111213141516E7
:100130001718191A1B1C1D2F3130232D35040506E5
:100140000708090A0B0C0D0E0F10111213141516C7
:100150001718191A1B1C1D2F3130354CB18300574D
:10016000B583B783B9831957BD83BF83C183C48364
:1001700006570757065204510151025160A21DA2B1
:1001800064A20A5711A20E57105702A2D2A1145707
:1001900000A2AC800000000001510351B28301575E
:1001A000B6830257BA83BC83035704570557C583E8
:1001B000C7830857000005510351025148A261A2AC
:1001C00065A209570FA20F5792A107A2D4A11557F4
:1001D0001657175700000000035103510283038391
:1001E000D7A00C572AA2115712571357C5A2185758
:1001F000B080000000000451000005510C8304830E
:100200000B570D5729A205A216A206AA2FAA25A2AE
:100210001EA200000000055100000551B1830057E7
:10022000B583B783B9831957BD83BF83C183C483A3
:100230000657075700520A510751085160A21DA2E4
:1002400064A20A57B35D1D571F5702A2D2A11457CB
:1002500000A2AC800000000007510951B283015791
:10026000B6830257BA83BC83035704570557C58327
:10027000C783085700000B510951085148A261A2D9
:1002800065A20957B45D1E5792A107A2D4A11557C4
:10029000165717570000000009510951AE5DB05DB7
:1002A000B25D1B57B55D115712571357C5A21857AA
:1002B000B080B75D00000A5100000B51AF5DB15D29
:1002C0001A571C57B65D05A216A206AA2FAA25A288
:1002D0001EA2000000000B5100000B5100047F3FE4
:1002E0001F643214643214783C1E1E140A05000187
:1002F00001010101010101010202020202020202E6
:1003000002030303030303030304040404040404B7
:10031000050505050506060606060707070707087B
:10032000080808090909090A0A0A0B0B0B0C0C0C2E
:100330000D0D0D0E0E0E0F0F0F10101111111212C8
:1003400013131414151516161717181819191A1A45
:100350001B1B1C1D1D1E1E1F2020212222232424A6
:10036000252626272829292A2B2C2D2D2E2F3031E2
:100370003232333435363738393A3B3C3D3E3F40F4
:100380004142434445464748494A4C4D4E4F5051DF
:100390005354555658595A5B5D5E5F616264656699
:1003A00068696B6C6D6F7072737577787A7B7D7E20
:1003B0008082838587888A8C8E8F91939596989A70
:1003C0009C9EA0A2A3A5A7A9ABADAFB1B3B5B7BA88
:1003D000BCBEC0C2C4C6C9CBCDCFD1D4D6D8DBDD5C
:1003E000DFE2E4E7E9EBEEF0F3F5F8FAFDFFFFAA50
:1003F0007F55402223252628292A2C2D2F303233C1
:100400003536383A3B3D3E4042434547494A4C4EDB
:100410005051535557595A5C5E6062646668696B07
:100420006D6F71737577797B7D7F81838587898A0D
:100430008C8E90929496989A9C9E9FA1A3A5A7A813
:10044000AAACAEAFB1B3B4B6B8B9BBBCBEBFC1C243
:10045000C3C5C6C7C9CACBCCCDCED0D1D2D2D3D4D6
:10046000D5D6D7D7D8D9D9DADADBDBDBDCDCDCDCF4
:10047000DCDDDDDDDDDCDCDCDCDCDBDBDBDADAD9C2
:10048000D9D8D7D7D6D5D4D3D2D2D1D0CECDCCCB44
:10049000CAC9C7C6C5C3C2C1BFBEBCBBB9B8B6B462
:1004A000B3B1AFAEACAAA8A7A5A3A19F9E9C9A98F2
:1004B000969492908E8C8A89878583817F7D7B79C3
:1004C000777573716F6D6B6968666462605E5C5AA4
:1004D0005957555351504E4C4A4947454342403E67
:1004E0003D3B3A3836353332302F2D2C2A292826F9
:1004F00025232205010902A10185020901A10005A8
:1005000009190129081500250195087501810205C1
:1005100001093009311581257F9502750881060989
:10052000381581257F950175088106050C0A38026A
:100530001581257F950175088106C0C005010980D8
:10054000A101850319012AB700150126B7009501FD
:1005500075108100C0050C0901A101850419012A4B
:10056000A002150126A002950175108100C00501A9
:100570000906A1018506050719E029E715002501EF
:100580009508750181020507190029EF150025015D
:1005900095F0750181020508190129059505750178
:1005A0009102950175039101C005010906A101059C
:1005B0000719E029E71500250195087501810295C5
:1005C00001750881010507190029FF150026FF00A4
:1005D000950675088100050819012905950575011D
:1005E0009102950175039101C009023B00020100CF
:1005F000A0FA090400000103010100092111010012
:1006000001224000070581030800010904010001DF
:100610000300000009211101000122B60007058234
:100620000320000112010002000000080000610127
:1006300001000102000114034D0061007400680014
:1006400062006F00610072006400000020034D0032
:10065000610067006E00650020004C0061007500BD
:100660007200690074007A0065006E0000000403E7
:10067000090411241FBECFEFDAE0DEBFCDBF15E0C5
:10068000A0E0B1E0E4E9F4E502C005900D92A03DE0
:10069000B107D9F726E0A0EDB5E001C01D92AF3D4E
:1006A000B207E1F70E947E250C94282A0C940000E2
:1006B000E8EDF0E080818E7F80831092E20010925E
:1006C000DA001092E100A0EEB0E08C9181608C9392
:1006D00080818F77808319BCA7EDB0E08C918E7FED
:1006E0008C9380818F7E80831092AD060895209137
:1006F000E4003091E50095E6A9012091EC00822FFD
:10070000817020FF06C08091E80080FF06C080E075
:1007100008952091E80022FD1AC08091D206882316
:1007200089F0853089F08091EB0085FD0FC0209124
:10073000E4003091E50042175307F9F29150E1F6D9
:1007400084E0089582E0089583E0089581E00895AB
:10075000EF92FF920F931F93CF937C018B010E9426
:100760007703C82F811117C08091E80085FD0BC069
:100770008091E8008E778093E8000E9477038823B9
:1007800099F3C82F08C0F70181917F018093F10090
:100790000150110949F78C2FCF911F910F91FF90B4
:1007A000EF9008958091D40687FF13C08091E800F0
:1007B00082FF06C08091E8008B778093E80004C038
:1007C0008091D2068111F2CF08958091D2068823BC
:1007D000D9F38091E80080FFF8CF8091E8008E7710
:1007E000ECCF982F9093E900242F762F50E08917B3
:1007F00031F07091EC002091ED005091F00021FD5E
:1008000007C09F5F973071F78093E90081E00895FA
:100810003091EB003E7F3093EB003091ED003D7F57
:100820003093ED003091EB0031603093EB0070932A
:10083000EC002093ED005093F0002091EE0027FD96
:10084000E0CF80E00895B0E0A0E0E9E2F4E00C94AD
:100850009929C8EDD0E088818F7E8883E7EDF0E0AC
:1008600080818160808384E082BF81E08093AD06D7
:1008700088818E7F888302EE10E0F801108210924A
:10088000DA0081EEC82ED12CF601108288818F7794
:10089000888388818068888388818F7D888319BC5C
:1008A0001092D2061092D3061092D1061092D00662
:1008B00090EEE92EF12CF70180818B7F8083888177
:1008C0008160888342E060E080E00E94F103F601ED
:1008D00080818E7F8083F801808181608083808128
:1008E00088608083F70180818E7F8083888180612A
:1008F0008883CDB7DEB7E8E00C94B529FC01809180
:10090000DA069091DB0686179707A0F0611571054E
:1009100029F49091E8009E779093E80090E06115AB
:10092000710551F4911108C08091E80082FF34C034
:1009300080E00895BC01F2CF8091D2068823C1F1F6
:100940008530C1F18091E80083FD30C08091E800DE
:1009500082FDEACF8091E80080FFE1CF8091F30033
:100960002091F200382F6115710519F028303105FA
:1009700058F091E02830310509F090E02091E8002E
:100980002E772093E800CBCF81918093F1006150C6
:1009900071092F5F3F4FE7CF8091D206882341F046
:1009A000853041F08091E80083FFBECF81E008955B
:1009B00082E0089583E0089508958091AF06089538
:1009C0009C014FB7F8948091A4069091A506A09140
:1009D000A606B091A7064FBF821B930B08952FB7B1
:1009E000F8948091A4069091A506A091A606B091D6
:1009F000A7062FBF08952091DC032223C9F0209180
:100A0000A80627FF15C0E62FE695E695E695EE3198
:100A1000D8F4E80FF92FF11D677021E030E001C034
:100A2000220F6A95EAF72095828128232283089570
:100A3000FC01329608962191621303C0DF011197E1
:100A40001C92E817F907B9F708952091DC032223D7
:100A5000C1F02091A80627FF14C0E62FE695E69581
:100A6000E695EE31F8F4E80FF92FF11D677021E0FB
:100A700030E001C0220F6A95EAF78281822B8283DF
:100A80000895FC0132962FEF30E04191641751F048
:100A90002F3F19F4411101C0232F3F5F3630A9F7D2
:100AA0002F3F09F40895820F911D27FD9A95FC01AF
:100AB000628308952091A1063091A2062817390774
:100AC00071F09093A2068093A106E0919F06F091A9
:100AD000A006309721F00084F185E02D0995089556
:100AE00020919D0630919E062817390771F090934A
:100AF0009E0680939D06E0919F06F091A006309798
:100B000021F00680F781E02D09950895E0919F0678
:100B1000F091A006309729F00190F081E02D099521
:100B2000089580E00895FA01811101C0FB01099543
:100B30000895089580918C06982F9E7F29F48170E6
:100B4000826080938C0608958A34E8F3817088640B
:100B5000F8CFAF92BF92DF92EF92FF920F931F9365
:100B6000CF93DF93082F162FE901E42FF0E0E25135
:100B7000FD4F611110C0E4915E2F4E2F4983E88331
:100B80005A83DF91CF911F910F91FF90EF90DF90EB
:100B9000BF90AF900895E62EF12C4491D42EE42F0F
:100BA000F0E026E0829FC00111242FEF30E0B90170
:100BB0000E940E29802F90E0880F991F55E5569FBF
:100BC000D001579FB00D11248A1B9B0B982F990FB2
:100BD000890F5901AE18BF08AE9ED001AF9EB00D6F
:100BE000BE9EB00D11245B2F189F80011124012F90
:100BF00011275901A01AB10AAE9E8001AF9E100DB7
:100C0000BE9E100D11245901A81AB108AE9CC00156
:100C1000AF9C900DBE9C900D1124892F9927281B05
:100C2000390B2E9FC0012F9F900D3E9F900D1124D8
:100C3000E92F62307105A1F050F46115710509F4D6
:100C40009DCF6130710581F0EB2F512F97CF64302C
:100C5000710569F080F06630710509F48FCFF4CF2B
:100C6000E42F4B2F592F8ACFE42F412F87CFEB2F23
:100C7000542F492F83CF4B2F5D2DE12F7FCF0E9423
:100C8000EF049C0190917A0680917B06982B21F0CD
:100C9000309377062093760690917C0680917D06AE
:100CA000982B21F03093750620937406E0919F06EF
:100CB000F091A006309749F082E080937806048096
:100CC000F581E02D88E796E00995089540917A0630
:100CD0008D3E59F480917B0687FF0DC010927B06F4
:100CE00041110BC01092720608C08E3E81F48091B3
:100CF0007B0618169CF3442381F080917C0690912A
:100D00007D06892B09F05AC01092710608958F3E16
:100D100049F447FFF0CF10927A0680917B0681114B
:100D2000ECCFE0CF803F19F41416ACF3E4CF9091F0
:100D30007C06893F29F41916F4F610927C06DBCF65
:100D40008A3F19F497FFD7CFF8CF90917D068B3F5C
:100D500029F497FFD0CF10927D06CDCF8C3F19F4A8
:100D60001916CCF3C8CF9FE0980F983090F4815FAC
:100D7000990B21E030E0B90102C0660F771F8A9518
:100D8000E2F7CB01809590917906892380937906CB
:100D9000B2CF8D3F31F4809173068E7F80937306BE
:100DA000AACF8E3F21F4809173068D7FF7CF8F3FBE
:100DB00009F0A1CF809173068B7FF0CF08958091C9
:100DC000730680FD16C081FD16C082FD16C080919D
:100DD00071068823A1F0883280F428E0829FC00148
:100DE000112468E270E00E942229862F672B39F0D7
:100DF000089582E0089584E0089588E0089581E0F0
:100E000008958091730680FD14C081FD14C082FD99
:100E100016C080917206882381F08E3180F420E51F
:100E2000829FC00111246EE170E00E942229862F6A
:100E3000089584E1089588E2089588E0089580E5A2
:100E400008958D3E31F40E940107819580937B06C1
:100E500008958E3E19F40E940107F8CF8F3E31F4B9
:100E60000E940107819580937A060895803F19F4C6
:100E70000E940107F8CF893F29F40E94DF06809382
:100E80007C0608958A3F21F40E94DF068195F7CF02
:100E90008B3F31F40E94DF06819580937D06089593
:100EA0008C3F19F40E94DF06F8CF9FE0980F98302E
:100EB00070F4815F990B21E030E001C0220F8A9528
:100EC000EAF780917906822B8093790608958D3F09
:100ED00031F48091730681608093730608958E3F8C
:100EE00021F4809173068260F7CF8F3FB9F780912C
:100EF00073068460F1CF80E00895F894E82FE295BE
:100F0000EF70F0E031A1282F2F7081E090E001C058
:100F1000880F2A95EAF7982F9095932391A392A191
:100F2000892B82A3789408959091A80692FF06C019
:100F3000282F28712830F9F4877F846093FF06C03A
:100F4000282F28712831F1F4877E84612091A90629
:100F500020FF06C0382F38713830D9F4877F816080
:100F600021FF06C0282F28712831D1F4877E8161A6
:100F700094FD877E0895282F24712430F9F68B7F05
:100F80008860DCCF282F2471243101F78B7E8861A3
:100F9000DDCF382F3171313019F78E7F8860E0CF87
:100FA000282F2171213121F78E7E8861E1CF7430A5
:100FB000A8F4643098F494E0899FF0011124E70FBD
:100FC000F11DEE0FFF1FEE0FFF1FE60FF11DEE0FDD
:100FD000FF1FE45AFE4F85919491089580E090E0C0
:100FE0000895CF93DF93EC0182389105A9F1D8F5EC
:100FF0008133910509F496C048F58932910509F4C9
:101000008AC08A9709F495C0C11521E5D20708F076
:10101000BCC0C11530E5D30708F014C1C83ED105E6
:1010200008F09CC0C03ED10560F5C83AD10508F073
:1010300087C0C53AD10508F0FDC0C130D10509F11E
:101040002097F9F0C430D105E0F440C08533910514
:1010500009F45AC0C997C1F68091A806837089F037
:10106000C0EED0E00EC0833E910599F170F4803E51
:10107000910501F1823E910539F68091A80682FD25
:1010800021C0CE01DF91CF910895863E910561F197
:10109000873E910571F1843E910509F0B5CF8091AD
:1010A000A90681FFEECF8091A806C7EED0E084FDAF
:1010B0000DC0E7CF8091A80680FD12C19091A906CE
:1010C00090FFDFCFC3EED0E084FFDBCFD0E0C0E005
:1010D000D8CF8091A80682FD06C19091A90690FD07
:1010E000BFCF84FFCECFF2CF8091A80683FDDDCFA6
:1010F000C8CF8091A80683FDF9C09091A90691FF01
:10110000F0CFC4EED0E0BDCF8091A80685FFB9CF67
:10111000C9E2D0E0B6CF8091A80685FFB2CFC5E383
:10112000D0E0AFCF8091A80686FFABCFCAE2D0E077
:10113000A8CF8091A80686FFA4CFC1E3D0E0A1CFBD
:10114000CF3BD10518F6C85AD0E0CC0FDD1FCB58E5
:10115000DA4F0990D881C02DD46493CFC11540E2F5
:10116000D40758F4C11581E0D80708F08ACFCD3EE6
:10117000D10508F4ABCFD06584CFC11590E4D90771
:1011800008F4A4CFDF70D06A7CCFC11525E5D20763
:1011900000F5C11534E5D30708F08AC0C11543E551
:1011A000D40708F071C0C11582E5D80708F467C0FC
:1011B000CE018370992721E030E002C0220F331F57
:1011C0008A95E2F7C695C69580E2C89FE001112492
:1011D00052C0C11599E5D907A8F4C11528E5D20771
:1011E00008F06BC0C11536E5D30708F06FCF8C2F20
:1011F0000E949407C82FD0E0DC2FCC27CC27DF71CA
:10120000D0623FCFC1154AE5D40708F45BC0CE01D8
:1012100090568115904208F059CF8D2F8F710E9402
:10122000940790E0982F882788279F719C012C2B8A
:10123000E901E6CFC55AD0E0CE58DA4FC881D0E0F8
:10124000D0641FCFCE01E4E096958795EA95E1F74B
:1012500083702C2F26952695237040E2249F9001C1
:101260001124382B8C2F8370C1E0D0E002C0CC0F4A
:10127000DD1F8A95E2F7C22BD32BDC6802CFDC2F6F
:10128000CC27C16FD06AFDCECE018370992721E0B3
:1012900030E002C0220F331F8A95E2F7C695C6954B
:1012A00090E2C99FE0011124C22BD32BDA68E9CE6A
:1012B000DC2FCC27C46FD06AE4CEDC2FCC27C06FE4
:1012C000D06ADFCE8C2F8F700E94940734E0D695C1
:1012D000C7953A95E1F7CF709C2FEC01D069D1CE3C
:1012E000C9E3D0E0CECEC2EED0E0CBCEC6EED0E0A9
:1012F000C8CE8091560681111092560608958095A9
:1013000090919B06982390939B06089580959091C9
:101310009C06982390939C060895809134069091A2
:101320000306981301C008958F5F8770FACFB0E06D
:10133000A0E0EDE9F9E00C9498298C01C0906206D8
:10134000D0906306E0906406F090650680915706A1
:1013500090915806A0915906B0915A06C82AD92AE8
:10136000EA2AFB2ACFE1D0E0BC2ED701C6010C2E21
:1013700004C0B695A795979587950A94D2F780FDF6
:1013800009C0219788F7B12C8B2DCDB7DEB7E9E0E6
:101390000C94B429B8018C2F0E94D7070E94F10742
:1013A000019779F3F1CFCF93DF93EC010E94970976
:1013B000BE010E94D7070E94F107DF91CF910895E7
:1013C000943088F5843078F544E0949F900111249E
:1013D000820F932F911D682F677023E09695879554
:1013E0002A95E1F725E0289FF001299FF00D1124AF
:1013F000ED50FA4F50E040E080E0219130E0062EC1
:1014000002C0369527950A94E2F721703327042EFF
:1014100001C0220F0A94EAF7822B4F5F5F4F4530DD
:10142000510559F7089580E008959430A8F5843067
:1014300098F544E0949F90011124820F932F911D01
:10144000282F277041E001C0440F2A95EAF723E0D6
:10145000969587952A95E1F725E0289FF001299F29
:10146000F00D1124ED50FA4F30E020E070E0519182
:10147000DF011197CB01022E02C0969587950A9441
:10148000E2F7817081958527842385278C932F5FD0
:101490003F4F2530310559F70895FC018081918136
:1014A0000E94D30992959F70963091F058F4925F04
:1014B0009F70923058F4803F19F030F4883E30F439
:1014C00081E008959A5FF4CF843FD1F380E00895DE
:1014D000883EB0F3813FD1F7F3CF809580FF05C000
:1014E000289A81FF04C05D9A08952898FACF5D98E4
:1014F00008958093AA067093AC066093AB06809122
:10150000D206843001F582E08093E9008FEF90915C
:10151000E800815095FD06C095ED9A95F1F7000021
:101520008111F5CF8091E80085FF0DC050E040E0CB
:1015300063E070E08AEA96E00E94A8038091E800E8
:101540008E778093E8000895BC0184E00E94790AB8
:101550000895BC0183E00E94790A08959C0182E00D
:101560008093E9009FEF8091E800915085FD06C0CF
:1015700085ED8A95F1F700009111F5CF8091E80093
:1015800085FF0CC050E040E066E070E0C9010E94B9
:10159000A8038091E8008E778093E8000895CF93A8
:1015A000DF93EC018091DC038823B1F18091A806E0
:1015B00087FF32C060E282E08093E9008FEF909174
:1015C000E800815095FD06C095ED9A95F1F7000071
:1015D0008111F5CF8091E80085FF1BC08091DC036D
:1015E00070E050E040E0811104C050E040E068E06D
:1015F00070E0CE010E94A8038091E8008E7780936E
:10160000E80080E2FE01A0EBB6E001900D928A9521
:10161000E1F7DF91CF91089568E081E0CDCF80912F
:101620008C0680FF27C0219A35B13D7F25B122600D
:101630004FB7F89489E896E0FC015191CF0168E03A
:1016400025B9000000C057FF35B9550F000000C094
:1016500000C000C035B900C06A9591F7F6E08C383B
:101660009F0751F74FBF8FE594E00197F1F700C056
:101670000000089510928A061092890610928B0637
:10168000D2CFCF93DF93EC0180918D0660918E06CF
:101690009C8129E836E040E0911102C040918F061C
:1016A0000E94A9050E940F0B8C8190E00196817029
:1016B00099278C83DF91CF9108958F929F92AF925B
:1016C000BF92CF92DF92EF92FF92CF93DF93EC0124
:1016D0004C81E42EF12C9701D7010E9466299B01D1
:1016E000AC010E947C294B015C01E0E2F0E0EE19C4
:1016F000FF09A5E5B0E0AC019B010E947C296B01CC
:101700007C019F01DF010E945E299B01AC010E94C8
:1017100087299B01AC01280D391D4A1D5B1DC7019E
:10172000B6010E943629922F30E09A3248F563E0E4
:10173000969FA001112455954795409529E836E0DC
:1017400060918E0685E5891B0E94A9050E940F0BFA
:101750009C8181E0992319F0903219F48FEF8093E6
:101760001B0180911B01890F8C83DF91CF91FF902A
:10177000EF90DF90CF90BF90AF909F908F900895A3
:1017800045E550E0BA01621B730B9B01AB01440FAE
:10179000551F420F531F57FFCECF4F5F5F4FCBCF29
:1017A00010928A061092890610928B068091870605
:1017B000181674F080911A0187FD0AC029E836E0F6
:1017C00040918F0660918E0680918D060E94A9053A
:1017D0000E940F0B8091190190918706980F9093AA
:1017E000870620911A01280F20931A01121614F46B
:1017F00097FD03C081958093190108950F931F935E
:10180000CF93DF93FC0182811FEF80FF11E01092E4
:101810008A061092890610928B06C4E0D0E000E0A0
:1018200080918606800F823024F487FD8F5F8111BE
:1018300013C080918F068C9FA0018D9F500D1124A5
:10184000559547955595479529E836E060918E0660
:1018500080918D060E94A905010F219709F70E942A
:101860000F0B113061F480918606882319F08150A6
:1018700080938606DF91CF911F910F91089510926A
:101880008606F8CFCF93DF93EC0129E836E040914C
:101890008F0660918E068C810E94A9050E940F0B15
:1018A0009A818C8190FF05C08F5F8C83DF91CF91EF
:1018B00008958150FACF90918C0690FF08C08093D4
:1018C0008A066093890640938B060E940F0B089549
:1018D000A3E0B0E0EEE6FCE00C949D298C01809141
:1018E000880681110AC09E012F5F3F4F4FEF6FEFB7
:1018F0000E94A9058A8180938806F801648161307D
:1019000069F08091880640E0662361F040E0623033
:1019100011F44091880680E060E004C06091880680
:1019200040E080E00E945B0CF801848190E0019629
:1019300063E070E00E94222984832396E4E00C9403
:10194000B929A3E0B0E0E7EAFCE00C949F2990916C
:101950008C0690FF0AC09E012F5F3F4F0E94A90591
:101960004B8169818A810E945B0C2396E2E00C9492
:10197000BB29CF93DF93EC01ECE8F6E04381628171
:101980008C810E94A10C8C818F5F8C83DF91CF9121
:101990000895CF93DF93EC01EC81F0E0ED50FC4F24
:1019A0004491ECE8F6E0628181810E94A10C8C8177
:1019B0008F5F8C83DF91CF9108951092910684E020
:1019C0008093950664E08CE090E00E94DA29089507
:1019D000CF92DF92EF92FF926B017C010E949A05F9
:1019E000B701A60188E090E00E94EC29FF90EF90FB
:1019F000DF90CF900895A3E0B0E0E1E0FDE00C942B
:101A00009B29082FF62E142FE22E90918C0690FF22
:101A100029C0E92FE695AE2FB0E0A555BA4F8C91BD
:101A2000809384069E7F923009F59E012F5F3F4F81
:101A3000802F0E94A9054B8169818A810E945B0CDD
:101A400000938D06F0928E0610938F06EE2051F0D3
:101A500060918C0670918D0680918E0690918F0614
:101A60000E94E80C2396E6E00C94B729823019F422
:101A700010918F06E5CF863019F400918D06E0CFE6
:101A80008930D9F38931E1F6E951E695F0E0E25188
:101A9000FC4FE49129E836E0802F0E94A9050E94BE
:101AA0000F0BCECFECE8F6E0438128E0421B08F4B0
:101AB00040E021E0628181810E94FB0C0895ECE806
:101AC000F6E0438128E0420F08F44FEF21E0628105
:101AD00081810E94FB0C0895ECE8F6E0628128E029
:101AE000621B08F460E021E0438181810E94FB0CCD
:101AF0000895ECE8F6E0628128E0620F08F46FEFE9
:101B000021E0438181810E94FB0C0895ECE8F6E01E
:101B1000818121E04381628188500E94FB0C0895FD
:101B2000ECE8F6E0818121E043816281885F0E94D8
:101B3000FB0C089580919006882319F081508093C2
:101B4000900660918C0670918D0680918E06909122
:101B50008F060E94E80C089580919006833018F457
:101B60008F5F8093900660918C0670918D068091B6
:101B70008E0690918F060E94E80C089590918C0635
:101B800090FF2CC0917081112AC0926090938C06B6
:101B9000662351F060918C0670918D0680918E06BF
:101BA00090918F060E94E80C60918C06669570E01B
:101BB0004BE050E08EE091E00E940E2A892BB1F0BC
:101BC0001092850681E08093810620E040918F0687
:101BD00060918E0680918D060E94FB0C08958532DF
:101BE00010F09864D3CF880F982BD0CF81E08093EA
:101BF00085060E94EF0490937F0680937E06E2CFD5
:101C000080918C068695815009F484E261E00E94FF
:101C1000BE0D089580918C0686958F5F853208F001
:101C200081E061E00E94BE0D089590918C0690FFC6
:101C300008C09695981728F0961718F40E940A0E77
:101C4000089561E00E94BE0D0895ECE8F6E083E09F
:101C5000808311828FEF82838383148260817181FC
:101C6000828193810E94E80C0895A4E0B0E0EBE348
:101C7000FEE00C94962919821A821B821C8283EA48
:101C8000E82E85E0F82E10E000E0CC24C394D12C9F
:101C90002BEAA22E25E0B22EF70181917F018F3F22
:101CA00009F445C0F894E82FE295EF70F0E021A127
:101CB0008F70A60102C0440F551F8A95E2F7CA0132
:101CC000922F982B91A392A18095892382A3789437
:101CD00000C0E7EAF5E0912C31E021912F3F09F4B3
:101CE0006BC0A22FA295AF70B0E090968C9190E05F
:101CF0002F7002C0959587952A95E2F780FD5CC00C
:101D0000832F982A330FAE16BF0639F7F7013197A4
:101D100080818F3F11F00E947D0750EA5A95F1F7BC
:101D2000E1E0F0E0EC0FFD1FE00FF11F90820F5F8C
:101D30001F4F0430110509F0AFCF44E050E0BE0161
:101D40006F5F7F4F8EE596E00E941B2A11E000979F
:101D500009F410E0892B91F189819A81AB81BC81D2
:101D600080935E0690935F06A0936006B093610631
:101D700081E080935D060E94EF0490935C0680935F
:101D80005B0680915B0690915C060E94E0040597DB
:101D9000C8F080915E068093670680915F0680930D
:101DA0006806809160068093690680916106809341
:101DB0006A0610925D0606C080E0A3CF80915D06A2
:101DC0008111DFCF812F2496EBE00C94B229809112
:101DD0009C0690919B06892B8093D2059091560684
:101DE0009923A1F0892B8093D2058091DC0388236D
:101DF000E1F18091A80687FF38C08EE1E4EDF5E0BF
:101E000090E08150A0F591110E94790940E250E0E4
:101E100066E376E082ED95E00E941B2A892B21F192
:101E200080E2E2EDF5E0A6E3B6E001900D928A953E
:101E3000E1F7E0919F06F091A0063097A9F080911C
:101E4000DC03882359F08091A80687FF07C08091A2
:101E5000D2058093D30586E08093D2050280F3817A
:101E6000E02D82ED95E00995089586E0C7CF219198
:101E7000222339F29F5FC5CFCF93DF93EC0181E03E
:101E8000898B80919C069F81892B80939C068091F1
:101E90009B069885892B80939B060E94E70EEA811A
:101EA000FB81309729F06C897D89CE0106960995D2
:101EB000DF91CF910895EF92FF920F931F93CF93ED
:101EC000DF93EC018A85811134C0EB80FC8087E5CB
:101ED000F81A26E12E9DC0012F9D900D1124DC01E2
:101EE000A45EBE4F1496ED91FC911597309731F09A
:101EF00054966D917C918E5D9E4F099586E18E9DE5
:101F000080018F9D100D1124045E1E4FF801878102
:101F10000E948609F80180850E947F090E94E70ED1
:101F2000188219861B861E821D8210929A061092B4
:101F30009906CDB7DEB7E6E00C94B72990E080E0D3
:101F40000E94700590E080E00E945A0510929B0666
:101F50000E94E70E86E0E8E7F6E0DF011D928A9531
:101F6000E9F71092720610927106109273060E94A1
:101F70003F0608956093620670936306809364063B
:101F8000909365060E949E0F08950F931F9341E062
:101F900050E060E070E004C0440F551F661F771FDB
:101FA0008A95D2F7CB01BA0160957095809590958E
:101FB00000916206109163062091640630916506D7
:101FC00060237123822393230E94BA0F1F910F91E4
:101FD0000895909135068095892380933506282FA2
:101FE000277091F4282F082E000C330B921713063C
:101FF00059F09091A90692FF07C085958595859522
:102000000E94C50F109235060895CF93C091A9067E
:10201000C2FB992790F9981791F080FBC2F9C09301
:10202000A9066091A80684E090E00E94DA296C2F4E
:1020300082E290E00E94DA2982E00E94E90FCF91CB
:1020400008950F931F9341E050E060E070E004C0FA
:10205000440F551F661F771F8A95D2F7809162063D
:1020600090916306A0916406B09165068A019B0178
:10207000082B192B2A2B3B2BC901B8010E94BA0F40
:102080001F910F910895609357067093580680939F
:10209000590690935A060E949E0F0895882321F0B6
:1020A0000E947F090E94E70E0895882339F09091DD
:1020B0009B06982B90939B060E94E70E0895882319
:1020C00021F00E9486090E94E70E0895882339F0C6
:1020D00090919C06982B90939C060E94E70E089581
:1020E000882391F19CEF980F913A40F4682F82ED8C
:1020F00095E00E94FB040E94E70E089590E2980F7D
:10210000983050F4877091E001C0990F8A95EAF7F2
:10211000892F0E948609EFCF9BE5980F933028F412
:1021200090E080E00E947005089598E5980F97313F
:1021300028F490E080E00E945A0508958D3E20F03A
:102140000E9466060E943F060895CF93C82F8823F9
:10215000D9F18CEF8C0F813AC8F58091DC0388238C
:1021600011F18091A80687FF1EC0EC2FE695E69539
:10217000E695F0E0EE52FA4F828190E04C2F4770E6
:1021800021E030E002C0220F331F4A95E2F782239C
:102190009323892B91F06C2F82ED95E00E94FB0434
:1021A0000E94E70E0AC0E4EDF5E08AED95E021918A
:1021B000C21789F38E179F07D1F76C2F82ED95E038
:1021C0000E9425050E94E70ECF91089580E28C0FB2
:1021D000883068F4C77021E030E001C0220FCA9552
:1021E000EAF780919C06822B80939C06EBCFEBE56F
:1021F000EC0FE33040F4F0E0EE58FA4F808190E0CD
:102200000E947005E1CFE8E5EC0FE73150F4F0E013
:10221000EE0FFF1FEB58FA4F808191810E945A0503
:10222000D3CFCD3E88F28C2F0E9421070E943F061B
:10223000CBCF1F93CF93DF93182FD0E0C0E089332B
:1022400011F4C0E5D0E0812F0E94A510209739F449
:10225000812F0E947010DF91CF911F9108958FE917
:102260009FE00197F1F700C000002197EFCF0F9397
:102270001F93CF93DF93C62FD42F022FFC018281AF
:102280008823A9F06093DE060E94EF049093DD0698
:102290008093DC06C77081E001C0880FCA95EAF719
:1022A0000E946610DF91CF911F910F910895809148
:1022B000DE06681332C08091DC069091DD060E9434
:1022C000E004883C910548F510E21D0FCD17B9F0E8
:1022D00080E28C0F883040F4C77081E001C0880F25
:1022E000CA95EAF70E945F10183048F481E09D2FEC
:1022F000977001C0880F9A95EAF70E946610802FA8
:102300000E941911183070F6D77081E001C0880F53
:10231000DA95EAF70E945F10C5CFC77081E001C06F
:10232000880FCA95EAF7F6CF80919506813079F04B
:10233000882349F08230B1F08430E9F08091920630
:1023400080939C06089582EE0E947010F7CF8CE275
:102350000E94191180919406882381F389E30E94D9
:102360001911ECCF82EE0E947010809193068111BA
:10237000E5CF83E5F4CF88E2F2CF0E94860586950B
:102380008170809394060E948605817080939306E5
:1023900080919506813039F480919406882319F054
:1023A00089E30E94191180919C06809392061092F5
:1023B0009C0610929B0680919506813089F08823B7
:1023C00059F08230D1F0843061F18FE39CE90197BC
:1023D000F1F700C00000089582EE0E94A510F5CF2D
:1023E00083E00E94551088E10E94A51088E10E94B8
:1023F000701083E00E944E10E8CF80919306811107
:1024000003C083E50E94191182EE0E94A5108FE39C
:102410009CE90197F1F700C0000087E50E941911BF
:10242000D4CF86EE0E94191188E1F8CFB0E0A0E089
:10243000ECE1F2E10C949A29E82FF0E0E452FF4F2E
:10244000D490282F26952695269530E0F901E4535F
:10245000FF4F0491877010E0082E02C01595079574
:102460000A94E2F701701127F901E454FF4FE49058
:10247000F12C082E02C0F594E7940A94E2F791E05B
:10248000E922FF24F901E455FF4FC491D0E002C0D6
:10249000D595C7958A95E2F7C170DD27011511051D
:1024A00019F081EE0E94A510E114F10419F086EEF6
:1024B0000E94A5108D2D0E941911E114F10419F04C
:1024C00086EE0E9470100115110519F081EE0E9430
:1024D0007010CD2B19F08CE20E941911CDB7DEB728
:1024E000E7E00C94B629EF92FF920F931F93CF93DE
:1024F000DF938C01CCE0D0E08AE0E82EF12CC8011B
:102500000C2E02C0969587950A94E2F78F709091F1
:1025100095069230B1F48A3090F490E00996B701B4
:102520000E942229875A0E9419112497CC3F8FEFCD
:10253000D80729F7CDB7DEB7E6E00C94B729865067
:10254000F2CF96EF980F963020F0805D0E94161221
:10255000ECCF895AFBCF0F931F93CF93DF93EA0100
:1025600028812150330B2617370714F030E020E084
:10257000220F331F280F391FF901008111810E949A
:10258000BD11C8010E9473120E949411CE010E94D5
:102590005B0FDF91CF911F910F910895A4E0B0E000
:1025A000E4EDF2E10C949F294091DD035091DE03AC
:1025B0006091DF037091E00349835A836B837C83CE
:1025C000AC0162E070E0CE0101960E94AB1224964D
:1025D000E2E00C94BB29A4E0B0E0E1EFF2E10C945E
:1025E0009F294091E1035091E2036091E3037091D0
:1025F000E40349835A836B837C83AC0162E070E01F
:10260000CE0101960E94AB122496E2E00C94BB2905
:10261000A4E0B0E0EEE0F3E10C949F294091E503E3
:102620005091E6036091E7037091E80349835A8370
:102630006B837C83AC0162E070E0CE0101960E9466
:10264000AB122496E2E00C94BB29A6E0B0E0EBE2EA
:10265000F3E10C949F29AC0196E0E9EEF3E0DE0192
:10266000119601900D929A95E1F763E070E0CE012A
:1026700001960E94AB122696E2E00C94BB29A4E0DE
:10268000B0E0E5E4F3E10C949F294091EF03509111
:10269000F0036091F1037091F20349835A836B83D5
:1026A0007C83AC0162E070E0CE0101960E94AB1227
:1026B0002496E2E00C94BB29A4E0B0E0E2E6F3E16A
:1026C0000C949F294091F3035091F4036091F5031A
:1026D0007091F60349835A836B837C83AC0162E07B
:1026E00070E0CE0101960E94AB122496E2E00C94B9
:1026F000BB29A4E0B0E0EFE7F3E10C949F294091FF
:10270000F7035091F8036091F9037091FA0349833C
:102710005A836B837C83AC0162E070E0CE0101964A
:102720000E94AB122496E2E00C94BB29A4E0B0E036
:10273000ECE9F3E10C949F294091FB035091FC03D9
:102740006091FD037091FE0349835A836B837C8300
:10275000AC0162E070E0CE0101960E94AB122496BB
:10276000E2E00C94BB29A6E0B0E0E9EBF3E10C94C5
:102770009F29AC0196E0EFEFF3E0DE0111960190A6
:102780000D929A95E1F763E070E0CE0101960E9408
:10279000AB122696E2E00C94BB29A6E0B0E0E3ED94
:1027A000F3E10C949F29AC0196E0E5E0F4E0DE0152
:1027B000119601900D929A95E1F763E070E0CE01D9
:1027C00001960E94AB122696E2E00C94BB29A6E08B
:1027D000B0E0EDEEF3E10C949F29AC0196E0EBE064
:1027E000F4E0DE01119601900D929A95E1F763E015
:1027F00070E0CE0101960E94AB122696E2E00C94A6
:10280000BB29ACE0B0E0E7E0F4E10C949F29AC0117
:102810009CE0E1E1F4E0DE01119601900D929A95C1
:10282000E1F766E070E0CE0101960E94AB122C96B3
:10283000E2E00C94BB29ACE0B0E0E1E2F4E10C94FE
:102840009F29AC019CE0EDE1F4E0DE0111960190DE
:102850000D929A95E1F766E070E0CE0101960E9434
:10286000AB122C96E2E00C94BB29A4E0B0E0EBE3C1
:10287000F4E10C949F294091290450912A0460911D
:102880002B0470912C0449835A836B837C83AC01A5
:1028900062E070E0CE0101960E94AB122496E2E065
:1028A0000C94BB29A4E0B0E0E8E5F4E10C949F2986
:1028B00040912D0450912E0460912F0470913004AA
:1028C00049835A836B837C83AC0162E070E0CE0164
:1028D00001960E94AB122496E2E00C94BB29A4E07E
:1028E000B0E0E5E7F4E10C949F2940913104509168
:1028F0003204609133047091340449835A836B83AA
:102900007C83AC0162E070E0CE0101960E94AB12C4
:102910002496E2E00C94BB29A4E0B0E0E2E9F4E103
:102920000C949F29409135045091360460913704EE
:102930007091380449835A836B837C83AC0162E0D5
:1029400070E0CE0101960E94AB122496E2E00C9456
:10295000BB29A4E0B0E0EFEAF4E10C949F29409198
:10296000390450913A0460913B0470913C044983CE
:102970005A836B837C83AC0162E070E0CE010196E8
:102980000E94AB122496E2E00C94BB29A4E0B0E0D4
:10299000ECECF4E10C949F2940913D0450913E04ED
:1029A00060913F047091400449835A836B837C8318
:1029B000AC0162E070E0CE0101960E94AB12249659
:1029C000E2E00C94BB29A4E0B0E0E9EEF4E10C9461
:1029D0009F294091410450914204609143047091B9
:1029E000440449835A836B837C83AC0162E070E0CA
:1029F000CE0101960E94AB122496E2E00C94BB2912
:102A0000A4E0B0E0E6E0F5E10C949F294091450494
:102A100050914604609147047091480449835A8359
:102A20006B837C83AC0162E070E0CE0101960E9472
:102A3000AB122496E2E00C94BB29A4E0B0E0E3E200
:102A4000F5E10C949F294091490450914A0460910A
:102A50004B0470914C0449835A836B837C83AC0193
:102A600062E070E0CE0101960E94AB122496E2E093
:102A70000C94BB29A4E0B0E0E0E4F5E10C949F29BC
:102A800040914D0450914E0460914F047091500458
:102A900049835A836B837C83AC0162E070E0CE0192
:102AA00001960E94AB122496E2E00C94BB29A4E0AC
:102AB000B0E0EDE5F5E10C949F294091510450916F
:102AC0005204609153047091540449835A836B8378
:102AD0007C83AC0162E070E0CE0101960E94AB12F3
:102AE0002496E2E00C94BB29A4E0B0E0EAE7F5E12B
:102AF0000C949F29409155045091560460915704BD
:102B00007091580449835A836B837C83AC0162E0E3
:102B100070E0CE0101960E94AB122496E2E00C9484
:102B2000BB29A4E0B0E0E7E9F5E10C949F294091CE
:102B3000590450915A0460915B0470915C0449837C
:102B40005A836B837C83AC0162E070E0CE01019616
:102B50000E94AB122496E2E00C94BB291F93CF9302
:102B6000DF93EC011AE08881882309F43EC08130AC
:102B7000C9F599818A81913029F422960E94191110
:102B80002196F1CF923021F422960E94A510F8CF21
:102B9000933021F422960E947010F2CF943011F0FD
:102BA0002196EECF229630E020E0AE014F5F5F4FDE
:102BB0008053990B8A30910550F02150310900F370
:102BC0008FE99FE00197F1F700C00000F6CF129F58
:102BD000B001139F700D11249C01260F371F8981AE
:102BE000EA01E3CF0E941612CBCFDF91CF911F9164
:102BF0000895282FCB01213069F0222329F02230BB
:102C000079F02330A1F008950E94AE158CE20E9465
:102C1000191108950E94AE158CE20E941911F6CF89
:102C20000E94AE158CE20E94191180E5F0CF0E943F
:102C3000AE158CE20E941911F5CFFA0120812150C6
:102C4000330B2617370714F030E020E0A901440FBA
:102C5000551F240F351F820F931FFC016081718166
:102C600082810E94F9150895A9E0B0E0EAE3F6E157
:102C70000C949F29209151053091520540915305A4
:102C800029833A834B8320914E0530914F05409123
:102C900050052C833D834E8320914B0530914C058C
:102CA00040914D052F8338874987AC0163E070E080
:102CB000CE0101960E941D162996E2E00C94BB29D4
:102CC000A9E0B0E0E6E6F6E10C949F2920914805E2
:102CD0003091490540914A0529833A834B832091DD
:102CE000450530914605409147052C833D834E8331
:102CF0002091420530914305409144052F83388748
:102D00004987AC0163E070E0CE0101960E941D1678
:102D10002996E2E00C94BB29A9E0B0E0E2E9F6E1F3
:102D20000C949F2920913F05309140054091410529
:102D300029833A834B8320913C0530913D05409196
:102D40003E052C833D834E832091390530913A0511
:102D500040913B052F8338874987AC0163E070E0E1
:102D6000CE0101960E941D162996E2E00C94BB2923
:102D7000A2E1B0E0EEEBF6E10C949F29209136053C
:102D8000309137054091380529833A834B83209150
:102D9000330530913405409135052C833D834E83B6
:102DA0002091300530913105409132052F833887CD
:102DB000498720912D0530912E0540912F052A87B6
:102DC0003B874C8720912A0530912B0540912C059B
:102DD0002D873E874F872091270530912805409108
:102DE0002905288B398B4A8BAC0166E070E0CE0157
:102DF00001960E941D166296E2E00C94BB29A2E1A6
:102E0000B0E0E5E0F7E10C949F2920912405309192
:102E100025054091260529833A834B83209121057E
:102E200030912205409123052C833D834E832091D0
:102E30001E0530911F05409120052F833887498753
:102E400020911B0530911C0540911D052A873B8769
:102E50004C87209118053091190540911A052D874E
:102E60003E874F8720911505309116054091170533
:102E7000288B398B4A8BAC0166E070E0CE0101965D
:102E80000E941D166296E2E00C94BB29A6E0B0E019
:102E9000ECE4F7E10C949F29209112053091130581
:102EA0004091140529833A834B8320910F0530917B
:102EB0001005409111052C833D834E83AC0162E0E7
:102EC00070E0CE0101960E941D162696E2E00C9459
:102ED000BB29FA01928191110E94F9150895CF93AF
:102EE00084E090E00E94C629C82F82E290E00E9410
:102EF000C629982F8C2FCF91089510929C0680910F
:102F0000DC03E4EDF5E0882361F08091A80687FFFB
:102F100008C08EE1DF011D928A95E9F70E949E0F9D
:102F2000089586E0F7CFAAE2B0E0E9E9F7E10C9472
:102F30009E2984ED96E02091F100FC012193CF01C0
:102F4000F6E08C3D9F07B9F78091D506833009F4F0
:102F500070C0B8F4813009F447C0823009F4B1C0C0
:102F60008091E80083FF7EC28091D4069091D506BF
:102F70009A3008F077C2E92FF0E0E65DF54D0C9449
:102F800058298A3009F48CC08B3009F46FC089301D
:102F900039F78091D406813219F78091D806909143
:102FA000D9060297E8F68091E800877F8093E800D1
:102FB0008091E80082FF38C09091F3008091F20088
:102FC000029731F48091F100813011F0863021F4C4
:102FD0008091F1008093AF068091E8008B77809319
:102FE000E8000E94D203BCCF8091D406813A09F058
:102FF000B7CF8091E800877F8093E8008091D80662
:103000009091D906892B61F460E280EB96E070E044
:103010000E947E048091E8008B778093E800A0CF27
:1030200060E090E080E0F3CF8091D2068111C0CFC4
:1030300097CF8091D406813A09F092CF8091D8063B
:103040009091D906892B09F08BCF8091E800877F7A
:103050008093E8008091E80080FFFCCF8091DC0342
:103060008093F1008091E8008E77B9CF8091D406EB
:10307000813209F075CF8091D8069091D906892BBD
:1030800009F06ECF8091E800877F8093E8000E946E
:10309000D2038091D6068093DC030E947D1760CF17
:1030A0008091D406813209F05BCF8091E800877F60
:1030B0008093E8000E94D2038091D7068093AE06E9
:1030C0004FCF8091D406813A09F04ACF8091E80031
:1030D000877F8093E8008091E80080FFFCCF80919B
:1030E000AE06BECF803899F0823809F0BBC180911E
:1030F000D8068F70873008F0B5C18093E9008091C1
:10310000EB0085FB882780F91092E90006C08091CA
:10311000D0069091D106911182609091E800977F3E
:103120009093E8008093F1001092F1008091E80004
:103130008E7794C1882309F482C1823009F092C14C
:103140008091D606811185C18091D8068F702FEFAE
:10315000280F263008F086C18093E9002091EB000B
:1031600020FF77C1933031F48091EB00806280932F
:10317000EB006FC19091EB0090619093EB0021E028
:1031800030E001C0220F8A95EAF72093EA001092FE
:10319000EA008091EB008860EACF811163C1109151
:1031A000D6061F778091E3008078812B8093E3001F
:1031B0008091E800877F8093E8000E94D20380918D
:1031C000E80080FFFCCF8091E30080688093E300FB
:1031D00082E0111183E08093D20644C1805882308E
:1031E00008F040C18091D6069091D7068C3D23E02F
:1031F0009207A1F583E08A838AE289834FB7F89426
:10320000DE01139620E03EE051E2E32FF0E0509320
:103210005700E49120FF03C0E295EF703F5FEF702D
:103220008E2F90E0EA30C0F0C7968D939D932F5F6C
:10323000243159F74FBF8091E800877F8093E800E1
:103240006AE270E0CE0101960E947E048091E8005F
:103250008B778093E80006C1C096E7CF4091D806EF
:103260005091D906292F33272330310509F444C062
:1032700078F52130310509F46FC08BE390E0E9EE79
:10328000F5E02230310509F0EDC02091E800277FFC
:103290002093E8002091DA063091DB06821793072D
:1032A00008F49C0140E02115310509F064C041118A
:1032B00062C08091E80082FDC9CF8091D206882348
:1032C00029F2853019F28091E80083FFF2CFBECF5A
:1032D00021323105A9F12232310509F0C3C041156F
:1032E000510509F443C04130510509F0BBC086EBDC
:1032F00090E0E3EFF4E0C9CF992781309105C1F068
:10330000009759F0029709F0ADC0E6E3F6E0E491CA
:103310008E2F90E0E6E3F6E007C0EEE6F6E0E491FB
:103320008E2F90E0EEE6F6E0009709F49BC0ADCF5B
:10333000ECE4F6E0E4918E2F90E0ECE4F6E0F4CFDC
:103340004115510571F04130510509F08BC089E0FC
:1033500090E0E4E1F6E099CF82E190E0E4E2F6E08B
:1033600094CF89E090E0EBEFF5E08FCF80E490E040
:10337000E9EAF5E08ACF8091D206882309F466CF86
:10338000853009F463CF8091E80083FD5FCF8091A1
:10339000E80082FD8ECF8091E80080FF84CF90917D
:1033A000F3008091F2002115310519F08830910564
:1033B00050F041E0089709F040E08091E8008E77F6
:1033C0008093E80070CF44914093F10031962150F2
:1033D00031090196E8CF803809F044C08091E800B7
:1033E000877F8093E8008091D3068093F1009ECE82
:1033F000811138C01091D6061230A0F58091E800F6
:10340000877F8093E8001093D3060E94D203112394
:1034100011F084E005C08091E30087FDFACF81E0E0
:103420008093D20642E061EC81E00E94F10342E227
:1034300061EC82E00E94F1038091D20613C080917A
:10344000D606813079F481E0933009F080E08093F2
:10345000D1061092E9008091E800877F8093E80010
:103460000E94D2038091E80083FF0AC08091E800A7
:10347000877F8093E8008091EB0080628093EB006F
:10348000AA96E3E00C94BA290E947D172FEF84E3FB
:103490009CE0215080409040E1F700C0000088E1AE
:1034A0009AE00FB6F894A895809360000FBE9093B1
:1034B0006000FFCF68EE7EEF90E080E00E94F82988
:1034C00060E082E090E00E94DA2960E083E090E032
:1034D0000E94DA2910925706109258061092590647
:1034E00010925A0660E084E090E00E94DA2964E0DD
:1034F00082E290E00E94DA2960E085E090E00E949C
:10350000DA2960E086E090E00E94DA296FEF87E038
:1035100090E00E94DA2940E050E0BA0188E090E0B3
:103520000E94EC2960E08DE090E00E94DA2940E002
:1035300050E0BA0188E190E00E94EC2960E087E168
:1035400090E00E94DA2940E050E0BA018CE190E07E
:103550000E94EC2970E060E080E290E00E94F8298F
:1035600040E050E0BA0188E190E00E94EC2940E0A0
:1035700050E0BA018FE090E00E94EC2940E050E07A
:10358000BA0183E190E00E94EC290895A5E0B0E043
:10359000ECECFAE10C9491297C01DC0113968D91FD
:1035A0009C911497892B39F08C9111969C918923C9
:1035B0008F3F09F025C62596E0E10C94AD290E94C5
:1035C0009709182F682F89819A810E94150A6981AD
:1035D0007A81812F0E94D7078C01F70182818111A6
:1035E0000BC0F801EE5AFD45EA30F10508F04CC079
:1035F000EC5CF54D0C94582980910C0190910D01D3
:10360000019679F34CE1C42E41E0D42EB12CA12CCB
:103610009924939480910C0190910D018A159B053A
:1036200004F3D60116968C9116978823E9F0199623
:103630008D919C918017910739F480919906909112
:103640009A068017910781F0F60197861487038701
:103650008189811103C0C6010E943C0FC6010696F4
:103660000E945B0F10929B06FFEFAF1ABF0A26E184
:10367000C20ED11CCFCF60916F0570917005809103
:103680007105A7010E946917C80197558F3F9105E1
:1036900011F008F048C020910C0130910D0128175D
:1036A000390724F490930D0180930C01D7011296F1
:1036B0002C91129736E1389F5001399FB00C11249C
:1036C000F501E45EFE4F6F01208B12969C9186817E
:1036D000992309F4DAC0128701878F5F86830E94DD
:1036E000EF04D6011E969C938E931D9780915606EB
:1036F00017968C93179780919B0690919C06892B27
:1037000018968C931897ED91FC911197309739F09A
:1037100054966D917C91C5018E5D9E4F09951093D5
:103720009A0600939906D70112968C91882379F016
:1037300080919C068272013EBCE51B0709F4C4C05F
:1037400008F0B0C0003EFCE51F0709F4B9C017FF40
:10375000C1C0D70112968C91882341F00E94BD11FF
:10376000C8019F770E9473120E949411F701828111
:10377000882309F458C51092DE060430FDE51F07C2
:1037800008F0F4C00B3F2CE5120730F4C80182505A
:103790009C45449708F0F4C00E946F179093A906C7
:1037A0008093A80601319CE5190709F4C6C108F009
:1037B00040C10930BCE51B0709F4ADC108F00BC1DD
:1037C0000530FCE51F0709F49EC108F0F0C0033086
:1037D0003CE5130709F48DC108F091C18091A8065A
:1037E000816002309CE5190709F486C16091A80642
:1037F0001091A90684E090E00E94DA29612F82E20C
:1038000090E00E94DA290E947D178AC060916C05C1
:1038100070916D0580916E0534CF6091690570914E
:103820006A0580916B052DCF6091660570916705E3
:103830008091680526CF6091630570916405809141
:1038400065051FCF609160057091610580916205EB
:1038500018CF60915D0570915E0580915F0511CF75
:1038600060915A0570915B0580915C050ACF60916B
:103870005705709158058091590503CF6091540503
:103880007091550580915605FCCE882309F44BCFE5
:103890008189882309F447CFC5018E5D9E4F0E9420
:1038A0005B0F41CF073E2CE5120708F050CF6EE1C9
:1038B000600F609395068CE090E00E94DA2947CF74
:1038C000811104C081E003C08111FCCF8FEF0E9401
:1038D000DD0C3DCF043FBCE51B07C9F188F4093D71
:1038E000FCE51F0781F10A3D2CE51207E1F1083DD7
:1038F0003CE5130709F03ACF26E241EE61EE0DC038
:10390000063F8CE5180759F130F127E245EE66EEE7
:10391000073FACE51A0709F029CFC7010E9437110C
:1039200080913506877009F446CED70112968C91A6
:10393000882309F440CE8091A90682FF3CCE82E024
:103940000E94E90F38CE27E245EE65EEE6CF26E28B
:1039500041EE60EEE2CF27E245EE64EEDECF26E2F6
:1039600041EE62EEDACF28E241E0EFCF02363DE5EC
:10397000130709F411CF063A8DE5180709F40CCFA7
:103980000631ACE51A0709F0F8C480919C068A7AE2
:1039900091E009F490E09093F20569E2811165E30A
:1039A00082ED95E00E9425050E94E70EB9CF809137
:1039B000A80680620730ACE51A0709F49DC0809123
:1039C000A80680610830BCE51B0708F495C080910B
:1039D000A806806491C08091A8068B7F0D30ECE52D
:1039E0001E0709F489C0A0F48091A8068E7F0B30D1
:1039F0002CE5120709F480C08091A8068C600C3079
:103A00003CE5130708F478C08091A8068D7F74C048
:103A10000F308CE5180709F48CC08091A806877FC9
:103A200000319CE5190708F467C08091A8068F7DD6
:103A300063C00E3FACE51A0709F477C058F50531AD
:103A4000ECE51E0709F483C098F48091A806837FF3
:103A500003312CE5120709F44FC008F472C00E942C
:103A60007D179091A806892F97FB87F9805844C04D
:103A70000C3F8CE5180709F44AC008F052C0809149
:103A8000A90681600B3FACE51A0709F0AFCE809321
:103A9000A906ACCE0230BDE51B0709F464C0C0F432
:103AA0008091A9068C7F0115FDE51F0781F38091A8
:103AB000A906836001302DE5120748F38091A9061D
:103AC000982F909591708E7F892B90FB81F9DFCF95
:103AD00002363DE5130709F44CC0063A8DE5180798
:103AE00009F44EC003309DE5190709F07FCE60E070
:103AF0003BC08091A80682608093A80677CE809113
:103B0000A8068460F9CF8091A8068860F5CF8091DF
:103B1000A9068260BCCF0E947D178091A8068068AC
:103B2000EBCF8091A9068E7FB2CF8091A9068D7FC1
:103B3000AECF8091A8068F7EDFCF8091A8068F7BC5
:103B4000DBCF0E947D178091A8068F77D5CF80911B
:103B5000A80682FB992790F921E0922790FB82F931
:103B600090FB83F9C9CF61E08EE090E00E94DA29F2
:103B70003DCE9091A806892F8F7E94FF8061BCCFA7
:103B80009091A806892F8E7F90FF8160B5CF80919C
:103B9000F20569E2811165E382ED95E00E94FB0484
:103BA00003CF816080938C0661E086950E94BE0DF4
:103BB000B7CE40E05EE06AE07EE00E949305B0CEC2
:103BC0004AE05EE060E07EE0F8CF40E95DE066E874
:103BD0007DE0F3CF4CE65DE069E77DE0EECF42E5C6
:103BE0005DE06FE57DE0E9CF4FE55DE062E57DE01A
:103BF000E4CF4CEA5DE06AE97DE0DFCF61E081E09F
:103C0000D5CF65E082E00E94150E8ACE68E086E09E
:103C1000FACF64E18FE0F7CF67E185E1F4CF62E2AC
:103C200089E1F1CF61E083E2C1CF0E947D172FEFE0
:103C300034E38CE0215030408040E1F700C00000C8
:103C400087E797E7909301088093000888E19AE05E
:103C50000FB6F894A895809360000FBE9093600013
:103C6000FFCF8091A90682FB882780F991E0892700
:103C70000E940510F701828100811181882309F4D7
:103C800048C0C8010E949709D82E682FC8010E9419
:103C9000150AB8018D2D0E94D7070E94F1078C01EB
:103CA000882ED7011296DC90129715969C909294CC
:103CB0003FE09322809135068770C1F0BD2CDD2056
:103CC000B1F0812F807F803421F080E2800F883036
:103CD00068F08091A90682FF09C082E00E94E90F86
:103CE000809135068770BB24B3948111B12CA12E2D
:103CF000A2942FE0A222BBE0BA1508F471C0EA2D0D
:103D0000F0E0E25CF54D0C94582981E0B1CF80E001
:103D1000AFCFC8010E94E009D82EBBCFE12FEF70D2
:103D2000CE2E107F19F0C29490EFC922DD20B9F099
:103D3000CC2069F080E2800F883010F0811009C03B
:103D400080919C06C82AC0929C060E94E70E802F94
:103D500045C080919B06C82AC0929B06F6CF802F53
:103D60000E947010CC20E1F1005E8C2D083010F024
:103D7000811003C00E94860902C00E947F090E9430
:103D8000E70E2EC0F12FFF70CF2E107F103219F0EA
:103D9000C29480EFC822882089F021E0821609F4BD
:103DA0007AC0DD2009F484C0992009F47AC0F701B3
:103DB000858180FFCCCF8F70858373C02091A90649
:103DC00022FD46C0DD20E9F1CC2039F080919C062F
:103DD000C82AC0929C060E94E70E80E00E94A510AF
:103DE000AA2DA850BB0B149720F40E9486050E94B0
:103DF0006D0ABB20A9F08091350680FD11C0F70146
:103E000012828595859585950E942110C7010E9493
:103E1000C61A809135068595859585950E94C50FB2
:103E200085E0F701DE01119601900D928A95E1F788
:103E300009811A81C8010E94E009B8010E94D707D0
:103E4000BACB80E00E947010CC2051F28C2D92CF22
:103E5000DD20A1F0909156068C2D892B911003C086
:103E60000E946610BDCF31E09312FACF22FFB8CF87
:103E7000981709F4B5CF80935606B2CF911006C0BB
:103E80000E9479098C2D0E945F10AACF81E09816BC
:103E900009F4A6CFF5CFDD2031F095E0991508F4AF
:103EA0009FCF8C2DDDCFA4E0A91508F499CFEACFE0
:103EB000992041F3F9E38F1209C02FEF37EE83E029
:103EC000215030408040E1F700C00000802F0E9468
:103ED000701086CF812F86958695837061F0813032
:103EE00009F07ECFC8019370D11002C090E080E04D
:103EF0000E945A0575CFC8019370D11002C090E09E
:103F000080E00E9470056CCF802FDD2029F00E9498
:103F100021070E943F0664CF0E946606FACF812FD8
:103F2000837009F066C0D1105BCF802F8295869593
:103F30008770880F880F602F6F70462E512C712C60
:103F4000612C082E04C0440C551C661C771C0A9476
:103F5000D2F740E050E0BA0104FF0FC04FE050E05C
:103F600060E070E004C0440F551F661F771F8A95FC
:103F7000D2F74095509560957095812F86958695DE
:103F80008370823019F1D8F40091570610915806C9
:103F90002091590630915A06813069F044295529FB
:103FA00066297729CB01BA016023712382239323E9
:103FB0000E94431015CF402A512A622A732ACB014E
:103FC000BA016429752986299729F2CF44295529F0
:103FD00066297729009157061091580620915906B5
:103FE00030915A06CB01BA016027712782279327A7
:103FF000DFCF8695DD2011F0812F8170882309F4B1
:10400000EFCE802F829586958770880F880F602F5E
:104010006F70462E512C712C612C082E04C0440C5C
:10402000551C661C771C0A94D2F740E050E0BA0198
:1040300004FF0FC04FE050E060E070E004C0440FA8
:10404000551F661F771F8A95D2F74095509560954A
:104050007095812F869586958370823019F1D8F4FA
:104060000091620610916306209164063091650606
:10407000813069F04429552966297729CB01BA0195
:1040800060237123822393230E94BA0FA9CE402A72
:10409000512A622A732ACB01BA016429752986291B
:1040A0009729F2CF4429552966297729009162067C
:1040B000109163062091640630916506CB01BA0128
:1040C0006027712782279327DFCF1F70DD2029F01B
:1040D000812F0E942110802FC3CE802F0E945F105D
:1040E000812F0E94C50F7CCE802F92EF891609F494
:1040F0003FC0981570F0A0EF8A16D1F0B1EF8B1683
:1041000091F0DD2009F46CC0911021CE812F8F71C8
:1041100033C0E3EF8E1699F1F4EF8F12F2CF809156
:10412000A90682FD3FC0812F8F71DD20D1F224C00E
:10413000DD20C9F024E0291508F452CE1F7161E09A
:1041400070E080E090E004C0660F771F881F991F21
:104150001A95D2F7009162061091630620916406C9
:1041600030916506ADCF35E0391508F439CEE6CF8C
:10417000812F8F71D110B5CF0E94211031CE60E018
:1041800070E0CB01DD2009F47FCF1F7161E070E0AA
:1041900080E090E004C0660F771F881F991F1A9572
:1041A000D2F772CFDD2089F01F71812F0E9421107C
:1041B0008091A90682FF07C0A8E01A9FC0011124C0
:1041C000836080933506812FD7CF81E00E94E90F6D
:1041D000B1E0B91508F004CE82E00E94E90F00CEEC
:1041E000992059F0893309F071CEEFEFF7EE23E013
:1041F000E150F0402040E1F767CE812F8F7171CF01
:1042000085E0F701DE01119601900D928A95E1F7A4
:10421000D70112962C9189819A812111D0C90E94CF
:10422000E009182FD4C90631BCE51B0709F4AFCC4F
:1042300080919C0682720D3CECE51E0709F4D9CCF6
:1042400008F063C0073C2CE5120709F4BECCC8F5A2
:10425000043C9CE5190709F4ACCC20F5033CBCE513
:104260001B0709F007CD80918C0680FF9ACC8E7FCA
:1042700080938C0660918C0670918D0680918E06DD
:1042800090918F060E94E80C10928506BFEFE0E740
:10429000F2E0B150E040F040E1F700C000000E94C1
:1042A0000F0B3ECB053CECE51E0709F489CC46E834
:1042B0005DE060E97DE0063CFCE51F0709F47DCC8C
:1042C000D9CC0A3C2CE5120709F489CC78F4083CD7
:1042D0009CE5190709F47ECC49E75DE06CE67DE0DA
:1042E000093CACE51A0709F468CCC4CC0B3CBCE52E
:1042F0001B0709F479CC4AE95DE06CEA7DE00C3CEF
:10430000ECE51E0709F459CCB5CC023DFCE51F07CE
:1043100009F47FCCA0F40F3C3CE5130709F471CC01
:1043200008F46CCC003D9CE5190709F46FCC6EE0F5
:1043300089E0013DACE51A0709F465CC9BCC053D4D
:10434000BCE51B0709F46BCC68F4033DFCE51F07D3
:1043500009F462CC61E088E1043D2CE5120709F420
:1043600025CC88CC063D3CE5130709F45BCC0E3523
:104370008DE5180709F4D4CA7DCC0B359DE51907E6
:1043800009F4C3CC68F40115BCE51B0709F44DCC56
:104390000F3D1C4509F06ECC0E945A1A0E94441A27
:1043A0000D35FDE51F0709F45CCC08F4B0CC083AE4
:1043B0001D45A1F35FCC1F93CF93DF93809102063D
:1043C000807F09F049C08091FF05882309F444C02B
:1043D00080913406D09103066091FD057091FE0531
:1043E000A0910006B0910106C62FC72316E0D8178A
:1043F00099F190E0109711F0CF3F19F40196877072
:10440000F6CF189F9001199F300D1124F901EC5F30
:10441000F94F41814713F2CF40814613EFCF4281DC
:104420004111ECCF438154814A1B5B0B483C510541
:1044300028F7809102068F70806180930206F9014F
:10444000E75FF94F80818F70806180838DEF95E009
:104450000E94C61A0E948D09DF91CF911F91089585
:10446000A1E1B0E0E6E3F2E20C9497298C0185E04B
:10447000F801DE011D9601900D928A95E1F7F80191
:10448000E2808DEFA82E85E0B82E60910006709135
:1044900001066115710509F426C19091FD05409151
:1044A000FE05892F84238F3F09F41DC120813181AE
:1044B000C380D480F090FF05F601E61BF70BFF20C8
:1044C00009F4DCC080910206582F507FE83CF105CA
:1044D00008F09FC051116BC0FE2C431314C09213FF
:1044E00012C0E11010C08F70806180930206C50178
:1044F0000E94C61A80910206F80185838F2D61966D
:10450000EAE00C94B329C114D10429F0822F83234B
:104510008F3F09F003C180E0F82FF170DF2E80FF9C
:104520003CC0809134064091030656E0841315C0C8
:104530002D873E878D859E850E94D309292F229540
:104540002F702230F0F0243018F59F70F1F0F80150
:104550009581907FD1F4D12C1EC090E0589FF0013E
:10456000599FF00D1124EC5FF94F6181361306C09D
:104570006081261303C06281E6120FC00196877026
:10458000D5CF9F7011F0882331F3805E883018F307
:10459000C8010E94C61AFD2CB1CFEE2009F4AECF9F
:1045A00080910206816080930206F12CA7CF43130D
:1045B00006C0921304C0F801EE2009F479C0C801C6
:1045C0000E944D0A882309F1EE20F9F0809102063D
:1045D000803270F02091FD053091FE0538872F83E1
:1045E0001986DB86CA868C87CE0107960E94C61A7A
:1045F00086E0F801ADEFB5E001900D928A95E1F704
:104600000E94DB21FF24F39479CFC8010E94C61ACF
:10461000F9CF51110AC08DEF95E00E94C61A86E0CD
:10462000F50111928A95E9F7C0CF43130FC0921399
:104630000DC0E1100BC0F8018583C8010E94C61AA5
:1046400086E0F50111928A95E9F758CFC8010E94DA
:104650004D0A8823D1F2EE20C1F280910206803209
:1046600038F22091FD053091FE053A8329831B82A3
:10467000DD82CC828E83CE010196B8CFE83CF10575
:10468000F8F6FE2CEE2009F243131FC092131DC052
:104690008091020680FD10C0982F907F69F0F8018C
:1046A0008583903F31F0982F907F905F8F70892B9A
:1046B0008583C8010E94C61A86E0F801ADEFB5E017
:1046C00001900D928A95E1F719CFC8010E944D0A19
:1046D00081118ECF80910206816080930206C8010D
:1046E0000E94C61A0BCFEE2009F48FCFC8010E949A
:1046F0004D0AF82E882309F488CF86E0F801ADEF43
:10470000B5E001900D928A95E1F78091FD059091B9
:10471000FE050E94D3090E94DB21F0CE81E08E25A8
:10472000FBCEA7E1B0E0E7E9F3E20C949E294B8BC6
:104730005C8B6D8B7E8B8F8B611110929B061A8A1E
:10474000198A85E0FE017396DE011D9601900D9297
:104750008A95E1F786E0FE013D96DE01179601900D
:104760000D928A95E1F7CE0107960E9430228823A8
:1047700059F016E08091340690910306891343C0E6
:104780006796E3E00C94BA2986E0FE013796DE01D5
:10479000119601900D928A95E1F78A859B85892B68
:1047A00041F38F81988589238F3F19F32091030668
:1047B00030E0C90101968770992740913406481767
:1047C000190671F40E947D171092030610923406A8
:1047D00086E0EDEFF5E0DF011D928A95E9F7C9CF9C
:1047E00096E0929FD001939FB00D1124AC5FB94F1A
:1047F000FE01319601900D929A95E1F780930306A0
:104800000E948D09B6CF819FC00111248C5F994F02
:104810000E943022882309F4B3CF8091340690E0BF
:1048200001968770992780933406A4CF1F920F9228
:104830000FB60F9211242F933F934F935F936F9373
:104840007F938F939F93AF93BF93CF93DF93EF9318
:10485000FF93D091E900DF708091EC00C82FC17008
:1048600080FDC0E81092E9008091F000877F80937E
:10487000F00078940E9493171092E9008091F00064
:1048800088608093F000CD2BCF70C093E900FF913A
:10489000EF91DF91CF91BF91AF919F918F917F91D8
:1048A0006F915F914F913F912F910F900FBE0F909D
:1048B0001F9018951F920F920FB60F9211242F93ED
:1048C0003F934F935F936F937F938F939F93AF9398
:1048D000BF93EF93FF938091E10082FF09C0809125
:1048E000E20082FF05C08091E1008B7F8093E100B0
:1048F0008091DA0080FF24C08091D80080FF20C022
:104900008091DA008E7F8093DA008091D90080FF59
:104910009DC080E189BD82E189BD09B400FEFDCF63
:1049200081E08093D2068091AD06811109C00E947A
:1049300058030E9423048091E20084608093E20087
:104940008091E10080FF17C08091E20080FF13C0DA
:104950008091E2008E7F8093E2008091E20080618E
:104960008093E2008091D80080628093D80019BCC7
:1049700085E08093D2068091E10084FF2BC0809176
:10498000E20084FF27C080E189BD82E189BD89B54D
:10499000982F917080FFFBCF8091D8008F7D8093FE
:1049A000D8008091E1008F7E8093E1008091E20049
:1049B0008F7E8093E2008091E20081608093E2002C
:1049C0008091D306882309F447C084E08093D206FF
:1049D0008091D2068091E10083FF27C08091E200A0
:1049E00083FF23C08091E100877F8093E10082E014
:1049F0008093D2061092D3068091E1008E7F80933F
:104A0000E1008091E2008E7F8093E2008091E200DD
:104A100080618093E20042E060E080E00E94F10368
:104A20008091F00088608093F000FF91EF91BF913A
:104A3000AF919F918F917F916F915F914F913F9136
:104A40002F910F900FBE0F901F90189519BC1092C8
:104A5000D2061092AD0674CF8091E30087FD93E0FB
:104A60009093D206B5CF78941F921FB61F9211244F
:104A70008F939F93AF93BF938091A4069091A506C7
:104A8000A091A606B091A7060196A11DB11D809325
:104A9000A4069093A506A093A606B093A706BF917F
:104AA000AF919F918F911F901FBE1F9018951F92DD
:104AB0001FB61F9211248F939F93AF93BF93809142
:104AC000A306811113C08091A4069091A506A09120
:104AD000A606B091A7064196A11DB11D8093A4061C
:104AE0009093A506A093A606B093A706BF91AF9199
:104AF0009F918F911F901FBE1F901895CDB7DEB765
:104B000060970FB6F894DEBF0FBECDBF85B7806843
:104B100085BF85B7806885BF84B7877F84BF0FB6A0
:104B2000F894A8958091600088618093600010924D
:104B300060000FBE80E890E00FB6F89480936100AB
:104B4000909361000FBE8BE797E09093D10580931F
:104B5000D0050E9458030E9423048091E2008460E3
:104B60008093E20078948091D2068823A1F010917E
:104B7000E9001F709091EC00892F817090FD80E812
:104B8000182B1092E9008091E80083FD0E94931792
:104B90001F701093E90082E084BD93E095BD9AEF09
:104BA00097BD80936E0084EF0E947D0785EF0E9481
:104BB0007D0786EF0E947D0787EF0E947D0781E9D0
:104BC0000E947D0780E90E947D0784E90E947D079D
:104BD00086E60E947D0784E0E7E6F6E0DF01282F05
:104BE0001D922A95E9F7EEE5F6E0DF011D928A9520
:104BF000E9F790E080E00E94D429883E9E4F11F0B2
:104C00000E945A1A82E090E00E94C62980936B06A7
:104C10000E946F179093A9068093A80683E090E006
:104C20000E94C629682F70E090E080E00E94431047
:104C3000209A289A559A5D9A8CE090E00E94C629A5
:104C4000482F50E070E060E0409395065093960640
:104C5000609397067093980610929106843009F03D
:104C600077C180916606811136C090E080E00E9495
:104C7000D429883E9E4F21F00E945A1A0E94250E88
:104C800088E090E00E94CE2960938C0670938D0698
:104C900080938E0690938F066E7F71F40E94250E8E
:104CA00088E090E00E94CE2960938C0670938D0678
:104CB00080938E0690938F060E949A051092850627
:104CC00080918C0680FF04C060E086950E94BE0D36
:104CD00081E08093660680E091E09093A006809347
:104CE0009F0618E1E12EF12C87E696E004E0D02E35
:104CF000D80E8091D206B0E4BB2E00E112E18530DF
:104D000009F45FC10E94350E882359F08FB7F894DB
:104D10004091A4065091A5066091A6067091A70641
:104D20008FBFA7E6B6E0ECE6F6E010E000E0302F3B
:104D30008D919191981709F455C1292F282790E05A
:104D4000BB24B394422F4B2109F447C19F8338877A
:104D50008B2191E009F490E099870E94EF04816033
:104D6000782F9B878A874F81588569858B850E941C
:104D70009123F801E459F94F8081B826B0828091DF
:104D80000C0190910D01B12CF6E1AF2E019609F0C6
:104D900076C18091850681117CC186E0E8E7F6E066
:104DA000DE01119601900D928A95E1F710927A0634
:104DB00010927B0610927C0610927D061B810C815E
:104DC000812F802B09F448C0809176069091770658
:104DD0000E94E0049C0190917206992309F419C283
:104DE00025313105C8F19F3F19F09F5F90937206FE
:104DF000112359F00E9401079FEF11160CF491E066
:104E0000899F802D112480937A06002359F00E94F7
:104E100001079FEF10160CF491E0899F802D11245B
:104E200080937B0630917A063323B1F020917B0684
:104E3000222391F045EB3403C0011124992309F496
:104E4000BDC190937A0645EB2403900111243323CE
:104E500009F4B8C130937B061D810E81812F802B10
:104E600009F448C080917406909175060E94E00490
:104E70009C0190917106992309F4C6C12135310531
:104E8000C8F19F3F19F09F5F90937106112359F06D
:104E90000E94DF069FEF11160CF491E0899F802D90
:104EA000112480937C06002359F00E94DF069FEFB7
:104EB00010160CF491E0899F802D112480937D06BB
:104EC00030917C063323B1F020917D06222391F0AE
:104ED00045EB3403C0011124992309F477C1909361
:104EE0007C0645EB240390011124332309F472C19D
:104EF00030937D0646E050E0BE016F5F7F4F88E74C
:104F000096E00E941B2A892B61F480917A06909189
:104F10007B06892B90917C06892B90917D06892BAD
:104F200011F00E943F0686E0FE013196A8E7B6E048
:104F300001900D928A95E1F70E9486059091700686
:104F4000891709F4D6CE809370060E946D0AD1CEDF
:104F500084E08093950685CE8091D206843021F13D
:104F600080E00E946D0A1092A3060FB6F894A895EF
:104F7000E09260000FBEB092600083B7817F8460D2
:104F800083BF83B7816083BF7894889583B78E7F12
:104F900083BF0FB6F894A8958091600088618093D4
:104FA0006000109260000FBE8091D106882349F006
:104FB0000E94350EE7E6F6E0819181110FC1DE1205
:104FC000FBCF8091D206853009F4C6CF0E947D17B1
:104FD0000E9486050E946D0A95CE9F5FBB0C94309F
:104FE00009F0B0CE0F5F1F4F0430110509F09FCEBE
:104FF0008FEF8C878D871E860E94EF048160782F4B
:10500000988B8F874C855D856E8588890E9491235A
:10501000B6CEA89EF001A99EF00D1124E45EFE4FCD
:10502000828893888114910419F4A8EC8A2E912C1B
:10503000A89E8001A99E100D1124045E1E4FD80168
:1050400016968C9116978823C9F01D968D919C9188
:105050000E94E0048816990688F4BA9C4001112445
:10506000F8018189811105C0C401845E9E4F0E94B0
:105070003C0FC4018E5D9E4F0E945B0FB3948B2D3D
:1050800090E020910C0130910D01281739070CF6A2
:1050900080CE80918406E0918C06E695E81BE09333
:1050A0008006823089F5F0E0E651FD4FE4910E2F45
:1050B00010E0E9ECAE2EECE0BE2E80918106882354
:1050C00061F0109281060E94EF0490937F06809316
:1050D0007E0610928306109282060E94EF04E091F1
:1050E0007E06F0917F068E1B9F0B8F3F9F4708F037
:1050F00054CEE00FF11FF0937F06E0937E068EE71B
:1051000096E0F501099549CE863059F4F0E0E95171
:10511000FD4FE4910E2F10E079EBA72E7CE0B72E27
:10512000CCCF893061F4E695F0E0EC51FD4FE4918D
:105130000E2F10E062E4A62E6CE0B62EBECF8F30AC
:1051400061F4E695F0E0EF51FD4FE4910E2F10E091
:105150005EEFA52E5BE0B52EB0CF853159F4F0E0BF
:10516000E252FD4FE4910E2F10E040EDA42E4BE0F3
:10517000B42EA3CF08E210E09DE5A92E9BE0B92E46
:10518000883109F49ACF833249F4ECEDF2E00591CD
:10519000149138E6A32E3CE0B32E8FCF04EF11E03C
:1051A00021E4A22E2BE0B22E843209F486CF00ED4A
:1051B00017E089E9A82E85E0B82E7FCF81E08093A3
:1051C0007A0641CE81E080937B0646CE81E08093D3
:1051D0007C0687CE81E080937D068CCE09BD19BD0B
:1051E00009B400FEFDCF8091D8008F7D8093D80058
:1051F0008091E00082608093E0008091E00081FD7A
:10520000FCCF0E947D17DDCE2B30310508F03BCE60
:1052100071CE2B30310508F0E8CD1ECEAA1BBB1B8A
:1052200051E107C0AA1FBB1FA617B70710F0A61BA6
:10523000B70B881F991F5A95A9F780959095BC01C7
:10524000CD01089597FB072E16F4009407D077FD43
:1052500009D00E940E2907FC05D03EF49095819557
:105260009F4F0895709561957F4F0895A1E21A2E82
:10527000AA1BBB1BFD010DC0AA1FBB1FEE1FFF1FFA
:10528000A217B307E407F50720F0A21BB30BE40B4A
:10529000F50B661F771F881F991F1A9469F7609591
:1052A0007095809590959B01AC01BD01CF0108954B
:1052B000EE0FFF1F0590F491E02D09940E946629DE
:1052C000332312F48A1B9B0B0C947729A29FB00105
:1052D000B39FC001A39F700D811D1124911DB29F2A
:1052E000700D811D1124911D08950E946629B7FF3C
:1052F0000895821B930B08950E946629A59F900D27
:10530000B49F900DA49F800D911D11240895B7FFA7
:105310000C947C290E947C29821B930B08952F9268
:105320003F924F925F926F927F928F929F92AF9235
:10533000BF92CF92DF92EF92FF920F931F93CF9382
:10534000DF93CDB7DEB7CA1BDB0B0FB6F894DEBF19
:105350000FBECDBF09942A88398848885F846E843F
:105360007D848C849B84AA84B984C884DF80EE8089
:10537000FD800C811B81AA81B981CE0FD11D0FB692
:10538000F894DEBF0FBECDBFED010895F999FECFB1
:1053900092BD81BDF89A992780B50895A6E1B0E045
:1053A00044E050E00C94002AA8E1B0E042E050E074
:1053B0000C94002A262FF999FECF92BD81BDF89A50
:1053C000019700B4021639F01FBA20BD0FB6F89449
:1053D000FA9AF99A0FBE08950396272F0E94DB29A7
:1053E0000E94DA29252F0E94DB29242F0C94DB2927
:1053F0000196272F0E94DB290C94DA29DC01CB01CE
:10540000FC01F999FECF06C0F2BDE1BDF89A3196D4
:1054100000B40D9241505040B8F70895FC0141503E
:10542000504030F001900616D1F73197CF01089522
:10543000882799270895FB01DC0104C08D91019014
:10544000801921F441505040C8F7881B990B0895EA
:10545000F894FFCF72189A18321A9A18321ACD1887
:10546000EE18321AEB19F8193B1B061C0D1C141C04
:105470001B1C221C291C371C301C3E1C8E1E8E1E21
:10548000C21EC21E6A1F841FF01EF01E8F1F6520E1
:0454900074207420F0
:10549400DD04CF0AAE0AA90AA40ADC04FFFF01193D
:1054A4001A1B1C1D1E1F2021220102010000911540
:1054B40000000000000000000000000000000000E8
:1054C400000000007415000000000000000000004F
:1054D400000000000000000000005715000000005C
:1054E40000000000000000000000000000000000B8
:1054F4001D15000000000000000000000000000076
:105504000000000000000015000000000000000082
:10551400000000000000000000000000E314000090
:105524000000000000000000000000000000000077
:105534000000C6140000000000000000000000008D
:105544000000000000000000A9140000000000009A
:1055540000000000000000000000000000008C14A7
:105564000000000000000000000000000000000037
:10557400000000006F1400000000000000000000A4
:1055840000000000000000000000521400000000B1
:105594000000000000000000000000000000000007
:1055A40035140000000000000000000000000000AE
:1055B4000000000000001B140000000000000000B8
:1055C40000000000000000000000000001140000C2
:1055D40000000000000000000000000000000000C7
:1055E4000000E713000000000000000000000000BD
:1055F4000000000000000000CD13000000000000C7
:105604000000000000000000000000000000B313D0
:105614000000000000000000000000000000000086
:1056240000000000961300000000000000000000CD
:1056340000000000000000000000791300000000DA
:105644000000000000000000000000000000000056
:105654005C130000000000000000000000000000D7
:105664000000000000003F130000000000000000E4
:1056740000000000000000000000000025130000EE
:105684000000000000000000000000000000000016
:1056940000000813000000000000000000000000EB
:1056A4000000000000000000EB12000000000000F9
:1056B4000000000000000000000000000000CE1206
:1056C40000000000000000000000000000000000D6
:1056D400000000003A150000000000000000000077
:1056E4000000000000000000000046170000000059
:1056F40000000000000000000000000000000000A6
:10570400FF16000000000000000000000000000080
:10571400000000000000B8160000000000000000B7
:105724000000000000000000000000008C160000D3
:105734000000000000000000000000000000000065
:1057440000006016000000000000000000000000DF
:1057540000000000000000003416000000000000FB
:1057640000000000000000000000000001B1001370
:1057740022A222A822A422A52227222822BB220375
:105784002204228622882282228422082209221AC2
:10579400221B221C222E222F2230222B222C222DAD
:1057A400227020B900B2007120B2027F20802081D3
:1057B400208220621D7C2C9920070308036A22D8CA
:1057C400226B22D922C903A903C803A803C603A6CE
:1057D40003C303A303C003A003BE039E03BB039B35
:1057E40003B8039803B4039403B30393035C64649E
:1057F4006F74005C646F74005F6E005F6A005F69C1
:10580400005F32005F31005F30005E6E005E6A0050
:105814005E69005E32005E31005E30005C69696979
:105824006E74005C69696E74005C696E74005C6F10
:105834006969696E74005C6F69696E74005C6F6994
:105844006E74005C71647274005C63627274005CF8
:1058540073717274005B5C6D6174726978284026A0
:10586400295D005C626967636170005C62696763FB
:105874007570005C70726F64005C73756D005C76AB
:105884006563005C6F766572626172005C74696C5A
:105894006465005C636865636B005C686174005DEB
:1058A40004016304016804006B04006E04007104C5
:1058B400007404007704007A04007D04008004006E
:1058C4008304008604008904008C04019304019974
:1058D40004019E0401A60401AD0401B30403B90448
:1058E40003BF0403C50402D30401DB0401E3040180
:1058F400E90401EE0401F30401FC04010305010AB7
:105904000501818283E200E900EA00B500B600B730
:1059140000CD008301CC008A01920194012102236D
:105924000224022502260227022A02B300B4006FD1
:10593400007000F4F5F6F7919094660001020202FB
:10594400020606060909090909090F0F0F0F0F0FAF
:1059540015151518191919191919191919192324AB
:00000001FF
